S01000006E63702D4D473133502E7333372E
S21400000000080020690B0000650B0000650B00006F
S214000010650B0000650B0000650B0000650B00001B
S214000020650B0000650B0000650B0000650B00000B
S214000030650B0000650B0000650B0000650B0000FB
S214000040650B000071920000650B0000650B000058
S214000050318D0000DD9200007D9200009592000038
S21400006075920000E1100000A1110000650B000071
S21400007025080000B1080000650B0000650B0000B5
S214000080650B0000650B0000E5110000650B000025
S214000090650B0000650B0000650B0000650B00009B
S2140000A0650B0000650B0000650B0000650B00008B
S2140000B0E19200007992000089730000650B000051
S2140000C021930000650B000041730000650B0000E3
S2140000D0650B0000650B0000650B0000650B00005B
S2140000E0650B0000650B0000650B0000650B00004B
S2140000F0650B0000650B0000650B000013B779FA6E
S214000100C925DDB7ADF3CFE0F1B614B800010000A5
S21400011000000000000000002000000001000000B9
S21400012000000000000000000000000000000000CA
S2140001300000000074010000090000000900000033
S2140001401802000000000000140200000200000078
S214000150700100006C010000000000006801000053
S21400016000000000FFFFFFFF00000000000000008E
S2140001700300070000000108FFFF0000E001000088
S21400018002000108FFFF0000E4010000070000086D
S214000190FFFF0001EC01000008000708FFFF000356
S2140001A00200000000000108FFFF0000F40100004C
S2140001B002000108FFFF0000F80100000400030829
S2140001C0FFFF00010002000002000108FFFF000020
S2140001D00802000005000108FFFF000010020000F2
S2140001E0020001180500200300052A002000040074
S2140001F01C1400200200001805000A0700002A0050
S2140002000A010A00000800200500020900012A0071
S2140002100200000300000000002801280328001840
S214000220002A012A0118052A0229000010B5054CEB
S214000230237833B9044B13B10448AFF3008001238D
S214000240237010BD0014002000000000686D02003E
S21400025008B5034B1BB103490348AFF3008008BD44
S2140002600000000004140020686D0200154B002BEF
S21400027008BF134B9D46A3F5803A00218B460F46D8
S2140002801348144A121A24F01EF80F4B002B00D005
S21400029098470E4B002B00D0984700200021040002
S2140002A00D000D48002802D00C48AFF3008023F064
S2140002B0A3FF2000290000F0D9F823F089FF00BF33
S2140002C000000800000800200000000000000000F9
S2140002D000140020B44A00200000000000000000C7
S2140002E010B500F09FFB012304220521002003F037
S2140002F07BFC002304220F210320BDE8104003F0FE
S21400030073BC00BF08B501210B4802F067FA012153
S2140003100A4802F063FA0121094802F05FFA012157
S214000320084802F05BFA00F09BFB00F0EBFB064887
S214000330BDE8084003F010BF00A2040000450A0014
S2140003400032040000350A0000040140F0B53D4EBE
S2140003503D4D96E80F0001246C642F688DB003AC09
S21400036047F480772F6084E80F0006F110052046DA
S21400037003F04EFB0FCD07AC0FC4344B2A685B6806
S21400038022801B035BBF324B1B884FF4AD73C3F355
S214000390080307A8ADF8223002F0EAFB2D4800F06B
S2140003A03DFC01221146022002F070FC04211120BF
S2140003B002F0F4FC00221146032002F067FC012143
S2140003C0254802F00BFA0CAD736A0293202305F859
S2140003D0283D284602F00EFC4FF4004000F058FC82
S2140003E002211E4802F0DAFC02211D4802F0D6FC6B
S2140003F002211C4802F0D2FC1B4B93E8070007AB17
S21400040003C30024012107A81A708DF81C108DF86C
S2140004101D408DF81E408DF81F408DF820408DF849
S214000420224003F043FD0CA800F82C4D03F060F9C1
S214000430022328468DF808408DF8093003F062F94B
S2140004400DB0F0BD9844020000000E40B081E00FF1
S214000450B881E00F00F0490200250A0002001C00E7
S21400046003001E0005002200C044020010B5FFF77E
S2140004706DFFFFF747FFFFF733FF1F480AF098F8B6
S2140004800DF0DCFD0DF046FE0DF0FCFD0DF02AFE35
S2140004900DF004FE0DF00EFE0DF0DCFD0DF016FE68
S2140004A00DF0E4FD0DF042FE0DF028FE00F014FA0B
S2140004B000F030F902E000F067F970B90AF0AFF921
S2140004C0044650B100F07EFA0028F4D1204600F031
S2140004D0BDF800F059F90028F0D000F0E1F800F07F
S2140004E053F90028E4D102F01FFE0AF0B5F90AF02D
S2140004F087F902F01BFEDBE7CC4402002DE9F04151
S21400050004460E461546B0F80A801BB9A8F10C083A
S2140005101FFA88F802F014FE23899845074661D929
S2140005201E2D38D92389A8EB0308C8EB0818B5EBAD
S214000530480F57D820881E2D00EBC000A84604EBB5
S214000540800028BF4FF01E0831464246103023F088
S21400055096FE238822886089511C03EBC30304EBB4
S214000560830391FBF0F200FB121292B2C3F80C80E8
S2140005702280E38801339BB2E380238901339BB258
S214000580B5EB080546442381D4D1384602F0DCFD9D
S2140005900120BDE8F081208800EBC00004EB80005D
S2140005A031462A46103023F06AFE23882288608966
S2140005B0511C03EBC30391FBF0F204EB830300FB37
S2140005C0121292B2DD602280E38801339BB2E38090
S2140005D0238901339BB23846238102F0B5FD012002
S2140005E0BDE8F08102F0B0FD0020BDE8F08100BF5C
S2140005F030B40B4B0B4C0C4D18600422002301202A
S214000600287119462A8004F10C006B804FF4BD62F5
S21400061023806380A380E380238130BC23F053BE15
S214000620201400207C0900200C08002038B5064C59
S2140006300D460A460146601D23F021FEADB200239A
S21400064065802371238038BD0C080020014658B110
S214000650036806481A0202F4E062C3F307231A434B
S21400066004320023FFF74ABF704700BF7C09002012
S21400067010B502F065FD094A91885389013191FB56
S214000680F3F404FB13139BB293801389013B9BB2D4
S2140006901381BDE8104002F057BD00BF7C09002062
S2140006A070B51A4DEB889BB2002B2ED0184E22E068
S2140006B06C88A4B204EBC404A40002F045FD2B1918
S2140006C01034D9683368C9B228199847E8B902F0D7
S2140006D037FD6A886B89013292FBF3F101FB132325
S2140006E09BB26B80EB88013B9BB2EB8002F02CFD4B
S2140006F0EB889BB24BB102F023FDEC88A4B2002C31
S214000700D6D102F021FD2368FFDE70BD7C090020F3
S2140007102014002010B5184C23791BBB23889BB2ED
S21400072003BBD4F80500154A20F47F4323F00703E3
S21400073093421BD004F109010DF0B2FD104B114895
S21400074019680B681A0202F4E062C3F307231A431F
S21400075004320123FFF7D2FE012104220023217177
S21400076022806380BDE81040FFF79ABF04F10900BD
S21400077000F070F9E2E700BF0C0800202000FF0040
S214000780301B00207C090020054B1A792AB91888EE
S21400079080B2B0FA80F0400970470020704700BF72
S2140007A00C080020704700BF10B4044C044B0A46E7
S2140007B0014620685DF8044B01F068BF700F00200A
S2140007C0C507000019461046FFF752BF38B5104C53
S2140007D002200AF065F820680368DA6E22F4E02248
S2140007E0DA66DA6E4FF4004542F48022DA660221B9
S2140007F09D6401F095F8074B206807494FF4B472E2
S21400080001F00CFF054A064B12681A6038BD00BF9F
S214000810700F0020A5070000281400209415002063
S214000820901500201E4B186803681A6C120435D504
S21400083030B54FF400421B4C9A64236885B033B938
S21400084004200AF02DF8FFF7C1FF05B030BD25687B
S21400085004AB002143F8041D01910291013D02AA58
S21400086001A9256001F000F901980028EDD0029951
S2140008700329EAD90C4B0D4C1A68130203F4E06303
S214000880C2F3072213430433236023689942DCD360
S2140008902168FFF7CBFEFFF799FFD6E7704700BF4A
S2140008A0700F00209015002028140020241400202B
S2140008B010B5084C23681B681B6C9B0400D410BD45
S2140008C0022009F0EDFF23681B684FF400529A647B
S2140008D010BD00BF700F0020F0B58BB02B4B0193FE
S2140008E000232B4EADF80C30ADF810308DF81230DA
S2140008F08DF813308DF815308DF8173003238DF8EA
S21400090014308DF818302349234A07914FF4E13408
S214000910022301A902948DF816304FF4805441F654
S2140009201E6330680892ADF80E40ADF8243001F032
S214000930AFF9029B194D1A481A4F9B092B60FFF717
S21400094057FE19490C2002F04FFC18490D2002F002
S2140009504BFC174B3068C3F880414FF40052C3F885
S21400096080211C601A6002681249D7669164D46CB4
S214000970114B124944F42044D4644FF4B47201F08D
S2140009804DFE0F4B2A681A600BB0F0BD0000014008
S214000990700F0020740F0020F40F00209415002024
S2140009A0A90700003000240125080000B108000057
S2140009B000E100E0FFFF0100A5070000281400206A
S2140009C0901500200368164A23F47F4323F007039C
S2140009D093420CD110B54368044613F0010016D1BB
S2140009E05A0706D413F0020F18BF012010BD0020CE
S2140009F070470022114640F2951009F0A5F9636889
S214000A0013F0020F4FF0010018BF012010BD09F0CF
S214000A1093F963685A074FF00100E3D5E9E700BF92
S214000A20A000010330B50A4D0FCD87B001AC0FC44E
S214000A302B68236001A94FF0FF3003F0C9FB20B9F3
S214000A4001214FF0FF3003F0C6FB07B030BD00BFFA
S214000A500C4502000022114640F2831009F0D0B97E
S214000A6070B5224D224E0FCD88B002AC0FC495E86B
S214000A70030084E8030001211E4801F0AFFE0121B7
S214000A801D4801F0ABFE01241C4B0493304602A91E
S214000A908DF8164003F0F0FA2346042206210220C1
S214000AA003F0A2F8224600230721022003F09CF858
S214000AB0234604220821022003F096F80422234647
S214000AC01146002003F090F80D4BB3670B2249F255
S214000AD03D6372670193019B002B05DD019B013B83
S214000AE00193019B002BF9DC08B070BD2045020085
S214000AF00004014000350A000042040040420F0096
S214000B000B0B000B38B5144B144D10221A6014242E
S214000B10FF21284603F04CFB013CF9D1104B0F4D4A
S214000B2010221A601E24FF21284603F041FB013CD8
S214000B30F9D10524FF21094803F03AFB013CF9D11D
S214000B40054B064810251D60B92103F031FB044B08
S214000B5020461D6038BD00BF0CA0004400040140C4
S214000B600CA00046FEE700BF08B500F075F8064B7F
S214000B700648834206D2064A52F8041B43F8041B72
S214000B809842F9D8FFF772FB00080020E013002017
S214000B90746D02000048704700F049020F4BD3F80E
S214000BA0943003F00703032B14D0042B0FD0022B32
S214000BB00AD00B4B1868094BD3F80031C3F3042353
S214000BC00133B0FBF3F07047064B1868F3E7064BAB
S214000BD01868F0E74FF40040EDE700BF00400E4015
S214000BE07C100020781000208010002008B5FFF749
S214000BF0D5FF054B054AD3F80831C3F30823013364
S214000C00B0FBF3F0106008BD00400E4074100020EA
S214000C10014B1868704700BF7810002008B50B4BD2
S214000C200B4A1860D2F8943003F00703022B00D06A
S214000C3008BDFFF7B3FFD2F80831064AC3F308230E
S214000C400133B0FBF3F0106008BD00BF7810002041
S214000C5000400E4074100020044B054A9A60D3F8FA
S214000C60882042F47002C3F88820704700ED00E048
S214000C70000000004FF40040704700BF4FF47A7049
S214000C80704700BF014B1868704700BF80100020F7
S214000C9008B50B4B0B4A1860D2F8943003F00703E4
S214000CA0042B00D008BDFFF779FFD2F80831064ABA
S214000CB0C3F308230133B0FBF3F0106008BD00BF98
S214000CC08010002000400E40741000202DE9F04FE8
S214000CD0594C85B025789DF844A09DF84CE0002D31
S214000CE066D0072A14465FD80E9A002A5CD00F9A60
S214000CF0002A59D0129AB2F5006F55DC0128064634
S214000D000F464ED0DFF844914FEA041809EB08026C
S214000D10127B002A50D0494A00216501CDE9011115
S214000D20039102EB050C002F48D157519CF80200A6
S214000D309CF80310CCF8047040F0100041F030012D
S214000D40CCE902778CF802008CF80310BAF1000F99
S214000D5065D00093129B515B013B63F30E11515318
S214000D6015440E99EB78A9606EF383030F996960BA
S214000D70012EEB703CD0149B002B56D009EB0803D9
S214000D802046149C49F80840159D5D600024624684
S214000D9069465E739C6002F0A7FF204605B0BDE87A
S214000DA0F08F109A002AADD1254805B0BDE8F08F27
S214000DB0244805B0BDE8F08F2348F6E751519CF86B
S214000DC002B09CF80300CCF804104BF0100B40F077
S214000DD00300CCE902118CF802B08CF80300BAF1DB
S214000DE0000FB6D1C1B241F030018CF80310B0E765
S214000DF01323EB6095E80F0005F1100E8EE80F0048
S214000E00EA69109B6B616FF0030161F39F02012F8B
S214000E10EA61B3D10F9BAB61109B6B60AEE7C9B2C2
S214000E2041F003018CF8031093E7AB78149A62F351
S214000E300413AB70A2E700BF181700201816002096
S214000E40018000F0028000F0078000F09815002076
S214000E5038B5114B1B7883B188B1054602F070F99E
S214000E600E4900220B461C7B103354B10132082A6F
S214000E70F9D102F069F90A4838BD0A4838BD0A486F
S214000E8038BD13012A60CA180125CC50157302F02C
S214000E905BF9204638BD00BF1817002098150020C3
S214000EA0048000F0028000F0018000F010B5174AC0
S214000EB082B00023126801928DF8043002F040F9E7
S214000EC0134B1C78E4B901221A7002F03DF9114B5D
S214000ED004220DEB02001C731C7783F82C4083F869
S214000EE03C4083F84C4083F85C4083F86C4083F8C1
S214000EF07C408DF8072002F0CBFE204602B010BDE5
S214000F0002F022F9044802B010BD00BF38450200C6
S214000F101817002098150020038000F0F0B589B05F
S214000F209DF838500F9C9DF84070119E03950494D0
S214000F30129D0193002400920B460246CDE90576E9
S214000F400795029421462046FFF7C0FE09B0F0BD83
S214000F50F0B589B09DF838500F9C9DF84070119EF2
S214000F6003950494129D0193002400920B460246BA
S214000F70CDE905760795029420460121FFF7A6FEE7
S214000F8009B0F0BD08B50A4B1A786AB1072809D827
S214000F90084A02EB00131B7B43B1002102F06EFEF1
S214000FA0002008BD044808BD044808BD044808BD24
S214000FB01817002098150020018000F0028000F02D
S214000FC0078000F008B50A4B1A786AB1072809D8D6
S214000FD0084A02EB00131B7B43B1012102F04EFED0
S214000FE0002008BD044808BD044808BD044808BDE4
S214000FF01817002098150020018000F0028000F0ED
S214001000078000F008B50A4B1A7862B1072808D89E
S214001010084A02EB00131B7B3BB102F0B5FE002032
S21400102008BD054808BD054808BD054808BD00BF01
S2140010301817002098150020018000F0028000F0AC
S214001040078000F00D4B1B78A3B1072810D879B1A4
S2140010500B4B03EB00131B7B73B10A4B01221B6A7D
S21400106002FA00F018401ABF00200A700870704795
S2140010700548704705487047054870471817002010
S2140010809815002000200E40018000F0028000F03D
S214001090078000F00D4B1A7892B107280DD861B181
S2140010A00B4A02EB00131B7B6BB110B50C4602F02B
S2140010B081FE00232060184610BD064B1846704778
S2140010C0054B18467047054B184670471817002002
S2140010D098150020018000F0028000F0078000F0E4
S2140010E02DE9F8431D4E326EF36E12EA030834D42F
S2140010F01B4CDFF870900127002506E00135082D0F
S2140011004FEA470704F1100425D018EA070F2846CF
S214001110F4D02368B766002BF0D0D4E90121013162
S214001120A1609847637B012BE8D109EB451303F1D7
S214001130080218330028E1D1117960F341011171DA
S2140011401A79013560F34102082D1A714FEA4707F4
S21400115004F11004D9D1BDE8F883FEE700200E4064
S2140011609815002018160020054B4FF480214FF4E8
S2140011708062C3F880111960C3F880211A60704736
S21400118000E100E038B504460D4601F0D9FF034BF8
S21400119043F82450BDE8384001F0D6BF1C170020A5
S2140011A00E4B70B5D3F82844D3F81C1445F25552AC
S2140011B00C401440C3F824447CB1094E012594FA2F
S2140011C0A4F0B0FA80F005FA00F256F8203024EACF
S2140011D0020403B19847002CF1D170BD00A0004076
S2140011E01C1700200E4B70B5D3F82844D3F81C14F7
S2140011F04AF6AA220C401440C3F824447CB1094E97
S214001200012594FAA4F0B0FA80F005FA00F256F838
S214001210203024EA020403B19847002CF1D170BDB7
S21400122000A000401C17002008B5034B1B6803B144
S2140012309847012008BD00BF6017002038B5124D42
S2140012402B6804460BB1984768B1631E032B05D87C
S214001250DFE803F00A11150202F0CEF96B682046AB
S2140012600BB19847204638BD084A136923F004039B
S214001270136130BFF2E7002002F060F9EEE70020CD
S21400128002F082F9EAE700BF6417002000ED00E0F4
S2140012900B4A0C4B70B510600B4C0C4D00221A809C
S2140012A0C4E9005102F0D2FDC30300D470BD02F0C1
S2140012B0C7FD6368002BF9D00420BDE870401847CE
S2140012C0601700205C170020641700202912000019
S2140012D02DE9F041184D01F02BFF2B78804613B90D
S2140012E002F086F92B78154F002483B96B78002B13
S2140012F014BF02200320FFF7A1FFBB6806460BB110
S21400130098470446E30704D52B78002BEED001203F
S214001310F1E7B31EDBB2012B05D9404601F00CFF06
S2140013203046BDE8F08102F065F9404601F004FF62
S2140013303046BDE8F08100BF5C170020641700202F
S2140013400238C3B2012B03D8024A135C013313548C
S214001350704700BF5C1700200238C3B2012B00D9CB
S2140013607047034A135C002BFAD0013B13547047B6
S2140013705C170020054B1A782AB95B78002B0CBF47
S2140013800320022070470120704700BF5C17002032
S21400139038B504460D4601F0D3FEA3889BB253B180
S2140013A0638803EB830304EB830408342C6001F0AA
S2140013B0CBFE002038BD2B6001F0C6FE004838BDCD
S2140013C00B7000F070B504460E4601F0B9FEA38817
S2140013D09BB2BBB163886288E58803EB830304EBAA
S2140013E0830301320833336092FBF5F305FB1323C6
S2140013F09BB26380A388013B9BB2A38001F0A4FE4E
S214001400002070BD336001F09FFE014870BD00BF34
S2140014100B7000F030B504460D4683B0C07DE17E0B
S214001420E5B10123042202F0DFFB01230222217F23
S214001430207E02F0D9FB94F83130022B36D0032BF5
S2140014401CD1617F607E0023012202F0CDFB0023C9
S2140014500422A17FA07E02F0C7FB0FE02B462A469F
S21400146002F0C2FB2B462A46217F207E02F0BCFB00
S21400147094F83130022B04D0032B2CD0002003B07C
S21400148030BD2B462A46617F607E02F0ADFB2B46C0
S2140014902A46A17FA07E02F0A7FB627F607E0195B0
S2140014A001231146009302F04BFBE7E7617F607E65
S2140014B00023012202F098FBA17FA07E00230422D5
S2140014C002F092FB627F607E01231146CDE9003375
S2140014D002F036FBD2E72B462A46617F607E02F09A
S2140014E083FB2B462A46A17FA07E02F07DFBC5E744
S2140014F090F83230012280F82C202BB1012B03D03B
S214001500002380F82C30704703680A6830B50D4613
S21400151087B0044601696D6880680494054C01959F
S2140015200394002501241C3302950094FFF710FD58
S21400153007B030BDA51B000090F83230012280F8BD
S2140015402D20ABB90268343230B50D4687B004465C
S2140015500B686D68C168406804940A4C0195039452
S2140015600025012402950094FFF7D8FC07B030BD93
S214001570012B03D0002380F82D30704702682832F4
S214001580E2E700BF89150000F0B583B0906A01A9B4
S2140015901446FFF7FDFE154B98421BD0019B002515
S2140015A01D619D6001F0CCFD019AD668074626B104
S2140015B02946D2E900232046B04701A9A06AFFF7D2
S2140015C001FFA06A83889BB23BB984F82D30384669
S2140015D001F0BAFD012003B0F0BD01A9FFF7D8FE67
S2140015E020460199FFF7A8FFF1E700BF0B7000F057
S2140015F0427E054B417F02EB4202D20113440B446C
S2140016009B001868C0B27047E000851010B51D4BEF
S21400161082B003F1100153F8044B627F824203D07C
S2140016208B42F8D102B010BD94F83130022BF9D1BC
S2140016302046FFF7DDFF637D2075022BF2D194F87C
S2140016402E3003F0FF02002BECD102A9606801F8EF
S214001650012DFFF7F7FC237D63B194F82F304BB9CB
S2140016600028DFD19DF80730002BDBD06068FFF73D
S21400167089FCD7E7002384F82F306068FFF7A2FCC8
S214001680D0E700BF7017002090F8323053B90268D8
S2140016900123D3601369D807FCD5536F43F00103C9
S2140016A053677047012B00D0704703685A6C910748
S2140016B0FCD401225A609A68D207FCD55A6D42F0D3
S2140016C001025A65704700BF90F832306BB1012BAB
S2140016D000D070470268536C9B07FCD4536D022100
S2140016E023F0010353655160704703685A6F022167
S2140016F022F001025A67D960704700BF10B5044651
S214001700FFF7D4FB201D0021FFF7A2FB30B90146EE
S21400171004F10800FFF79CFB00B910BD004810BD9F
S2140017200E7000F003689B6803F00200DA0748BFFB
S21400173040F00100590748BF40F008001A0748BFAC
S21400174040F02000D90648BF40F040009A0648BF47
S21400175040F080005B0648BF40F40050704700BF72
S214001760F8B5044609200D46164601F0EFFC07467C
S214001770A26A03E094F82E3023B977BB93889BB215
S214001780002BF7D194F8323003BB2068076917F0B6
S21400179002074DD10423C36003699907FCD5436F44
S2140017A0012243F00203436784F830203EB12E4402
S2140017B015F8011B02F006FDB5422068F8D1036952
S2140017C09906FCD5002F37D00020F8BD012B07D096
S2140017D0012384F830300020F8BDFFF781FCC7E70E
S2140017E02068876817F0020718BF84F830300FD0DB
S2140017F03EB12E4415F8011B02F0FCFAB5422068F3
S214001800F8D183681A07DDD483681A07F9D5D9E7B3
S214001810436C9A07FCD40423436083689B07FCD57B
S214001820436D012243F00203436584F83020DFE76E
S214001830012384F83030B9E794F8323063B1012BD5
S214001840C2D12268536C9B07FCD4536D082123F049
S214001850020353655160B7E723685A6F082122F0E8
S21400186002025A670020D960F8BD00BF10B590F894
S2140018702E30012B044607D094F82E30013BDBB205
S21400188084F82E30002010BD90F83130022B03D0A3
S2140018906068FFF797FBEFE7FFF7AAFE0028F7D090
S2140018A0EAE700BFF8B5044617460D4601F048FCC7
S2140018B0A388E2889A422BD9268884460FCD06EB69
S2140018C08606B600083604EB060EA051CEF80410C5
S2140018D0CEF80820CEF80C302868CEF81000238802
S2140018E02288E088511C03EB830391FBF0F204EBA3
S2140018F0830300FB121292B208333B602280A38857
S21400190001339BB26046A38001F01EFC0020F8BDA8
S21400191000233B6001F018FC0048F8BD0A7000F098
S214001920002849D02DE9F04182B00D46044601F06A
S21400193007FC012D074619D0022D3FD1636A9B880C
S2140019409BB2002B46D0A068FFF75CFB0023606AC2
S21400195084F82C3083889BB2002B61D194F8313008
S214001960032B1CD02046FFF7AFFE18E0A36A9B8827
S2140019709BB2002B2ED06068FFF744FB0023A06AC2
S21400198084F82D3083889BB253BB94F832306BB901
S214001990236818698304F8D5023D012DD3D938464B
S2140019A001F0D2FB002002B0BDE8F081012BEED1A1
S2140019B02046FFF7B7FEEDE728487047032DEBD12A
S2140019C0A36A9B889BB2002BD5D1636A9B889BB287
S2140019D0002BD0D101F0B8FB214802B0BDE8F08161
S2140019E001A9FFF7D5FC019960680831FFF752FBA3
S2140019F01C4B019A9846136104E0FFF7E3FC019B39
S214001A00DE683EB9A36A18469B889BB201A9002BE4
S214001A10F3D1BAE79B68002241462046B047F1E77B
S214001A206946FFF7B5FC0099A0680E4E0831FFF72F
S214001A3031FB009B1E61636A18469B889BB2694611
S214001A40002B8BD0FFF7BEFC009BDD68002DF2D08C
S214001A509B68002231462046A847ECE7027000F05B
S214001A60087000F0097000F02DE9F0410546406A64
S214001A70848882B00026A4B20096019617460E46C9
S214001A80984694B90021C8F800103960316095F87E
S214001A9032302BB1012B1ED0002002B0BDE8F08101
S214001AA02B68186902B0BDE8F0816946FFF770FC44
S214001AB001A90446A868FFF7EDFA009A002AE1D0CB
S214001AC0002CDFD1D2E9002301995B1A3B60C8F8ED
S214001AD000103260DBE72846FFF724FE02B0BDE8C0
S214001AE0F08100BF98B110B590F82E30044633B997
S214001AF090F83130022B0CD06068FFF743FA94F868
S214001B002E300133DBB284F82E30002010BD03489F
S214001B107047FFF76DFD0028EED0F0E7027000F08A
S214001B2070B590F83150022D82B003461AD0012DC0
S214001B3002D0002002B070BD037D044602AE63B33F
S214001B40132306F8013DFFF7CDFF2A46314620460F
S214001B50FFF706FE94F82E30002BEAD02046FFF75B
S214001B6085FEE6E7827E857F0D49447D02EB4202D4
S214001B70120101201144A8404CB1012C01D01B7D5C
S214001B802BB101F1C0610860002002B070BD01F108
S214001B9080610860002002B070BD1123D1E700BF4D
S214001BA00CA0004070B582B0506A01A91446FFF739
S214001BB0EFFB344B984235D094F83220019B002A34
S214001BC033D12068016C11F4007106D09A602E495A
S214001BD019614FF40072826405E0026CD50541D4A9
S214001BE000221A619A6001F0ABFA0199CD680646A8
S214001BF035B1D1E900208B680969C31A2046A84789
S214001C0001A9606AFFF7DEFB606A8588ADB2D5B1D0
S214001C1001A9FFF7BDFB20460199FFF769FC304696
S214001C2001F092FA012002B070BD012AD8D12168D5
S214001C30CA6A12F080021CD0134A1A610020802261
S214001C4098604A63CFE7012323752046FFF768FFB5
S214001C5094F8313084F82C50032BE0D02046FFF760
S214001C6033FDDCE7094D99604FF480721D61826494
S214001C70B9E7C86A4006B3D59A600448186140229E
S214001C804A63B0E70B7000F00D7000F00C7000F0C7
S214001C902DE9F041894D06460F460FCD88B001ACC0
S214001CA00FC495E8070084E80700B6B1002F35D0CA
S214001CB034220021304622F006FB814A81491378FF
S214001CC03D46344673B10023084650F8042B7AB1DB
S214001CD094420DD00133042BF7D17B4E304608B02A
S214001CE0BDE8F081C1E90033C1E90233012010707C
S214001CF02A6841F82340754B297C84F831109A42B3
S214001D004FF00001226084F832100CD0704B9A42DB
S214001D1000F0A0816F4B9A4200F0C7806E4E3046AE
S214001D2008B0BDE8F0816D4B6D4A23624FF4402346
S214001D30C4E90323D5E9062369686889B5F80CC0A9
S214001D40626200261680052756809680AA7B84F855
S214001D502C60A3621E805E809E80EB7B0391ADF8B4
S214001D60140001215F4884F82D6084F82F60ADF8D8
S214001D7012C08DF810208DF816308DF8117000F016
S214001D802DFD0121584800F029FD0121206A00F0B0
S214001D9025FD01A928688DF8046002F00FF928686F
S214001DA06A7A836F297AD4F800C0DFF820E123F43A
S214001DB0F85323F01F03134343EA01238367F445D4
S214001DC04FF00303436700F095804148844500F0D8
S214001DD04981404B9C45A1D1002900F04C824B1E06
S214001DE00C2B40F21483A1F10E03062B8CBFFF23AD
S214001DF00523E375002A00F0DE82012A00F08983BD
S214001E00931E0A2B40F20D83A2F10D03062B40F21F
S214001E10B083A2F11403092B40F203831F2A14BFD8
S214001E20FF2300232376002900F00683012900F013
S214001E309D838B1E0B2B40F2FD820E2900F0A383A0
S214001E400F2900F09E83102900F07C83112900F0F2
S214001E507783122900F07283132900F06D8314290A
S214001E6014BFFF230723E376002A00F00D82531EDB
S214001E700B2B40F209820D2A00F0B3830E2A00F0E5
S214001E8058830F2A00F05283102A00F06883112A24
S214001E9008D0122A00F07283132A00F06C831F2ADF
S214001EA040F0F28105232377A7E0104B104A236207
S214001EB04FF46023C4E903233CE700BF4C4502000F
S214001EC08017002070170020027000F0000001400C
S214001ED00004014000080140037000F000320400D6
S214001EE001000C004041050000350A0000520400C5
S214001EF001000E00002900F0B481481E042816D9FF
S214001F00881F042840F2CE82A1F10B00B84240F2AE
S214001F101B83A1F11100062840F24A83A1F11803A1
S214001F20062B40F243831F2914BFFF263E46E67564
S214001F30002A40F047820129227600F026830229F3
S214001F4000F06D82032952D0042950D005294ED0C6
S214001F50062900F0A982072900F0B482082900F0BB
S214001F60B782092900F0BA820A2900F0BD820B293F
S214001F7000F012830C2900F013830D2900F00E8365
S214001F800E2900F025830F2900F02083102900F089
S214001F908B82112900F01C83122900F01783132965
S214001FA000F08282142900F08D82152900F09082BC
S214001FB0162900F09382172900F09682182900F05F
S214001FC00383192900F0FE821A2900F0F9821B29E2
S214001FD000F0F4821C2900F0EF821D2900F0EA824E
S214001FE01E2900F0D9821F2914BFFF210721E176A0
S214001FF0002A40F07B81012222776B7C6376AB7CE3
S2140020006377EB7CA3762B7DA37701212046FFF731
S21400201001FA064600287FF461AE01F091F82F7CA5
S214002020032F804600F0E181022F00F00F8228681F
S2140020304FF0FF338364042101F0B8FF2B684FF4A0
S21400204040622046DA60FFF759FB0646404601F03C
S2140020507BF843E6E14BE24A23624FF45023C4E99F
S214002060032367E6002900F01281481E042816D9CB
S214002070881F042840F21C82A1F10B00052840F2BC
S2140020804682A1F11100062840F28E82A1F11803C3
S214002090062B40F287821F2914BFFF260526E67509
S2140020A0002A00F09581012A00F09682931E022BEA
S2140020B040F2B981531F042B40F2F081A2F10A03CB
S2140020C0052B40F22B82A2F11003062B40F224824D
S2140020D0A2F11703072B40F27D821F2A14BFFF23AD
S2140020E000232376002900F0AF81012900F07782D3
S2140020F0022954D0032952D0042950D005294ED0A5
S214002100062900F0D381072900F0DE81082900F0B7
S214002110E981092900F0E4810A2900F06B820B2985
S21400212000F066820C2900F061820D2900F05C82C6
S2140021300E2900F06F820F2900F06A82102900F045
S214002140B581112900F06682122900F061821329F8
S21400215000F0AC81142900F0B781152900F0C28187
S214002160162900F0BD81172900F04482182900F0D6
S2140021704D82192900F048821A2900F043821B2953
S21400218000F03E821C2900F039821D2900F03482BE
S2140021901E2900F02D821F2914BFFF210721E1769A
S2140021A0002A00F00281012A7AD0022A00F03D813E
S2140021B0032A00F06081042A00F06281052A00F0FC
S2140021C06A81062A00F07681072A00F07881082ABC
S2140021D000F08C81092A00F08E810A2A00F08E8198
S2140021E00B2A00F091810C2A00F08B810D2A00F05A
S2140021F09A810E2A00F094810F2A00F04C81102A52
S21400220000F09181112A00F08B81122A00F04381A0
S214002210132A00F04F81142A00F05181152A00F08D
S2140022206581162A00F06781172A00F09581182A22
S21400223000F0BB80192A33D01A2A00F0F6801B2A39
S21400224000F019811C2A00F01B811D2A00F056811F
S2140022501E2A00F059811F2A14BFFF210021217772
S214002260CBE6E175002A00F0A380012A1BD1217677
S214002270E1760222C0E6E17512B1012A7FF4C0AD14
S214002280FF2323760523E376FF232377B5E6E17560
S214002290002A00F0A780012A7FF408AF2176E176B5
S2140022A002212177A9E6931E022B40F2B680531F27
S2140022B0042B40F2EA80A2F10A03052B40F20A81C1
S2140022C0A2F11003062B40F26581A2F11703072B3B
S2140022D040F25E811F2A14BFFF23002323760029C5
S2140022E000F09780012940F0D280E176012AC0D024
S2140022F0022A00F09080032A00F09A80042A00F058
S214002300BD80052A00F0BF80062A00F0C980072A93
S21400231000F0D380082A00F0D980092A00F0DC807B
S2140023200A2A00F0E6800B2A00F010810C2A00F042
S21400233011810D2A00F00C810E2A00F015810F2A5B
S21400234000F0A180102A00F00381112A00F00C8111
S214002350122A00F09880132A00F0A280142A00F0B7
S214002360AC80152A00F0B280162A00F0B580172A35
S21400237000F0F880182A3FF43EAE192A3FF479AFF1
S2140023801A2A48D01B2A53D01C2A77D01D2A00F0C0
S214002390B0801E2A00F0DA801F2A14BFFF22002217
S2140023A02AE602297FF4A6AEE1760121217724E60B
S2140023B02276E2761FE6FF23012923763FD1E376D5
S2140023C023771AE6012A7FF46EAF0023237689E787
S2140023D001292276E5D1E17621770EE60042040057
S2140023E001000D002276E276DFE728682B8CC367B3
S2140023F0436E43F004034366436F4FF0FF3243F0EF
S214002400300343678264052101F0D0FD16E6FF2302
S214002410EFE4E1766CE70322EEE500235EE7E17683
S214002420E9E5FF23FEE400235BE603212177E4E5EC
S2140024300422E1E5FF2316E50523E37617E5881E6B
S2140024400B283FF6FAAC1EE7E176AEE6FEF78CFE0A
S2140024507149607FFEF796FEA6752675677520465D
S214002460FFF75EFB2B7C28684FF0FF32032B82645D
S2140024707FF4E1ADC7E704212177BEE50522BBE581
S21400248005212177B9E50B22B6E5012326E70229C7
S2140024907FF458ADABE50B212177AEE5012320E6AE
S2140024A00C22A9E5012642E50B21A0E50B2176E6E4
S2140024B00126F4E50C2121779FE50D229CE50D21F0
S2140024C021779AE50C2192E50C2168E60E2293E529
S2140024D00D218CE5022301E70F228DE50E2186E50E
S2140024E00E215CE60D215AE60F2180E50E212177AC
S2140024F083E5062280E50F2121777EE506212177F8
S2140025007BE50821217778E50721217775E5022606
S214002510C5E5FF23237689E40323E2E50223E0E50D
S2140025200A21217769E50921217766E503232377C8
S21400253063E50123237760E5062394E4052392E40C
S214002540042390E403238EE40226F0E4072253E5F6
S214002550092251E508224FE5002121774DE50423A5
S21400256023774AE5002247E50A2245E5FF23E3767E
S2140025707DE4052356E4072323773EE506232377E9
S2140025803BE501236FE400236DE4E1760A4633E57C
S2140025900523A3E60323A1E6062128E5082126E570
S2140025A0072124E53E467AE51E4678E53E46BEE42B
S2140025B01E46BCE405211AE5042118E5032116E5AC
S2140025C0022114E5012112E5002110E50A210EE59D
S2140025D009210CE5052384E50023237685E5E176CD
S2140025E0E1E50023237708E50821D8E50721D6E5AD
S2140025F00621D4E50F21D2E50521D0E50421CEE55C
S2140026000321CCE50221CAE50121C8E50021C6E583
S2140026100A21C4E50921C2E50D16000070B586B092
S21400262050B329B3541EB4F5006F21D2144E019155
S214002630144605466A46406A029401A90394CDE909
S2140026400436FFF72FF9044698B995F82C3083B96D
S2140026502846FFF719F800992846FEF749FF95F82F
S2140026603130032B05D02C752846FFF759FA00E0C9
S214002670044C204606B070BD034C204606B070BD24
S214002680017000F0037000F0027000F070B586B0C4
S21400269028B301B3541EB4F5006F1CD2164E019138
S2140026A0144605466A46806A029401A90394CDE959
S2140026B00436FFF7F7F8044670B995F82D305BB985
S2140026C000F03EFDAB6A9B889BB206465BB930467F
S2140026D000F03AFD00E0094C204606B070BD084CFC
S2140026E0204606B070BD00992846FEF725FF012358
S2140026F085F83030EBE700BF017000F0037000F0A3
S214002700027000F010B4134B134A5B680024C9B281
S2140027108C42234608D00133052B02F1080215D05F
S21400272012F8084C8C42F6D152F80C4C8442F2D384
S2140027300A4A02EBC3035B791A0606495DF8044BA6
S2140027404B6823F0407313434B6070474FF0407262
S214002750F3E700BF00000E40844502007845020003
S21400276038B5074C41F67133256C2364FEF712FA30
S2140027700021FFF7C7FF0DB10023236438BD00BF5B
S21400278000000E400C4A0D4BD2F89010516A21F012
S214002790300141F0100110B45162146BC0F3C31144
S2140027A0033123400F2928BF0F21034343EA017357
S2140027B013635DF8044B704700400E4000F8FF0FAF
S2140027C038B5054C41F67133256C2364FFF79AFF44
S2140027D00DB10023236438BD00000E40C0F3032370
S2140027E0013B30B4092B0CD8DFE803F00D110B0BBE
S2140027F0152D190B2705164CC0F304302044800015
S214002800016030BC7047C0F30430124CF6E7C0F3EA
S2140028100430114CF2E7C0F30430104CEEE7104CD5
S214002820C0F3043010250F4BD3F84421D207E5D46B
S214002830D3F840212A42FBD1E0E7C0F304300A4C2B
S2140028404FF48035EFE7C0F30430084C0125EAE783
S214002850800AF2100000F2100006F2108005F21056
S2140028604007F21000400E408007F2100007F210FA
S21400287000F00F000138072847D8DFE800F0121DE7
S2140028803346283E4604264BD3F85C3103F030032B
S214002890202B40D0302B40D0102B0CBF072001201F
S2140028A070471F4BD3F8943003F00703023B052B09
S2140028B02FD81C4AD05C7047194BD3F8803003F0F1
S2140028C00703013B032B22D8174AD05C7047144BF2
S2140028D0D3F8883003F00703013B032B17D8134ABD
S2140028E0D05C70470E4BD3F8843003F00703013BEF
S2140028F0032B0CD80E4AD05C7047094B1B6F13F0A5
S214002900010F14BF092007207047002070470120E0
S214002910704705207047042070470820704700BFA6
S21400292000400E40684502007045020070450200F7
S2140029307445020008B50146FFF79AFF1E4B994200
S2140029402FD01E4B994226D01D4B99421DD00138E0
S214002950032803D8DFE800F01511042B002008BD7B
S214002960FEF744F9174BD3F80031C3F300635A1C43
S21400297001239340B0FBF3F008BDBDE80840FEF726
S21400298081B9BDE80840FEF775B90E4BD3F8800054
S21400299000F00700DBE70B4BD3F8880000F00700D9
S2140029A0D5E7084BD3F8840000F00700CFE7BDE872
S2140029B00840FEF763B900BF03001E0005002200B2
S2140029C002001C0000400E4000F47810B0F5A01F76
S2140029D000F0BD8008B51BD9B0F5F01F33D054D930
S2140029E0B0F5301F34D066D9B0F5381F6BD0B0F5CF
S2140029F0401F1AD15748FFF73BFF072842D0082848
S214002A0000F09B80042810D1BDE80840FEF700B90E
S214002A10B0F5202F13D00AD9B0F5602F2DD0B0F521
S214002A20801F2FD0B0F5402F1CD0002008BDB0F579
S214002A30003F73D0B0F5802F65D00028F5D1BDE8F3
S214002A400840FEF7ABB84448BDE80840FFF772BF41
S214002A504248FFF76FFF424BD3F82031C3F3011310
S214002A60D84008BDFEF79AF83D4BD3F81431C3F3AF
S214002A7004230133B0FBF3F008BD3A48FFF7F8FE35
S214002A80072856D1384B186808BDB0F5C01F2DD0A2
S214002A90B0F5E01F25D0B0F5B01FC6D12F48FFF720
S214002AA049FF2F4BD3F82021012302F00F02934059
S214002AB0B0FBF3F008BDB0F5081FB6D12B48BDE853
S214002AC00840FFF737BF2448FFF734FF244BD3F8FE
S214002AD02831C3F301231A1D01239340B0FBF3F002
S214002AE008BD1E48BDE80840FFF724BF1A48FFF798
S214002AF021FF1B4BD3F828210123C2F30112934078
S214002B00B0FBF3F008BDFEF749F8154BD3F80C31CF
S214002B10C3F308230133B0FBF3F008BDFEF73EF81D
S214002B200F4BD3F80831C3F308230133B0FBF3F09F
S214002B3008BD09287FF479AF81E7FEF72FF8084B28
S214002B40D3F80031C3F3042303FB000008BD074895
S214002B50FFF7F0BEB800300003001E0002001C00A5
S214002B6000400E4006000E008410002005002200E3
S214002B7038B501461120FFF77BFE1B4B1B4A082089
S214002B8018661368002BFCD1174A0D7C536A184848
S214002B900C7823F00103022D08BF43F001035362B3
S214002BA004608B88487ACD8840EAC320D062136BD5
S214002BB00C7A887A03F07F630343E01C0F2843EA0D
S214002BC0C52343EAC41328BF0F2043EA00731363E8
S214002BD08B7B4C7BC87B097B1B0143EA0433034396
S214002BE043EA0143536338BD00400E400812C84311
S214002BF0A004C84338B501461120FFF739FE0C4B38
S214002C000C4A4FF4007018661368002BFCD18B78C2
S214002C104D780C78C878084A08491B0643EAC5234D
S214002C20234343EA002306480860136038BD00BF0C
S214002C3000400E402012C84338400E4638400E442E
S214002C407F1B00070F4B5B6A13F0300F06D020295E
S214002C5014D0302902D009B10B4A01E04FF44002EB
S214002C600849D1F8903032EA0303FAD1530246BF3E
S214002C70D1F8A000C0F38020012070474FF4000276
S214002C80EEE700BF00400E40FF33E13FF8B50428F2
S214002C9015D8DFE800F021152D4328000021374C19
S214002CA026661C68002CFCD04AB1354C2C44A40087
S214002CB02368002BFCD0022801D100293CD1F8BDA6
S214002CC0304B8024402607250029E7D12B4A14667E
S214002CD01A68002AFCD1F8BD2B4B4FF400744FF451
S214002CE080760925F0E7294B202410260525EBE7FA
S214002CF000293FD0214C636A13F0300F13D1244BC8
S214002D00DB6B636ADB0713D5656A224B25F030055B
S214002D1045F01005656204260325C0E70126354602
S214002D201D4B0224D0E71B4B042603250021B6E7E3
S214002D30184B04260325B2E7104A104D516A11F0CD
S214002D4001011FBF20214FF48063C2F8A8305166EE
S214002D50FFF778FFD5F89C70012200210220FFF7CC
S214002D6095FFC7F30A00FFF70DFD2E662368002BBC
S214002D70FCD0F8BD074B0824A8E700BF00400E4073
S214002D808004F2101812C8432012C8431012C84319
S214002D9000300E400812C8430012C8431128F8B588
S214002DA00C460DD000F00F000138072807D8DFE8E2
S214002DB000F00C6466063F5B062904232B60F8BD12
S214002DC0042900F0908005295BD00025023C0A2CDF
S214002DD0F5D801A353F824F0F92F0000C12F000006
S214002DE0C72F0000E12F0000BF2D0000BF2D000000
S214002DF0BF2D0000BF2D0000BF2D00003B2F0000A0
S214002E00FF2F00004C1E072CD9D801A353F824F03E
S214002E10372F0000BF2D0000BF2D0000292F000017
S214002E20BF2D0000BF2D00001B2F0000072F000045
S214002E30774D013C092CC2D801A353F824F000BFFB
S214002E40E32E0000D52E0000C72E0000BF2D000088
S214002E50BF2D0000972E0000BF2D0000BF2D0000E4
S214002E60BF2D0000BB2D0000072900F0CD800929EA
S214002E70A5D1684B01221A67F8BD674DD9E7674DA3
S214002E80D7E7674A674B15689D429ED900212846BA
S214002E9000F006FC9AE7FDF7A9FE634B984229D896
S214002EA000231C4661495B4A0C60D2F8000101F51C
S214002EB0AE51083120F0807018430124C2F800019A
S214002EC003230C607AE7012211461046FFF7DEFE68
S214002ED0012373E7012211460020FFF7D7FE0223E5
S214002EE06CE700236AE7FDF793FE054600283FF4EB
S214002EF06CAFCBE74E4B012498428CBF4FF000736B
S214002F004FF08073CEE73021424AD2F85C3123F08E
S214002F1030030B43C2F85C31F8BD01221146042091
S214002F20FFF7B4FE1021EFE7012211460220FFF75B
S214002F30ADFE2021E8E70021E6E703200524012274
S214002F401146FFF7A3FEFFF70BFC1DB1394A1368C5
S214002F50002BFCD12F4B38485C67FFF735FD324B12
S214002F6098424ED9324B012498428CBF4FF00073E2
S214002F704FF080732D49274A0C60D2F8000120F0EC
S214002F8080701843C2F80001FDF730FE294B1C681C
S214002F90002CFCD1294B2A4E5968376C41F6713308
S214002FA0C1F301413364FFF7ADFB07B13464002D74
S214002FB07FF405AF28460121BDE8F84000F070BB5D
S214002FC001200324BBE7194B124A01211960D2F8ED
S214002FD00031022043F08073C2F800310446AEE7A9
S214002FE0124B0C4A01241C60D2F8003143F0807367
S214002FF0C2F800310320A2E7002004249FE707243C
S214003000A1E700231C46B5E7024B00221A67F8BD6D
S21400301088400E4000400E4080400E4084400E40E7
S2140030207C100020002D31010048E8014000C84314
S2140030300090D003C800C64300250A0000300E40AA
S21400304000000E402DE9F041002A46D02F4B304AB2
S21400305012685D6A002925F0405545F0005314BFFC
S2140030604FF0805500251D43FDF7D2FD0121064691
S21400307000F016FB274B1C68002CFCD1244B264F77
S2140030805968D7F8408041F67133C1F301413B647B
S2140030903046FFF737FBB8F1000F00D03C641F4BFB
S2140030A09E4228D91E4B01249E428CBF4FF00076CC
S2140030B04FF080761B4B154A1C60D2F8003123F087
S2140030C080733343C2F80031012211460220FFF715
S2140030D0DDFD0E4B5D62BDE8F0810C4B5D6A25F0B0
S2140030E0405551B9FDF794FD012100F0D9FA074B80
S2140030F05D62BDE8F0810026DCE7FDF789FD012171
S21400310045F0805500F0CCFADEE700BF00400E40E8
S21400311000300E40C800C64300000E400048E801DC
S2140031200090D0034000C84372B6704762B670473E
S214003130EFF3108072B6704700B962B6704700BFF2
S214003140EFF3108072B67047FFF7F6BFEFF3108309
S214003150DA0732D4214A4309C1B252F8233010B4F8
S21400316001F01F04E340DB0723D5002827DB1044CB
S21400317090F800034209EFF3118313B1B2EB531F2B
S21400318017D217494868C0F3080098B11038C0B283
S21400319043B2002B1ADB03F1604303F5614393F857
S2140031A000034009824234BF002001205DF8044B32
S2140031B0704701205DF8044B704701207047094BAB
S2140031C001F00F010B44187E4209D4E700F00F030C
S2140031D0043B0B44187E4009E4E700BF00E100E032
S2140031E000ED00E0FCEC00E0024B9B6803EB800087
S2140031F00164704700ED00E0F0B4049F9DF81450A1
S21400320053B1002465B1A14213D950F8246042F8A6
S21400321024600134A342F5D1074BF0BC9A60704796
S214003220A14252F8246002D9002EF2D1EDE7002E1A
S214003230EFD142F82470ECE700ED00E00E29436879
S21400324016D8012210B48A4047F2E004224223F046
S2140032501F0306D041F01001194341605DF8044B8E
S214003260704740F61F742242F6D15DF8044B704753
S214003270704700BF70B4056A046A036A066ACE60C7
S214003280102AC1E900548B6007D1046A026A036AF7
S214003290006AC861C1E904428B6170BC704700BF18
S2140032A042EA032340F2011293425BD0B3F5817FDA
S2140032B014D340F2012293424BD030D9B3F5407F6D
S2140032C024D040F2013293423ED12B4BD3F87831D2
S2140032D01A0EC3F3074303600A607047012B2AD017
S2140032E00BD3B3F5807F2FD1234BD3F86C311A0E56
S2140032F0C3F3074303600A6070471F4BD3F86C3173
S214003300C3F30722DBB203600A6070471A4BD3F898
S21400331070311A0EC3F3074303600A607047B3F5B3
S214003320007F11D1144BD3F87031C3F30722DBB200
S21400333003600A607047104BD3F87431C3F307225A
S214003340DBB203600A6070470022134603600A601F
S2140033507047094BD3F87831C3F30722DBB203601A
S2140033600A607047044BD3F874311A0EC3F3074350
S21400337003600A60704700BFB081E00F094A136817
S214003380002BFCD1084B19685A68C1F30121C2F31F
S214003390014291421A688CBF42F0100222F01002DD
S2140033A01A607047C800C64300300E40044B1B69C5
S2140033B0C3F30443082B02D1024B034A1A6070473A
S2140033C000400E407C100020C0EA2101154B022868
S2140033D0D3F8803122D003281ED0012814BFDBB2D8
S2140033E0C3F307231B0323F4704241B992B90E4975
S2140033F0CA6E22F470421343CB66012070474AB966
S2140034000949D1F8E02022F470421343C1F8E030B5
S21400341001207047002070471B0EE3E7C3F3074305
S214003420E0E700BFB081E00F00300E4070B5274BDC
S214003430274C1978274B284D284AC1F10200102145
S2140034408140216145F60E01D3F88041C3F8801112
S214003450286840F25511014004F00104196613680B
S214003460002BFCD11A4B1B68D80617D5194AD2F880
S2140034704031D901FBD41A4E1A4B31781B681361C0
S214003480052916D01120FFF789FC2B68DB070CD521
S2140034901CB1104B0022C3F8802170BD104E31784D
S2140034A00529EFD12B68DB07F2D40A4B02221A66F5
S2140034B0EEE70D4B094A18681368002BFCD1044B45
S2140034C05968C1F30141FFF77BF9E8E7951700203B
S2140034D000300E4000400E4084170020C800C6434F
S2140034E08E170020901700207C1000200C4A08B58C
S2140034F00C4BD2F890201A601120FFF7B9F90A4B4E
S2140035000A4A18701368002BFCD1094B09485B68FF
S2140035100349094AC3F3014303700B69136008BDEE
S21400352000400E40841700208E170020C800C643B7
S21400353000300E40951700209017002010B5044666
S214003540B0B9FFF71BFF0E4A136943F0040313617B
S21400355030BF84B90B4B1B68DB0603D4BDE81040B4
S214003560FDF744BBFFF722FFBDE81040FDF73EBB6A
S214003570FFF7BCFFE5E7BDE81040FFF757BF00BF09
S21400358000ED00E000300E4010B5044618BBFFF713
S214003590F5FE144BD3F88021D20748BF002245F62B
S2140035A00E01C3F8801148BFC3F880210E4A136984
S2140035B043F00403136130BF84B90C4B1B68DB0671
S2140035C003D4BDE81040FDF711BBFFF7EFFEBDE8E2
S2140035D01040FDF70BBBFFF789FFD8E7BDE81040AA
S2140035E0FFF724BF00400E4000ED00E000300E4024
S2140035F0FFF77CBFFFF71ABF0A4B9A69996922F456
S214003600403242F4003241F440314AF6E8509860C5
S2140036109A6199619A6199619A6199619A619961D1
S2140036209A61704700300E401A4B2DE9F041D3F8EE
S214003630003104460E46FDF7B1FA174A07461368EE
S214003640002BFCD1DFF85480D8F80430C3F30143D4
S2140036509C420ED0C4F102031025022C05FA03F595
S2140036600FD0C8F810501EB10B4A1368002BFCD1BF
S2140036700CB1BDE8F08121463846BDE8F041FFF7C1
S2140036809FB821463846FFF79BF8C8F81050002E22
S214003690EFD0E9E700400E40C800C64300300E40B9
S2140036A010B5104B82B0D3F8004158B10E4B1B78C2
S2140036B013B10E4B98420ED9002002B0BDE8104060
S2140036C0FFF7B2BF0191FDF769FAC4F3042404FBC7
S2140036D000000199EAE7022002B0BDE81040FFF7BB
S2140036E0A3BF00BF00400E4094170020FF2C3101FE
S2140036F0034B02781A7001210020FFF7D1BF00BFEC
S21400370094170020064942780B6823F4407343EA76
S2140037100223022A0B6004BF024B5B6A704700BF9D
S21400372000300E4000400E401E4A936FDB07FCD46C
S214003730136C13F003031CD01B4A01218342116053
S2140037401CD0032B02D1431E012B18D9154A936FA8
S214003750D907FCD4136C134923F003030343136403
S2140037608B6FDB07FCD400300F4B18BF01201860AE
S21400377070470028E7D10C4B186070477047094A1D
S2140037804FF40023D362936FD907FCD4136C05491A
S21400379023F0030343F0010313644B6A1B03FCD5B9
S2140037A0D4E700BF00300E40B40AC6432DE9F04F00
S2140037B0A0F5E16489B00023B4F5966FCDE9023335
S2140037C0CDE90433CDE9063370D8514BB0F5E16F3F
S2140037D0D3F868318CBF4FF0010A4FF0000A69D168
S2140037E0C3F30724DBB2079404934FF4167B4FF41D
S2140037F09665DFF820910191D9F84C60C6F3017602
S214003800044605A902A8334690465246FFF748FDEF
S214003810D9F8E070C7F3012752463B4606A903A82D
S214003820FFF73EFD049A0799651B8B1A05FB03F309
S214003830B3FBFBF3D3182CBF01220022994235D3E9
S214003840002A33D1069903980A1A05FB02F2B2FB46
S214003850FBF210EB020A2CBF01220022514525D3B1
S21400386022BB0299059A501A05FB00F5B5FBFBFB37
S21400387011EB0B0B2CBF012100215A4516D3A9B919
S214003880B8F1000F0ED0D9F85C2022F4FE4222F0E8
S214003890020242EA0323B4F5E16F1E4A18BF43F062
S2140038A00203D365019B7BB9012000E0002009B02C
S2140038B0BDE8F08F1C0EC3F30743079404934FF440
S2140038C0966B4FF4E16594E730460021FFF77EFDE6
S2140038D00028EBD038460121FFF778FD0028E5D018
S2140038E00C4A536ED34538BFD34623F4FF73BBF15F
S2140038F0E70F23F0010328BF4FF0E70BB4F5E16FA5
S21400390018BF43F0010343EA4B035366CFE700BFFB
S214003910B081E00F00300E403A4B1A6FD96CC907E1
S21400392030B402F007020BD5012A57D9132852D912
S214003930143813288CBF4FF47F424FF4EE4207E052
S214003940D96CCD073BD4012A51D9DB6C6FF0FF024E
S2140039502C482D4DC36C2D4C23F47F431343C36476
S214003960C16C2B88C26CC1F303210131283301EBF3
S214003970810503EB5303B3FBF5F3013B072B22F062
S214003980EE6228BF072342F4801242EA0363B4F9CA
S2140039900020C364002A10DB036D4C08283204EBB9
S2140039A0410102EB520223F07004B2FBF1F3072B45
S2140039B028BF072344EA0313036530BC7047DB6C5B
S2140039C0DC0711D5012A0FD827288CBF4FF47F4279
S2140039D04FF4EE42BCE74FF44C52B9E7DA6CD1072D
S2140039E005D5DB6CDB07EFD46FF0FF02B0E70928E4
S2140039F0F1D90A3809288CBF4FF47F424FF4EE42C3
S214003A00A6E700BF00300E408A1700208C17002063
S214003A10C2884A2AF8B50446B0F90C7005D9B2F542
S214003A20FA7F53D24FF0805000E000203349344EE6
S214003A30CB6C344D23F0405323F00103002FA8BF76
S214003A4043F001030343CB64D1F8E030288843F405
S214003A504073C1F8E030CB6E43F08073CB663368BA
S214003A60002B3CD133680B6F23F007030B67FFF77F
S214003A7053FF254B2549A0882689B4F90C201A80C7
S214003A8028800E80FFF748FFA37B002B31D0012B48
S214003A9018D0012211466088FFF788FE054678B1E7
S214003AA0164A6078D36B43F48063D363FFF73CFE1B
S214003AB0A37A174AA3F12003B3FA83F35B091360D2
S214003AC02846F8BD0D4B134A9A65E2E740F6C31345
S214003AD09A428CBF4FF040504FF00050A6E7336834
S214003AE00B6F23F0070343F004030B67FFF714FF85
S214003AF0BFE7024B084A9A65CBE700BF00300E408E
S214003B008009C643881700208C1700208A170020DB
S214003B109407C643372110B777402057054A064B0F
S214003B2006491B68136F23F00703184310670888BD
S214003B30FFF7F2BE00300E408009C643881700200B
S214003B402DE9F043072A01F003019DF81C609DF85B
S214003B50205027D8DFF87090DFF87080DFF870E02C
S214003B60DFF870C094000F27A040A740C9F8007087
S214003B70C8F800000320A14000FA04F4CEF8004084
S214003B80CCF800100E490F4C11448900012000FAB1
S214003B9002F20B60C1F88060C4F82424C1F8005318
S214003BA0BDE8F083A2F10804A4000F27DFF82890F0
S214003BB0DFF82880DFF828E0DFF828C0D4E700BF69
S214003BC08020851000A0004000A4004400A4004609
S214003BD008A4004408A4004604A4004404A4004624
S214003BE00CA400440CA40046F0B444004AB12718C4
S214003BF0214D3F0101263D448E40A3B305F1C0652B
S214003C002E6025182D0105F18045072905F520456C
S214003C1019D88F006E684FF00F0C0CFA07FC26EAD6
S214003C200C0602FA07F73E436E6052B90444124A85
S214003C3024010120224400FA01F1C3B902F1806296
S214003C401160F0BC704701F18046083EAF68B600D0
S214003C504FF00F0C0CFA06FC27EA0C0702FA06F6E1
S214003C603E43AE60E1E705F180652E60C9E702F1EC
S214003C70C062F0BC116070470CA00040034B0344C8
S214003C809B0081F001011960704700BFA001F11090
S214003C9038B5044601211148FEF7A0FDB4F80130FE
S214003CA020780F4A0F495BBA9BB243EA00630020B4
S214003CB013604FF0004510624FF0FF33D062506340
S214003CC04FF40070D5669366C1F88001E3785B0117
S214003CD0DBB281F80933086038BD00BF00550A0022
S214003CE000200E4000E100E0F8B5CB7A8E7A0D7B1E
S214003CF0234F1B050C4643EA064300EB400607EB42
S214003D00061643EA4553C0B20125497B22F003025A
S214003D1085402068C6F88000C6F88810C6F884304B
S214003D20C6F89820BD66FFF70BFAFB6E227A2B4387
S214003D30FB6612B17B6B2B437B63637A1BB1104A25
S214003D40D36A2B43D3620E4B22791B6822B1D2432F
S214003D50120262F47F42134062790AB143EA0223F8
S214003D60A2790AB123EA0203E27902B11343044AB4
S214003D70044913600D60D563BDE8F840FFF7E4B969
S214003D8000200E4028200E4410B5C0B20124844006
S214003D90FFF7D6F9054A0649D36E23EA0403D3662D
S214003DA00C60BDE81040FFF7CFB900BF00200E4002
S214003DB020200E44F8B5C3B201259D400446FFF707
S214003DC0BFF90B4B04EB44041F6E9E6A03EB04140E
S214003DD0D4F88C40FFF7B8F9354206D1C4F30A1080
S214003DE008B93D4200D10130F8BD0020F8BD00BF43
S214003DF000200E408368DB06FCD5036CDA0702D48D
S214003E00436C5B06FCD48162704700BF054A064BD4
S214003E105168526841F671321A649A6822F00102BB
S214003E209A60704700300E4000000E40034B9A68C0
S214003E30002122F001029A601964704700000E40CB
S214003E40014B01229A60704700500E40144A154BF1
S214003E500021F0B408465568134F03F148060122C6
S214003E600FE0B2F5006F16D0B2F5803F13D02A42AD
S214003E7002D0294208BF10430833B3420ED053E99C
S214003E8002213C686407F2D4B2F5806F03D0E8D80C
S214003E90B2F5007FEBD141F48071E8E7F0BC7047E3
S214003EA000500E40A8450200E841E00F43794178F3
S214003EB00278F0B40479C7798678C5781B0343EA9C
S214003EC00423002943EA02030CBF0021042184795D
S214003ED0027A002E43EA074343EA01030CBF00219F
S214003EE01021002D43EA01030CBF00212021002CE5
S214003EF043EA01030CBF00214FF400410B430AB113
S214003F0043F40033014AF0BC1360704700200440BD
S214003F100B4A536911699B0003F03C03C1F38111FE
S214003F200B438370136903F03F0343709369D269B0
S214003F3003F0F003C2F3031213430370704700BF8D
S214003F40D0FF0FE0F8B5054616461C46E9B1202C12
S214003F5021D022D9402C16D0602C13D104222B68F5
S214003F60104F23F060032B6006FB02F62B687208E6
S214003F7002EB4112B2FBF6F2203A07EAC2021C43F9
S214003F802C606A61F8BD0622E9E70748FEF71CFDCB
S214003F90202C0146DDD10822E1E7002CF2D11022C8
S214003FA0DDE700BFF8FF7F0040410500CB435B0024
S214003FB003F00A03C360C160704700BF2C4A70B5A7
S214003FC0044600232B4840F6AA660D46944241F26A
S214003FD00501E66023606160A3606361E364A0643A
S214003FE023666367A367E3673FD002F58062944267
S214003FF037D002F58062944237D0A365AB7C1BB104
S214004000236843F080432360EB7C1BB12B7D43F099
S2140040108003A365697B2E8AE8892B7BAA683143D7
S2140040200143616020466968FFF78CFF6B7D1BB11A
S214004030236843F480332360AB7DEA7D297E2878AD
S2140040401B07120503F0E04302F4E0021343236665
S214004050636F23F030036367636F0B436367E0604F
S21400406070BD2365A365E365C8E700232365C4E741
S21400407000000140F9FF0100344A70B504460023F1
S214004080334840F6AA660D46944241F20501E660C2
S21400409023606160A3606361E364A0642366636772
S2140040A0A367E3674AD002F58062944242D002F5E5
S2140040B08062944242D0A3652A8AA87B2368297D21
S2140040C042F00102002843EA02030CBF00224FF42C
S2140040D0806213432360236809B143F00053AA7C2F
S2140040E023601AB1EB7C43F08003A3652B7BD5E9F4
S2140040F0010643F48053636018B36B7B0138760087
S214004100B0FBF6F0000260610BB11023E3606B7D3C
S2140041101BB1236843F480332360AB7DEA7D2978A6
S2140041201B07120503F0E04302F4E0021343236684
S214004130E16070BD2365A365E365BDE700232365E5
S214004140B9E70448FEF740FCD7E700BF000001408F
S214004150F9FF010040410500134A1449002330B41A
S214004160904240F6AA6541F20504C56003604460CB
S21400417083604361C3648164036643678367C36780
S2140041800FD002F58062904206D002F5806290421F
S21400419007D0836530BC7047036530BC8365C36554
S2140041A0704700230365F4E700000140F9FF0100B3
S2140041B003695A06FCD5416303699B06FCD5C069B2
S2140041C0C0B2704703695B06FCD54163704700BF09
S2140041D0084600F03ABE084600F039BE70470000B8
S2140041E003789A072DE93048044619D5826ABAB191
S2140041F06FF341030370536919684B1C03D0BDE885
S214004200304801F061BFD0E91A234FF0000B03F0ED
S214004210040C5BEA0C0305D1037843F00203037039
S214004220BDE830884FF4803101F0BBFBD4E91A2397
S21400423002EA000B03EA010C5BEA0C03F0D0044927
S2140042405A46A4F10C0009686346BDE830480847A2
S214004250881000202DE9F34BDDE90A67D0E91A89BA
S214004260044689EA070188EA060001EA030C00EA28
S214004270020B8CEA09018BEA0800C4E91A0122F055
S214004280010006EA0008002507EA0309194648F077
S214004290805249F00403CDE9005504F0A9F9204600
S2140042A0FFF79EFF284602B0BDE8F08B034A03687E
S2140042B0002B08BF1346024A13607047DD4100001A
S2140042C08810002031F00F0001BF054A136801F086
S2140042D00F0123F00F0306BF0B4313600120704746
S2140042E0541F0021032811D8DFE800F00E02070A49
S2140042F000221146012004F06BBC00220121F9E7E0
S214004300012211461046F6E70022FAE77047000041
S2140043100F4B5B68C3F30363013B0B2B0DD8DFE841
S21400432003F014140614140C14080A0808080320D2
S21400433070470420704705207047064BDB6813F073
S214004340060F14BF0420012070470220704700BFEC
S2140043500040084000500840044BD3F8883013F063
S214004360A00F0CBF01200020704700BF004008408F
S2140043707FB51546B0F848202B792968012B1BD14C
S2140043808A421ED8891A1A1C18BF01222C7B022CBE
S21400439019D00034AB6818BF0124AE7B003618BFB6
S2140043A0012602966D7BB5FA85F56D09CDE90045C7
S2140043B004F0C0FA04B070BD022BE3D11A46002107
S2140043C0E4E70021DFE70023E7E700000138C0B29A
S2140043D002289CBF0F4B53F820200F4B4FF0605124
S2140043E0196003F1007388BF00221A604FF40012B0
S2140043F01A600A4A136F23F0060343F00403136798
S214004400074B4FF0805119600423C2F88430002017
S214004410704700BFE84502001860084400000840E6
S214004420944008460E4B06221A600E4B0022C3F834
S21400443084200D4B4FF080521A60836913F0800F72
S21400444018BF0A490A4B4FF4001214BF0A601A60DC
S2140044504FF400121A604FF060521A600020704746
S214004460700008440000084094400844186008465D
S21400447018600844022310B1024A13607047024ACB
S214004480FBE700BF440008464400084470B51446E5
S214004490826982EA04030B4053400A0706460D462B
S2140044A0836106D514F0080F14BF374A374A08232D
S2140044B01360EB0706D514F0010F14BF324A334AD7
S2140044C00123136068070CD504F0F0FA14F0040F0B
S2140044D014BF2F4A2F4A4FF4007313602E4B04224A
S2140044E01A60A90703D5C4F34000FFF7C3FFEA0626
S2140044F006D514F0100F294B14BF00221B22DA64D5
S2140045002B061AD514F0800F4FF4001325D0244A3A
S2140045101360FEF70DFE234B5B68C3F30363032BA8
S21400452006D1214A136823F0F00343F0E00313603A
S2140045301A4B01225A62FEF7FFFD15F0600F1BD0E2
S21400454004F0600404EA05014029174B16D06029E0
S21400455006D0202915D101220AE0144A1360ECE7A0
S214004560F26A72B1116801290BD9526942F0010250
S2140045701A610C4B80229A60002070BD40F2011236
S214004580F6E70022F4E700BF44000846440008446B
S2140045901C6008461C600844884008440000084028
S2140045A01860084600400840541F00211860084460
S2140045B0014B1868704700BF9045002013B50123D3
S2140045C000240022CDE9003400231046194604F0EA
S2140045D00FF8022002F02CF9014B1C6002B010BD4F
S2140045E0B417002002292DE9F74380460E461546EB
S2140045F0994603D1FFF7E2FF002026E0154CFEF7B0
S21400460097FD226807460AB1AA4221D1124A2560C0
S2140046100123C2F800900022CDE9003300231046A3
S214004620194603F0E5FF0D4B00221A70B21A18BFA8
S21400463001224146022002F0D1F905463846FEF72F
S2140046407BFD002DD8D12560012003B0BDE8F083A6
S2140046500025F3E7B4170020B8170020B217002093
S214004660044BDB6D5B055ABF034B1878012000F046
S2140046700100704700500840B2170020022002F0E8
S214004680E7B80000014B986902F022BD00600840C0
S214004690C26A62B11368022B09D9536AC3F30720B2
S2140046A040B1126ADBB25343B3FBF0F070470C38EC
S2140046B000F09ABF7047000010B5054A4B780C789A
S2140046C010881B0643EA044303431360002010BD12
S2140046D0001F0021054803681A0C0B7812041343C8
S2140046E04A7843EA0223036000207047001F002137
S2140046F002F042BD0B4600F13801184601F036BF05
S21400470008B50346084693F8DC20032A05D003F1D3
S214004710380101F061FD002008BD0220FCE770B5FD
S21400472090F8DC30032B05460E4614D0A970816A3B
S21400473099B100F05FFF48B9A862284601F094F8E6
S2140047400146284600F074FF002070BD314628461A
S214004750FFF7D6FFF8E70220F7E70846F5E708B5C3
S214004760084601F029FD002008BD01F02FBD08B560
S21400477002F0A8FDBDE8084002F0AABD08B502F0A8
S21400478013FDBDE8084002F03BBD08B502F00CFD85
S214004790BDE8084002F06CBD2DE9F04115460E4616
S2140047A0804602F0C9FB044603F026F9B289B168D8
S2140047B077682F60230B002808BF0120A8EB0202B1
S2140047C0C3EB8343B3FBF0F3DB0992B299422A8230
S2140047D0696009D9B1FBF3F30133B1FBF3F3C81AEF
S2140047E002FB0070C5E900033F2A08D92868930930
S2140047F0890101FB030102F03F0229602A8203F0CF
S214004800EFF82B68984208D001232B7203F004F9C6
S21400481048B1064BEB60BDE8F08103F0E7F86B6843
S2140048209842F1D1F2E7024BF4E700BFC0CF6A002E
S214004830E067350070B51646026A012A86B004465F
S2140048400D4624D08DF80C30FFF762FD012803D00A
S2140048500121084600F0BEFE01AA31462846FFF7B1
S2140048609BFF9DF80C3053B1DDE9010103F07EF9A2
S21400487010B1022006B070BD049803F0C1F92046BE
S214004880FFF7AEFC01219DF8140003F099F9002013
S214004890F0E74FF4807104F05DBD00004FF48073C4
S2140048A010B9024A13607047014AFBE78840084681
S2140048B08840084437B50DF106020D4601F040FB6E
S2140048C0044688B185B12B7813F0F70F0CD0FEF7AD
S2140048D02FFC074BBDF806201C60064B1A80064BC3
S2140048E06A881A80FEF728FC204603B030BD00BF59
S2140048F0981700209C170020961700202DE9F341FA
S21400490006461446084619B9012002B0BDE8F081F3
S214004910002AF9D0022905D80022114601F010FB22
S2140049200028F1D0058882782F0402F0070800F1ED
S214004930868003794779A8F10700414241412173F7
S214004940C2F300116173C2F380112174C2F3C00177
S214004950C2F340126174A2740BB996F85A30013B48
S214004960E37402F05BFBC2B2002A62D0A8F106082C
S214004970B8F1010F5DD8334BDB6CAB1F9BB26946B9
S214004980012001F04FF99DF801009DF8003040002D
S214004990FA06C0B25DB21BD507F0EF07063F032F3D
S2140049A016D8DFE807F0020C253F15F14E0F0FDA98
S2140049B06FF04D035B1B03EB8303184407E015F110
S2140049C0480F05DA6FF047035B1B00EB4300C0B2ED
S2140049D0736B0BB129469847E073A573627CDDF8CC
S2140049E0021006F1380003F079FB206000208CE707
S2140049F003F10902D2B2072A05D86FF001035B1B48
S214004A0003EB4303E1E74433DBB23A2B01D8233010
S214004A10DDE715F1440FDBDA6FF044035B1BC3EBF5
S214004A20C303CAE7042DD3DCC5F1050300EB8300FE
S214004A30CDE700208023E3812060207265E7022016
S214004A4063E700BF0000084038B51446FFF720FEB5
S214004A50054603F027FB431C014608D000222846E3
S214004A6003F000FB2368181A2060002038BD0220DF
S214004A70FCE708461146B3FA83F2C2F11902002A8F
S214004A8010B50EDD062AA8BF0622D2B2931D012459
S214004A909C40A4B2A14228BF214601F041F820461E
S214004AA010BD0022F2E708461188B1FA81F1C1F183
S214004AB01901002910B50BDD0629A8BF0621C9B2C9
S214004AC08C1D0123A340138001F046F8002010BD82
S214004AD00021F5E7094B0121D3F8EC20996203F198
S214004AE08063243352074FF40051196041BF03F12D
S214004AF00073C83304221A60704700BF00100840D5
S214004B0073B505460E46144673B1FFF7E3FF00F093
S214004B106BFC48B10C4B02A91B6E41F8043D042205
S214004B2000232846FFF7ECFF002001F0A7F8844298
S214004B3028BF0446A4B222463146002001F01AF8E7
S214004B40204602B070BD00BF0060084038B54B7804
S214004B5005460C46C3B9FFF765FCA378C3B9114BED
S214004B6040F6FF725A62E378B3B90E4B40F6FF7216
S214004B705A6503F1C063A3F6BC7360221A600A4B41
S214004B8040221A60002038BD1846FFF71FFCE4E7F5
S214004B902846FFF79FFFE6E7044B60221A60044BA7
S214004BA0EEE700BF00100840884008444400084470
S214004BB08840084638B50C4BD3F8EC5003F18063B8
S214004BC0EC334FF480641C60084B0020186003F040
S214004BD0E7FF074B4FF400521A606A0542BF03F125
S214004BE0007398331C6038BD0010084098170020EA
S214004BF054100844082310B1024A13607047024A52
S214004C00FBE700BF8840084688400844F8B5254DB5
S214004C1000F1380604463046EF6802F09BF9EB6870
S214004C20E3622046FFF734FD03F058F81E4B1F4A98
S214004C301B682189C3F3812313701D4B1B68C3F3C4
S214004C40812353704FF6FF73994204D0194B1B68AB
S214004C500BB120469847E56ABD4215D0D5B1296804
S214004C6001B1A968A4F10C0000F05CFEA5B12A68A9
S214004C709AB12B699BB1D3E90012304603F0EDF9E7
S214004C8038B9304603F0E0F9237843F00203237086
S214004C900020F8BD2946E5E72A461146EDE71A4604
S214004CA0FBE700BFEC1F0021A00008409F17002074
S214004CB0A4000840A8170020F7B506460C46174D76
S214004CC039B90A46072104F033FBC5E9004403B0AE
S214004CD0F0BD134B07271F600B792B7002A84B798A
S214004CE040F8043D012104F03FFB019BC2B2D340D3
S214004CF000F00F0040EA03106870A379AB70E37908
S214004D00EB7023686B602379064A0133936139465A
S214004D103A46304604F00CFBD9E700BF4C1F002192
S214004D20040008440000084001F014BE4822002198
S214004D3001481FF0C8BA00BF041F00212DE9FF413B
S214004D4004460023436243730393A36323654FF033
S214004D5064134FF6FF72C4E91533E3658846214BAA
S214004D60A4F8D020002100F10C070020C4E91D01A2
S214004D70A28211201A80FDF77BFD042830D11A4B41
S214004D805E6816F440362BD1384603F0C9FE384626
S214004D90FFF7CCFF154B60225A6403A93846FFF78D
S214004DA0D5FE626A05464FF0FF313846FFF76EFBC8
S214004DB04FF080520423CDE900661046194603F0F2
S214004DC017FC4DB9204600F007FE0546B8F1000F67
S214004DD002D008B92046C047284604B0BDE8F08196
S214004DE00225F9E7B017002000300E40000008400A
S214004DF003F094B970B50C46054600F138060988EC
S214004E00483003F005F96188208005F1500003F072
S214004E10FFF8A188608005F14E0003F0F9F8E188FC
S214004E20A08005F14C0003F0F3F82189E0803046BD
S214004E3003F0FAF861892081304603F0FDF86081BE
S214004E40304603F001F9002070BD01F00FBF01F0FD
S214004E5079BF0000044A08B513681BB9034B1360FA
S214004E601B689847002008BDA41700209410002057
S214004E7038B50A4B1C78054634B1094B1B685BB144
S214004E809B689847002038BD01F064FD284401F077
S214004E90BBFE01F08BFCF5E70320F4E79E1700202D
S214004EA0A41700202DE9F041884616460746FEF76F
S214004EB03FF90546FFF72CFA0128044605D0284698
S214004EC0FEF73AF90320BDE8F0810D4B1F7097B14D
S214004ED00C4B1B68002BF2D05B68404698470A4B89
S214004EE04FF08042C3F8802106B130702846FEF7A6
S214004EF023F90020E7E701F067FC2046F4E700BF4F
S214004F009E170020A417002000E100E0054A416D2E
S214004F1011600278D20102F400624FF4006104F0DE
S214004F2007BA00BFEC1E0021024B18680C30FFF7D2
S214004F30EDBF00BFBC170020B0F8C4304FF6FF72BC
S214004F40934211D0094A0A49D26D100CC2F30112DD
S214004F50088001320749B3FBF2F3074A07480860A6
S214004F601B04136000207047032070470060084051
S214004F70B01700205C6008445C6008460000FFFF35
S214004F8070B504460E461546FFF7E6F9002878D0B9
S214004F9000224FF40061204604F0CAF9314620464C
S214004FA000F046FB064620B12046FFF7AFFF30462E
S214004FB070BD354B4FF440621A6015F0020204D102
S214004FC0324B33491B789B020B60324B4FF44061E7
S214004FD0196022B92D4B304A5B789B02136003F0B0
S214004FE065FD15F0040F14BF2C4A2D4A4FF480635C
S214004FF013602C4B042215F0400F1A6014BF2A4A87
S2140050002A4A4023136005F01803182B284B29D191
S21400501000225A612046FFF73CFC18B105F001005B
S214005020FFF73CFCAA0602D52046FFF785FF204680
S21400503000F074F908B32046FFF72BFCE8B14FF4F4
S2140050400011204604F086F900280CBF0321042135
S214005050002000F0F0FD431C0DD12046FFF756FF60
S2140050600326A4E7280701D50122D2E7E906CFD513
S21400507040F20112CDE70F4B5860002001F031F8E6
S21400508095E7022693E700BFA00008449F1700207C
S214005090A0000846A4000844A40008461C60084671
S2140050A01C600844884008448070084680700844A5
S2140050B0541F0021F01E002110B5FFF761FF0446C3
S2140050C008B903F017FC204610BD73B506461D460A
S2140050D0FFF756FF044688B995E803006A4682E85B
S2140050E003009DF80430B6F84E10012B034607D196
S2140050F0884205D20094104603F09CFC02B070BDB6
S2140051005B1A0093F7E70000094A13884FF6FF7111
S2140051108B4210B509D00748074C046000F10070B8
S2140051201B0403601180002010BD0320FCE700BFB5
S214005130B01700205C6008440000FFFF000000007D
S2140051402DE9F34781468A4667A1D1E90001564B0F
S21400515017461E6800EA090201EA0A03134363D0F1
S21400516009F40020002150EA0102504B18BF504AB3
S214005170D3F81C3118BF136009F48010002150EAE0
S21400518001021CBF4B4A136009F0805200231343F0
S21400519009D0494B1B6803F07F43B3F1007F02BF81
S2140051A0464B02221A6009F00102002313432BD05B
S2140051B04FF000080022002300210120CDE90088DE
S2140051C003F016FA012001F0A5FF41467082012087
S2140051D000F000FA736A13F0800F14BF384A394A99
S2140051E04FF400131360384B1A683AB137496FF022
S2140051F0FF00086001F1007102400A6000221A6098
S214005200337B43F00803337300220AF0040313438E
S2140052100AD0012106F10C0000F0C3FB2AF00405B9
S21400522049EA000945EA010AD6E91D2309EA02000F
S2140052300AEA03010C4603462343804689461ED0ED
S214005240234B0246196830464B468847184A4FF0AB
S214005250FF331360174A136008F008020023134355
S2140052601EBF1C4B00221A601B4A002344464D46B4
S21400527014401D4054EA050301D0FFF745FFFB0725
S2140052800DD51649164A0868136800211160154A9C
S214005290012111701BB102B0BDE8F047184702B0FB
S2140052A0BDE8F087AFF30080BC1700200050084030
S2140052B0901000208C100020001F0021004008469F
S2140052C01860084618600844AC1700201870084498
S2140052D088100020981700200000F817B817002044
S2140052E0B4170020B21700200100181004000000B8
S2140052F0014B5B68704700BFB081E00F024B4FF474
S21400530000221A60704700BF88400844024BD3F85A
S2140053108800C0F3C040704700400840802104F079
S21400532019B8000010B50849044600F069FA0123D0
S21400533084F83C30282304F13800A4F8463002F004
S21400534089FE002010BD00BFC84C020010B50849F9
S214005350044600F055FA012384F83C30282304F173
S2140053603800A4F8463002F075FE002010BD00BFDD
S2140053705C4A0200012310B5044680F83C3003293D
S21400538013D8DFE801F0101002020949204600F0A9
S21400539037FA4FF4BC7304F13800A4F8463002F034
S2140053A059FE002010BD0349F0E70320FAE700BFCE
S2140053B03848020014460200054B4FF4F0621A60AB
S2140053C003F100734FF400721A60012001F0F0BC84
S2140053D04400084410B50446FFF7B8FF2046BDE871
S2140053E01040FFF7E9BF0000007810F001001EBF74
S2140053F0024BD3F83001C0F3C0307047006008405D
S2140054000D4A1166D36D552823F00F030CBF43F0E9
S214005410010343F00203D36591FAA1F390FAA0F1D9
S214005420090B01F4702141EA1341044B044A1A6047
S21400543003F100731960704700600840FC60084480
S214005440FFFF0F00134BD862196303F180633433F8
S2140054500721196003F100738AB1012119600E4B10
S214005460D3F8303113F4004F4FF4804300D142B9E3
S2140054700A490B6042B14FF48043094A05E01A60BE
S214005480EDE7084A1360F6E7074A13605360936037
S214005490704700BF0000084000600840A0000846B3
S2140054A0A4000844A0000844A40008460220704750
S2140054B0002070470120704700207047034B186893
S2140054C0034B002808BF1846704700BFC0170020CF
S2140054D0205002000020704738B5064B04460D46A3
S2140054E0186000F067F829462046BDE8384000F00E
S2140054F058B800BFBC17002001207047034B012995
S214005500197001D1FFF7A6BC00207047C417002011
S214005510FFF7AEBC044B1B78013B0A4601465842D7
S2140055205841FFF7BFBC00BFC4170020084611460D
S21400553000F050B8704708461146FFF759BC70B5E2
S21400554006460D4611461A46FFF7B8FF046833466E
S2140055502846A446BDE87040604710B5FFF7AEFF8A
S214005560BDE81040836818470C30FFF7A5BD0C3027
S214005570FFF7ABBD0C3000F0D8B908B5FFF7F7F869
S214005580002008BD0C3000F0B7B97047431E012B51
S21400559003D9031F5842584170470120704700F056
S2140055A09FBD10B50446FFF7C9FB00280CBF204678
S2140055B0002010BD10B50446FEF778FE034AE36BE4
S2140055C0002B08BF1346024A136010BD8B5500001F
S2140055D0A410002010B50C46FEF784FE1CB1FEF7A2
S2140055E097FE0128FBD110BD0C30FFF74BB80C30EE
S2140055F0FFF700BC73B50D4B0E4669461D680446A2
S214005600FFF7ADF8B6F9122047F6FF739A420BD0B3
S2140056109DF80010A478284602F04CFEA04234BF45
S2140056200020012002B070BD0120FBE7BC1700205F
S2140056302DE9F04F6F4E704F8BB004468846FFF74B
S21400564057FE336802933B6804930025A3888DF8C1
S2140056501E5001938DF81F50FFF758FE039610B1A9
S2140056603D60FFF74BFED4E909963A68B24203D193
S21400567012B1019B98454DD0B9F1000F00F0B680ED
S214005680D9F80820002A00F0B180D9F80C20002AAA
S21400569000F0AC804FF0000A18224FF0010BD9F84A
S2140056A00C10514515D9D9F8085002FB0A55E9895E
S2140056B0414532D8298A41452FD3294620460592AE
S2140056C08DF81FB0FFF796FF059A28B38DF81EB029
S2140056D02E4608A92046FFF742F82046FFF745F871
S2140056E09DF81E20A4F10C0B8246CAB1A178204674
S2140056F0FFF706F8039B1A68002A5CD04A4530D1AB
S214005700396871B3B1422CD1019B984515D1A66278
S214005710A4F8048000254AE02E460AF1010ABEE7F6
S2140057209DF81F20002A63D09DF82010B6F912209D
S214005730584602F0BFFD0146D9E7002332464146EF
S2140057402046FFF777F805460028E0D05146204669
S214005750FEF7D6FF00233A6801992046FFF76AF85D
S21400576025E0116839B3D9F80000884223D1516882
S2140057702046FFF74BFA054600BB31682046FFF788
S21400578045FA0546D0B9039BA662C3F80090A4F874
S214005790048001233246414620463E60FFF74AF821
S2140057A0054658B9154B31461B6858469847284653
S2140057B00BB0BDE8F08FD9F80010D9E7039B1A4666
S2140057C0029B1360049B3B60029B1BB1196820463A
S2140057D0FFF71CFA51462046FEF792FF3B68002B67
S2140057E0E5D019682046FFF711FAB3E70325DEE790
S2140057F00125DCE7C8170020CC170020A4100020E5
S214005800F8B50D460646084600F06EFC2F1C18BF7D
S214005810012738461F21002400F01AF938461F21B8
S2140058207562B46200F014F9E86823464FF6FF711B
S2140058301827DAB2824209D30C460A4B00222146C8
S21400584030461A60FFF7F4FE2046F8BDAC6807FB4A
S2140058500242D4898C4202D2002CEED0214601337B
S214005860E7E700BFC81700208088704738B50A7879
S214005870054610460C46FFF789FE88B1497808466B
S214005880FFF784FE60B10A43520709D4FEF740FDD5
S214005890430707D421462846BDE83840FEF70CBF2C
S2140058A0012038BD0220FCE70C30FFF7DFBF38B51B
S2140058B0054608780C46FFF769FE80B14A78104620
S2140058C0FFF764FE58B1042A09D0FEF721FD8307CE
