S02F00005374616E64416C6F6E65626F6F746C6F616465722D62676170692D4D4731332D636F6D62696E65642E733337EE
S3150FE100000F4880F308880F4800470000C105E10F4C
S3150FE10010C105E10FC105E10FC105E10FC105E10F12
S3150FE10020C105E10FC105E10FDC05E10FC105E10FE7
S3150FE10030C105E10FC105E10FC105E10FC105E10FF2
S3150FE10040004000207505E10F10B5054C237833B953
S3150FE10050044B13B10448AFF300800123237010BDA5
S3150FE100601001002000000000F005E10F08B5034B79
S3150FE100701BB103490348AFF3008008BD0000000040
S3150FE1008014010020F005E10F044B054A9A60D3F8FD
S3150FE10090882042F47002C3F88820704700ED00E033
S3150FE100A00000E10F094A0A4BD969C90705D512B90B
S3150FE100B06FF002007047013AF6E7002AF8D0012205
S3150FE100C01861DA60D86940F380007047809698002E
S3150FE100D000000E4070B509B9002070BDC2B9244BBE
S3150FE100E0082550F822409C61224CDD600132DE6921
S3150FE100F0F60705D514B96FF00200EEE7013CF6E716
S3150FE10100002CF8D0DC69A60720D49142E9D1E3E7C8
S3150FE10110EFF3108572B6164B00221026DC69240721
S3150FE1012017D550F822409C6101329142DE60F5D13C
S3150FE1013005B962B60E4A0F4B1146D069C40711D500
S3150FE1014073B96FF00200CB699B07C6D56FF001005B
S3150FE10150C3E7DC6904F01904102C08BFDC60DDE7A6
S3150FE10160013BEAE7002B0CBF6FF002000020EAE744
S3150FE1017000000E40809698002DE9F84399461B4BF7
S3150FE101801C6CA4B280460F4664BB1949486849689E
S3150FE10190996841F0010199609608B44207D30020AE
S3150FE101A0124A936823F001039360BDE8F88308EBE5
S3150FE101B084052846FFF776FF0028F6D1C5F30A0531
S3150FE101C0C5F50065AD08331B9D4228BF1D464A465E
S3150FE101D029463846FFF77EFF0028E1D12C4407EB8D
S3150FE101E08507DAE76FF00100DFE700BF00000E4099
S3150FE101F000300E40184B1A6C92B21ABB174A51686F
S3150FE1020052689A6842F001029A6001221861DA6037
S3150FE10210DA69520706D59A6822F001029A604FF021
S3150FE10220FF30704702220E49DA601A46D869C007D5
S3150FE1023000D551B9D069936810F0020023F001039C
S3150FE10240936004D06FF0010070470139EEE711B901
S3150FE102506FF002007047704700000E4000300E400D
S3150FE10260809698000023FFF787BF000008B5094B7A
S3150FE102701A68094B1A60094B40221A615A685203F0
S3150FE10280FCD400F077F80028FBD040F2022000F012
S3150FE10290ABF800BF040100200001002000300E4042
S3150FE102A010B50F4C0F4BA36000F0BEF80E4B5B6819
S3150FE102B0B3F5803F09D040F20923984202D0B0F559
S3150FE102C0007F02D100F014F848B9084BA3601A6811
S3150FE102D082F3088882F309885B689847FEE710BDC9
S3150FE102E000ED00E00000E10F00500E400008E10FC5
S3150FE102F0F8B51C4B1A681069D568836AAB4201D20F
S3150FE103000020F8BD05F560529A42F9D95B1BC61874
S3150FE10310C758154B9F42F3D14FF0FF32F16800F00A
S3150FE103200DF9124B98420446EAD1114B1B68A3F122
S3150FE103307E62A2F58432B2F5605F10D21A68BA42D4
S3150FE103400DD1B1689A68914209D84FF0FF32D96859
S3150FE10350284600F0F3F8001B18BF0120D1E7012072
S3150FE10360CFE700BF2800E10F07B0CD5EE320BBDE8C
S3150FE103702808E10FF8B5184B1B68D3E90347BB6AA9
S3150FE103801B1BFD182646EA68A318B3421CD839464B
S3150FE10390204600F09BF8B0B1104B1B68A3F17E62CB
S3150FE103A0A2F58432B2F5605F14D219680C4A914214
S3150FE103B010D1D9684FF0FF32204600F0BFF8094B54
S3150FE103C0C31A58425841F8BD304600F074F806F5A5
S3150FE103D00066D8E70020F6E72800E10F2808E10FCD
S3150FE103E007B0CD5EE320BBDE4FF000534FF20F02B5
S3150FE103F05A800A4A1880136823F4E06343F4806352
S3150FE104001360BFF34F8F0649064BCA6802F4E062E9
S3150FE104101343CB60BFF34F8F00BFFDE700500E4094
S3150FE1042000ED00E00400FA054FF000534FF20F0123
S3150FE104305A888A4201D1188870473AB91B88012B2D
S3150FE1044040F2022018BF4FF4007070474FF400706E
S3150FE1045070470000044B41F671321A649A6822F034
S3150FE1046001029A60704700BF00000E40034B9A6885
S3150FE1047022F001029A6000221A64704700000E40D2
S3150FE1048007B503469B0753BF6FEA01414FF6FF736B
S3150FE1049043EA01416FEA1141019120F00300FFF7B1
S3150FE104A0D9FF04220DEB0201FFF7DCFEFFF7DEFFBA
S3150FE104B003B05DF804FB08B5FFF7CCFFFFF79AFE33
S3150FE104C0FFF7D4FFB0FA80F0400908BDF8B540EA6E
S3150FE104D002031446DA0705460E4601D50020F8BD9C
S3150FE104E00CB90120FBE7830725D50988FFF7C8FF7C
S3150FE104F00028F3D1023C032C05F1020506F10206B1
S3150FE105000FD924F00307FFF7A5FF3A4631462846F0
S3150FE10510FFF7A8FEFFF7AAFF0028DFD13E443D44CF
S3150FE10520E41B002CDDD031882846FFF7A9FFB0FA8E
S3150FE1053080F04009D3E7032CE3D8F4E710B50B4C71
S3150FE10540D4F8B03043F04003C4F8B030084B01247F
S3150FE105501C6001449A605C601A46884201D1D869F1
S3150FE1056010BD10F8014B9461F7E700BF00400E4054
S3150FE1057000C001400B4880470B4880470B490C4AA6
S3150FE105800C4B9A42BEBF51F8040B42F8040BF8E745
S3150FE1059009490A4A00209142BCBF41F8040BFAE728
S3150FE105A0FFF764FE8900E10FA102E10FF405E10F08
S3150FE105B00001002010010020100100202C01002075
S3150FE105C0FEE700BFF8B500BFF8BC08BC9E46704712
S3150FE105D0F8B500BFF8BC08BC9E467047AD1007B032
S3150FE105E001000000000007010008E10F0080000094
S3150FE105F000000000C0EA2101C0EA21016D00E10F10
S3090FE106004900E10FC7
S3150FE10800007C0020E10AE10FDF0AE10F310BE10F76
S3150FE10810DF0AE10FDF0AE10FDF0AE10FDF0AE10F7E
S3150FE10820DF0AE10FDF0AE10F5432E10FDF0AE10FD1
S3150FE10830DF0AE10FDF0AE10FDF0AE10FDF0AE10F5E
S3150FE1084010B5054C237833B9044B13B10448AFF314
S3150FE1085000800123237010BD240100200000000059
S3150FE108601434E10F08B5034B1BB103490348AFF34A
S3150FE10870008008BD00000000280100201434E10FBC
S3150FE108800D4AD2F8943003F00703032B11D0042B52
S3150FE1089003D0022B0BD1094B00E0094B1868D2F8B4
S3150FE108A00031C3F304230133B0FBF3F07047054B7B
S3150FE108B0F4E74FF40040F2E700400E40000100205C
S3150FE108C00801002004010020044B054A9A60D3F881
S3150FE108D0882042F47002C3F88820704700ED00E0EB
S3150FE108E00008E10F017901220431033001F01ABD4D
S3150FE108F001F072BC00B5A3B002F0FDFBB0F5027FCB
S3150FE1090016D188220021684602F088FCA0238DF8D3
S3150FE10910033002238DF8043001238DF806300323CB
S3150FE109208DF8073068460B238DF80830FFF7DAFFAD
S3150FE1093088220021684602F071FCA0238DF803306E
S3150FE1094004238DF80430054B1B6868469B68CDF888
S3150FE109500730FFF7C7FF23B05DF804FB2808E10F67
S3150FE1096070B5ADF5267D8822002160A802F056FC10
S3150FE1097002238DF88431584B0FCB202404AD85E843
S3150FE109800F00242200210DEB04008DF8834102F0C4
S3150FE1099045FC234623AA11A982A801F095FE00245E
S3150FE109A0882200213EA802F039FC4FF47A7601F055
S3150FE109B0EFFC0028FBD001231946009603AA0DF19F
S3150FE109C0FB0001F009FD9DF8FB30202BEFD1012350
S3150FE109D0009603AA03213FA801F0FEFC039B032B1C
S3150FE109E0DED19DF8FC6076B140F6B833009303AAE9
S3150FE109F0012331460DF1FF0001F0EEFC039B9E4210
S3150FE10A00CED10028CCD19DF8FD30002BC8D19DF871
S3150FE10A10FE30032BC4D8DFE803F04C020D2501238A
S3150FE10A208DF886318DF887418DF8884160A8FFF7FB
S3150FE10A3059FFB5E79DF8FF30009540AA08A982A8AE
S3150FE10A4001F07CFE02238DF886310028EAD041F2CF
S3150FE10A5007039842E6D003238DF887310B238DF8F0
S3150FE10A608831E3E703238DF886319DF82230CBB148
S3150FE10A709DF82330B3B18DF887418DF8884160A891
S3150FE10A80FFF730FF9DF82230002B89D09DF82330F8
S3150FE10A90002B85D09DF82030002B81D040F2092024
S3150FE10AA002F0F4FA03238DF887310B238DF88831A1
S3150FE10AB0E5E79DF822302BB19DF8233013B940F2CB
S3150FE10AC00320EDE79DF8FF30012B0CBF40F202202A
S3150FE10AD040F20120E4E700BF4432E10F7047FEE741
S3150FE10AE008B5FFF7F1FE00F05BF80A4A0A4B0B492E
S3150FE10AF08B4206D30A4B0B4A0021934206D300F0F1
S3150FE10B001DF852F8040F43F8040BF1E743F8041B01
S3150FE10B10F3E700BF1434E10F0001002024010020A8
S3150FE10B2024010020CC0300200020704700207047ED
S3150FE10B3008B54FF4017002F0A9FA0000174B012234
S3150FE10B4010B55A641A6842F480721A6003F540537D
S3150FE10B5040221A615A685203FCD4FFF7E5FF02F00F
S3150FE10B608FFAFFF7C5FEFFF7C5FE18B14FF4017017
S3150FE10B7002F08CFAFFF7F4FE0446FFF7AFFF1CB164
S3150FE10B8040F203739C4202D140F20120F0E7A4F256
S3150FE10B900574012CEAD840F20320E9E700000E4084
S3150FE10BA008B51A4B5B685B050ED400F02BFF80F09E
S3150FE10BB00100C0B204231B68013314D14FF4027054
S3150FE10BC0BDE8084002F055BA02F080FAA0F2022021
S3150FE10BD080B20728E9D8012303FA00F010F0C90F14
S3150FE10BE0E3D00020E6E780B1002002F0B5F9002856
S3150FE10BF0E4D0074A002393601846016881F3088819
S3150FE10C0081F3098840688746FEE708BD00500E402C
S3150FE10C1000ED00E00020704710B50B4CD4F8B03072
S3150FE10C2043F04003C4F8B030084B01241C60014483
S3150FE10C309A605C601A46884201D1D86910BD10F8F6
S3150FE10C40014B9461F7E700BF00400E4000C0014041
S3150FE10C50F8B504461D4616460F4600F07FFFDDE95F
S3150FE10C600612204600F080FF0023636284F8387095
S3150FE10C703268C4F839207268C4F83D202B0CB2688B
S3150FE10C8084F845302B0AC4F8412084F8463084F8BD
S3150FE10C904750F8BD30B585B01D4600F12803CDE9C3
S3150FE10CA00112009300F1240200F13803294600F006
S3150FE10CB079FF05B030BD0000F0B50F46A3B016467B
S3150FE10CC0044640B339B332B30121144800F0C6FCF0
S3150FE10CD04022002102A802F0A1FA01F071FA0146C1
S3150FE10CE002A800F011FB01F06FFA12AD01460AA856
S3150FE10CF000F00AFB3946284600F006FB31461AA8F2
S3150FE10D0000F002FB009502AB20222146044800F0D9
S3150FE10D100BFB23B0F0BD40F20160FAE700050A00D4
S3150FE10D2000000F4010B5044601F0F2F9204600210C
S3150FE10D30BDE8104001F017BA01F01FBA014601F004
S3150FE10D401EBA1C2350F8042F0AB9043BFAD1002B23
S3150FE10D50CCBF00200120704730B5056804680268F2
S3150FE10D600368C1E90054C1E9022305680468026812
S3150FE10D700368C1E90454C1E9062330BDD1E9022371
S3150FE10D8030B5D1E900540560046002600360D1E932
S3150FE10D900454D1E90623056004600260036030BDA7
S3150FE10DA02DE9F04104461D460E46904600211C22D0
S3150FE10DB0181D02F033FA01232B6000F08DFC41463A
S3150FE10DC0074604F58070FFF7D9FF314604F58270C7
S3150FE10DD004F58476FFF7D2FF29463046FFF7CEFFBB
S3150FE10DE0384600F07DFC0D4F0D4B0E4A0E490F486C
S3150FE10DF023656369DB010BD500F06EFC29460446DA
S3150FE10E003046FFF7A9FF2046BDE8F04100F068BC88
S3150FE10E1022656165A065E765EBE700BF393801003B
S3150FE10E2039398401D02484FC1C82FED88B1C81A025
S3150FE10E302DE9F04F8DB0044698460F46154600F062
S3150FE10E404BFC04F5827607F14002114604F5867BE9
S3150FE10E50814630460392FFF791FF29465846FFF741
S3150FE10E608DFF04F58873184605F120010293FFF70C
S3150FE10E7085FF484600F034FC4249216542496165E8
S3150FE10E8001254249A165E56500F026FC04F5847963
S3150FE10E9007F1200A019039463046FFF76FFF5146B9
S3150FE10EA04846FFF76BFF039A029B11461846FFF779
S3150FE10EB065FF019800F014FC354B2365354B6365EF
S3150FE10EC0A56500F009FC04F58073019008F1400176
S3150FE10ED018460293FFF740FF04A94846FFF73CFF88
S3150FE10EE0019A104600F0FCFB00F0F6FB3946019043
S3150FE10EF05846FFF743FF019A104600F0F1FB264AE9
S3150FE10F002265264A62656FF42673A2F5FE221A441C
S3150FE10F10A265E56500F0E0FB514607463046FFF76F
S3150FE10F202DFF384600F0DCFB1D4A22651D4A62653E
S3150FE10F30A56500F0D1FB414607464846FFF70CFF92
S3150FE10F40384600F0CDFB00F0C7FB04A90746304653
S3150FE10F50FFF714FF384600F0C3FB134A2265134A25
S3150FE10F606265A56500F0B8FB029B044608F1200116
S3150FE10F701846FFF7F1FE204600F0B2FB0DB0BDE8D3
S3150FE10F80F08F00BF8AD11C81D91C83D11C81E11C52
S3150FE10F90D01482CB1481E11C8CE11C811C84D91CF9
S3150FE10FA0E014D8141482E11C84D31482D11CE0140A
S3150FE10FB02DE9F041044690B00F46244E05219046A7
S3150FE10FC000F091FB00232360236363630FCE08AD2B
S3150FE10FD00FC596E80F0085E80F0008AA6B4607F1E3
S3150FE10FE040012046FFF7DCFE00F076FB04F586753F
S3150FE10FF00646694604F58270FFF7C0FE3946284674
S3150FE11000FFF7BCFE07F1200104F58870FFF7B6FE86
S3150FE11010304600F065FB0E4B23650E4B63650E4BB9
S3150FE11020A3650123E36500F057FB08F120010646AE
S3150FE1103004F58070FFF790FE41462846FFF78CFED8
S3150FE11040304600F04DFB10B0BDE8F0819432E10F70
S3150FE110508AD11C81D91C83D11C81E11C2DE9F04F6A
S3150FE11060A5B01D460446CDE9001205A81C220021B4
S3150FE1107002F0D4F84FF0010820220021284605F1AD
S3150FE110802007CDF8108005F1400A02F0C7F82022BB
S3150FE110900021384602F0C2F820220021504602F024
S3150FE110A0BDF80521204600F01EFB00232360FF2635
S3150FE110B0236363637211019806F01F0350F8222030
S3150FE110C008FA03F3134206F1FF3102D10E46002966
S3150FE110D0F0D100F001FB04F58273394680461846DC
S3150FE110E00293FFF74BFE404600F0FAFA7A4B7B4A42
S3150FE110F0236562657A4AA26500F0EEFA04F5807916
S3150FE1110014A980464846FFF727FE404600F0E8FA65
S3150FE1111000F0E2FA294680464846FFF72FFE4046A1
S3150FE1112000F0DEFA6F4A704B22654FF48672636503
S3150FE11130A26500F0D1FA04F5867883460CA94046FC
S3150FE11140FFF70AFE1CA94846FFF706FE584600F0D0
S3150FE11150C7FA00F0C1FA029B03935146834618463C
S3150FE11160FFF70CFE584600F0BBFA604B23650123EF
S3150FE11170636500F0B1FA04F5847B2946029058467F
S3150FE11180FFF7FCFD029A104600F0AAFA584A2265CB
S3150FE1119002F1D94202F5DE1202F595626265A2F518
S3150FE111A086120123A2F2BA42A265E36500F094FA30
S3150FE111B01CA902905846FFF7E1FD0CA94046FFF73F
S3150FE111C0DDFD029A104600F08BFA4A4A22654A4A39
S3150FE111D062654A4AA26500F07FFA2946029004F554
S3150FE111E08870FFF7B9FD029A104600F079FA00F020
S3150FE111F073FA039B029039461846FFF7BFFD58462F
S3150FE112005146FFF7BBFD14A94046FFF7B7FD029A1A
S3150FE11210104600F065FA3A4B23653A4B636500F0E9
S3150FE112205BFA514683464846FFF796FD39464046F7
S3150FE11230FFF792FD584600F053FA012106F01F031E
S3150FE1124001FA03F37211019951F82220134217D0D3
S3150FE112502B687BB92846FFF774FD58B12B6A4BB95A
S3150FE112603846FFF76EFD28B12B6C1BB95046FFF7D9
S3150FE1127068FD60B92B46009A29462046FFF7D8FD4F
S3150FE1128016F1FF36BFF425AF25B0BDE8F08F009B11
S3150FE11290AC4603F1200E18685968624603C208335B
S3150FE112A073459446F7D1BC4603F1200E1868596889
S3150FE112B0624603C2083373459446F7D10DF1100E1A
S3150FE112C0BEE80F0005F1400CACE80F009EE80F00F9
S3150FE112D08CE80F00D4E700BF8AD11C81821CC00CB9
S3150FE112E00C0C0100C00C0C83D91C83D88AD11C834A
S3150FE112F0DA0C81148CE11CD01484E31482D11C0125
S3150FE11300D81483D11CC00C0110B520220C46002144
S3150FE1131001F084FF04F12002013812F8013D00F8D3
S3150FE11320013FA242F9D110BD2DE9F04FBDB0044600
S3150FE1133016460093469D8A46002900F00781002B49
S3150FE1134000F00481002D00F00181002A40F3FE80B8
S3150FE113504FF00009C0F80090C0F83090C0F8349013
S3150FE11360436843F0100343600C2100F0BCF9636856
S3150FE11370DFF8F8C123F4406343F400636360636805
S3150FE1138023F4407343F400736360BCE80F002CAFA2
S3150FE113900FC79CE80F0087E80F0000F09DF904F5F1
S3150FE113A0847883462946404604F58677FFF7E6FCBF
S3150FE113B02CA93846FFF7E2FC584600F091F9654A49
S3150FE113C02265012363656169C90104D440F20260B4
S3150FE113D03DB0BDE8F08FCDE9022300F07DF905F1CF
S3150FE113E0200B019059464046FFF7C8FC2CA9384619
S3150FE113F0FFF7C4FC019800F073F9039B029A22658B
S3150FE1140063656369DB01E1D5202EA8BF2026202283
S3150FE11410494634A801F002FF701ED44620F00303BB
S3150FE114203CA940330B441CF8012B00F00301C90022
S3150FE114308A4053F8601C0A4343F8602CACEB0A036D
S3150FE114409E4200F1FF30E9DC00F046F934A9064689
S3150FE114504046FFF793FC304600F042F93E4B2365D9
S3150FE1146000F03AF904F58076814634A93046FFF764
S3150FE1147073FC484600F034F92CAA04AB59462046D2
S3150FE11480FFF78EFC00F028F904F58879824604A966
S3150FE1149004F58270FFF772FC34A94846FFF76EFC3C
S3150FE114A029463846FFF76AFC504600F019F92B4BEF
S3150FE114B0236503F1FA43A3F50063636500F00CF9C5
S3150FE114C034A982464846FFF747FC04A93046FFF7A1
S3150FE114D043FC504600F004F90CAB34AA20492046F0
S3150FE114E0FFF7BCFD24AB04AA00992046FFF7B6FD32
S3150FE114F00CAA11462046FFF75BFD24AB19460CAA51
S3150FE115002046FFF795FC24AA11462046FFF750FD2A
S3150FE1151000F0E2F80C210646204600F0E4F824A993
S3150FE115204046FFF72BFC29463846FFF727FC3046A6
S3150FE1153000F0D6F80B4B23650B4B6365636913F02C
S3150FE11540807F40F2046018BF002041E740F201605E
S3150FE115503EE700BF3035DA1030D00C0130E11C84A4
S3150FE11560D432E10F3035DA1439380100B432E10FF4
S3150FE115701FB5124B1A6842F480121A60D3F8C020D5
S3150FE1158042F00102C3F8C020FFF77AF94FF47A234C
S3150FE11590B0FBF3F00A4B0D2218600021684601F00B
S3150FE115A03DFE01238DF8003069460A2305488DF883
S3150FE115B0023000F0D4F905B05DF804FB00400E40AF
S3150FE115C044010020008001400C4A0D4B10B5546ACE
S3150FE115D01B68A4B213FB00400A4B80B21880A042ED
S3150FE115E0094B2CBF002401241C70134611B15A6A12
S3150FE115F08242FCD101225A619A6110BD00800140FD
S3150FE116004401002040010020420100200A4B1A78D4
S3150FE116100A4B22B1D86810F0010003D17047DA689E
S3150FE11620D20707D4586A064B1B88984234BF00206D
S3150FE1163001207047012070474201002000800140E0
S3150FE1164040010020044BD3F84421D20703D4D3F849
S3150FE1165040211042FBD1704700400E40C0F30322F8
S3150FE11660013A38B50546092A13D8DFE802F0231304
S3150FE116701212051619121C20104C0020C5F3043561
S3150FE1168008B1FFF7DFFF04F1047405EBC404A4000E
S3150FE11690216038BD00200A4CF0E70120094CEDE747
S3150FE116A01020094CEAE74FF48030084CE6E70020BA
S3150FE116B0074CE3E70020074CE0E700BFB0400E40E0
S3150FE116C0C0400E40E0400E40E8400E40F0400E4074
S3150FE116D050410E4000400E40EFF3108072B6704756
S3150FE116E000B962B670470E2910B543680DD80122CD
S3150FE116F08A4047F2E004224223F01F0306D140F667
S3150FE117001F74224201D01943416010BD41F010010F
S3150FE11710F9E70000F0B54AB130261E4C01254643E4
S3150FE117208D4034440BB304F1C06425603024444347
S3150FE1173004F18044072904F5204419D865688E0021
S3150FE117400F27B74025EA070502FA06F63543656026
S3150FE1175052B9012202FA01F1302250430D4A0244F5
S3150FE11760A3B102F1C0621160F0BD04F18064DCE760
S3150FE1177001F18045083DA668AD000F27AF4026EA87
S3150FE11780070602FA05F53543A560E1E702F1806246
S3150FE11790E9E700BF0CA00040094A0A4BD969C9071E
S3150FE117A005D512B96FF002007047013AF6E7002A44
S3150FE117B0F8D001221861DA60D86940F380007047EA
S3150FE117C08096980000000E4070B509B9002070BDF3
S3150FE117D0C2B9244B082550F822409C61224CDD60AA
S3150FE117E00132DE69F60705D514B96FF00200EEE7AF
S3150FE117F0013CF6E7002CF8D0DC69A60720D491422C
S3150FE11800E9D1E3E7EFF3108572B6164B0022102606
S3150FE11810DC69240717D550F822409C6101329142C9
S3150FE11820DE60F5D105B962B60E4A0F4B1146D069A6
S3150FE11830C40711D573B96FF00200CB699B07C6D503
S3150FE118406FF00100C3E7DC6904F01904102C08BF3F
S3150FE11850DC60DDE7013BEAE7002B0CBF6FF002002E
S3150FE118600020EAE700000E40809698002DE9F84344
S3150FE1187099461B4B1C6CA4B280460F4664BB1949B3
S3150FE1188048684968996841F0010199609608B44240
S3150FE1189007D30020124A936823F001039360BDE852
S3150FE118A0F88308EB84052846FFF776FF0028F6D183
S3150FE118B0C5F30A05C5F50065AD08331B9D4228BF83
S3150FE118C01D464A4629463846FFF77EFF0028E1D1F5
S3150FE118D02C4407EB8507DAE76FF00100DFE700BF7E
S3150FE118E000000E4000300E40184B1A6C92B21ABB34
S3150FE118F0174A516852689A6842F001029A600122CA
S3150FE119001861DA60DA69520706D59A6822F00102A0
S3150FE119109A604FF0FF30704702220E49DA601A469D
S3150FE11920D869C00700D551B9D069936810F00200A4
S3150FE1193023F00103936004D06FF001007047013982
S3150FE11940EEE711B96FF002007047704700000E40E5
S3150FE1195000300E40809698000023FFF787BF2DE9F0
S3150FE11960F04F0C780CB902234360002343624B78A6
S3150FE11970CA7891F802B08D7A91F808A091F806909D
S3150FE1198091F80780002B4B7A4FEA024214BF4FF0D2
S3150FE11990400E4FF0000E42EA0B62002B14BF80237C
S3150FE119A0002342EA0A02002DCD7A42EA892214BFC8
S3150FE119B04FF0200C4FF0000C42EA0822002D0D7B70
S3150FE119C042EA0E0214BF102700271343002D0D79AB
S3150FE119D0497943EA0C0314BF082600263B43002D41
S3150FE119E014BF4FF4005500253343002914BF4FF0C0
S3150FE119F0805100212B430B4303600CB1012343605C
S3150FE11A00BDE8F08F1C4AD2F8B03043F0080313B5A6
S3150FE11A10C2F8B0300621012304220520FFF77AFE32
S3150FE11A2000230093009B632B20DD01230222062175
S3150FE11A300520FFF76FFE00230193019BB3F5FA7FB4
S3150FE11A4017DB0E4B00221C68062101230520FFF749
S3150FE11A5061FE094AD2F8B03014F1FF3023F00803E2
S3150FE11A6018BF0120C2F8B03002B010BD009B0133A0
S3150FE11A70D7E7019B0133DFE700400E40982114427F
S3150FE11A8030B50568046802680368880785B011D028
S3150FE11A90CDE90054CDE902236C460B4604AD22464F
S3150FE11AA003CAAA4218605960144603F10803F6D136
S3150FE11AB005B030BDC1E90054C1E90223F8E77FB5AE
S3150FE11AC08B07024615D00B466D4601F110061868D5
S3150FE11AD059682C4603C40833B3422546F7D1009B18
S3150FE11AE01360019B1360029B1360039B136004B0A9
S3150FE11AF070BDD1E90054D1E902031560146010609D
S3150FE11B00F4E700F10473102A30B54FEA43131AD103
S3150FE11B1001221A60D1E90054D1E90223C0F810512C
S3150FE11B20C0F81041C0F81021C0F81031D1E90454C2
S3150FE11B30D1E90623C0F81051C0F81041C0F81021C1
S3150FE11B40C0F8103130BD00221A60D1E90054D1E955
S3150FE11B5002234562446242624362F3E718B12422EB
S3150FE11B60002101F05BBB704770B50E461546044682
S3150FE11B7090B189B12422002101F050FB802D02D0D2
S3150FE11B80B5F5807F0BD12046EA0840F8045B314674
S3150FE11B9001F039FB002070BD6FF02100FBE76FF01C
S3150FE11BA02200F8E72DE9F04F814685B088469B463E
S3150FE11BB01646F2B11768B9F1000F00F0B5800F9B29
S3150FE11BC0002B00F0B180109B002B00F0AD80BBF134
S3150FE11BD0000F00F0A9800E9B002B00F0A580D9F82D
S3150FE11BE00030802B03D0B3F5807F40F0A080002436
S3150FE11BF00DE01746DFE7A7B10F9B0E9A1B5DD25D8E
S3150FE11C005340109A0137135507F00F070134444536
S3150FE11C10F1D3002E00F08E803760002005B0BDE8CD
S3150FE11C20F08F00F089F84FF44043476003600546B3
S3150FE11C30FFF752FDD9F80030802B824614BF1022F0
S3150FE11C40082209F104012846FFF75BFF05F184033A
S3150FE11C50184659460093FFF732FF5046A8EB040AA0
S3150FE11C602AF00F0AFFF73CFDA244032354451AD18C
S3150FE11C700F9B03EB040A109B1C440F9B43440193F8
S3150FE11C800323019A92452DD1FFF726FD59460446C6
S3150FE11C900098FFF7F5FE2046FFF722FD284600F0F4
S3150FE11CA055F84446B3E74822AA600522AA602A6995
S3150FE11CB09107FCD4AB600293FFF70EFD0F9B0190EA
S3150FE11CC0191905F1A000FFF7FAFE109B05F1800047
S3150FE11CD01919FFF7D5FE019A1046FFF701FD1034EA
S3150FE11CE0029BC3E7AFB94822AA600522AA602A6917
S3150FE11CF09207FCD4AB600393FFF7EEFC0E990290CB
S3150FE11D0005F18000FFF7BCFE029A1046FFF7E8FCEB
S3150FE11D10039B0E991AF8012BC95D01374A4004F866
S3150FE11D20012B07F00F07ACE76FF0210076E76FF0B5
S3150FE11D30220073E7304671E7024B034801221A602E
S3150FE11D40704700BF0016C84300000F40094B984289
S3150FE11D500ED003F58063984209D10122064B03EBBE
S3150FE11D60C2035A68054B13449B0000221A60704761
S3150FE11D700022F3E700000F401433E10F8005F21064
S3150FE11D802DE9F04F99B007460E4690461D46FFF7EF
S3150FE11D90D3FF04462FB1022F00F2E580042303603F
S3150FE11DA000E0076000236360E364626822F4406247
S3150FE11DB062602363636356F8232012BA4DF823203A
S3150FE11DC00133082BF7D1FFF787FC009BC4F80431E9
S3150FE11DD0019BC4F80431029BC4F80431039BC4F898
S3150FE11DE00431049BC4F80431059BC4F80431069B06
S3150FE11DF0C4F80431079BC4F80431FFF771FCDFF82F
S3150FE11E0074A15A4B2365002608F00309229B9E42D3
S3150FE11E1039D1AB0700F08A80FFF75EFCD4F8006199
S3150FE11E20D4F80011D4F80021D4F80031CDE90061DE
S3150FE11E30CDE90223D4F80061D4F80011D4F80021DA
S3150FE11E40D4F80031CDE90461CDE906232E46FFF73B
S3150FE11E5047FC08AF6B461A4603CABA423060716057
S3150FE11E60134606F10806F6D12046FFF76FFF2B1F43
S3150FE11E701C3553F8042F12BAAB421A60F9D1002080
S3150FE11E8019B0BDE8F08F08EB861BB9F1000F0FD043
S3150FE11E9008AA0BF1400CDBF80000DBF8041013463F
S3150FE11EA003C30BF1080BE3451A46F4D10DF1200BF1
S3150FE11EB0FFF712FCDBE90131DBF80C20DBF80070F0
S3150FE11EC0C4F8A471C4F8A431C4F8A411C4F8A421C8
S3150FE11ED0DBE90531DBF81C20DBF81070C4F8A471DF
S3150FE11EE0C4F8A431C4F8A411C4F8A421DBE909317B
S3150FE11EF0DBF82C20DBF82070C4F8A471C4F8A43108
S3150FE11F00C4F8A411C4F8A421DBE90CC1DBE90E2363
S3150FE11F10C4F8A4C1C4F8A411C4F8A421C4F8A43127
S3150FE11F20FFF7DEFB0136C4F850A06FE7FFF7D4FBEE
S3150FE11F30D4F80061D4F80011D4F80021D4F80031B7
S3150FE11F40C5E90061C5E90223D4F80061D4F80011AF
S3150FE11F50D4F80021D4F80031C5E90461C5E90623B7
S3150FE11F60FFF7BEFB80E702488AE700BF888AC80110
S3150FE11F7080AFFFFF070D81012DE9F34702281446D4
S3150FE11F8080460E461F46DDE90A924ED81CB900205F
S3150FE11F9002B0BDE8F08713683F2B42D8516809B10B
S3150FE11FA0002F3ED1B8F1010F3DD0224D2249B8F1B4
S3150FE11FB0020F18BF0D4603F03F00E318136022BF6F
S3150FE11FC053680133536090B3C0F1400A544522D3AD
S3150FE11FD031465246484401F016F9012300934A4629
S3150FE11FE03B4629464046A4EB0A04FFF7C9FE3F2CC0
S3150FE11FF056440DD93D46A309009332463B46294641
S3150FE120004046FFF7BDFE24F03F031E4404F03F04B4
S3150FE12010002CBCD0002022463146484401F0F3F8AB
S3150FE12020B5E73D46C7E7054DC5E70548B0E73F2CA0
S3150FE12030F1D9E0E76433E10F2433E10F4433E10FE4
S3150FE1204080AFFFFF2DE9F047064686B088469146F9
S3150FE120501D46042855D8DFE800F052030709500062
S3150FE120601C240220402304E02024FAE73024042034
S3150FE1207080238700F91E02AAAE46114407EB050A33
S3150FE120804FF0000C5EF8042B0CEBC20C81F802C08A
S3150FE120904FEA521C81F801C04FEA523C81F800C069
S3150FE120A0F2454FEA525C01F801CC4FEA527CA1F1BD
S3150FE120B00401E7D129685A1E0A40D91B914296BFFE
S3150FE120C0A3EB40038A1AC2EB43020F494346CDE91C
S3150FE120D000953046FFF750FF43463A4602A9CDE950
S3150FE120E000953046FFF748FF224641460E9801F02C
S3150FE120F08AF8002006B0BDE8F0874024B7E714243C
S3150FE12100AFE70248F6E700BF8433E10F80AFFFFF89
S3150FE1211018B16C22002101F081B8704707B503466B
S3150FE1212090F86800002803F12000019003F12800E0
S3150FE12130009014BF01200220FFF71EFF03B05DF8E8
S3150FE1214004FB07B590F868300091002B00F12802E7
S3150FE1215000F12003014614BF01200220FFF772FFB1
S3150FE1216003B05DF804FB00239942D4BF002101219E
S3150FE12170C0E9083380F868107047FFF7CFBFFFF764
S3150FE12180E0BF002070470020704700207047002015
S3150FE1219070470000014B1B68186970472808E10F6B
S3150FE121A0044B054A1B68196891420CBF1869002058
S3150FE121B0704700BF2800E10FAD1007B0012070474F
S3150FE121C0004870474A43E00F004870476A43E00F03
S3150FE121D0004870478642E00F70B501213848394D06
S3150FE121E0FFF73CFA01213848FFF738FA0121374862
S3150FE121F0FFF734FA01213648FFF730FA40F6AA63C2
S3150FE122000024EB60334A2C6041F205036C666B6088
S3150FE12210AC606C61EC64AA646C67AC67EC676B608D
S3150FE122202B682B602C4B2D4AD3F894102C4B01299C
S3150FE1223018BF134603F5E1434FF4E1125B01B3FB1C
S3150FE12240F2F3203BDB006B6104220123214620469A
S3150FE12250FFF760FA01231A46194620460326FFF7D0
S3150FE1226059FAAC67012304226E6705212046FFF771
S3150FE1227051FA0523EB601B4B4FF0E0621A604FF406
S3150FE1228040221C62DC625C63DC66C3F88020164A7E
S3150FE12290C3F88840C3F88440C3F89820134AC3F8BB
S3150FE122A0B020134AC3F8B840C3F8B4401660012210
S3150FE122B0DA6303F1C063083302221A6070BD00BF0F
S3150FE122C0404105000000014000350A0000550A00B3
S3150FE122D000320400F9FF010000400E4000F0490210
S3150FE122E0C0EA210100200E40C433E10F01000C00CA
S3150FE122F028200E44084B986A10F0020005D0074AD1
S3150FE12300022313609360012070471B6A9B07FBD47E
S3150FE12310034B02221A60F6E700200E4020200E44FE
S3150FE1232028200E447F2938B50546144624D8FFF7F1
S3150FE12330E1FFA8B941F2062038BDE85C98540133B4
S3150FE123408B42FAD10E490888013B63F30E100D4B10
S3150FE1235008800222C3F8C810DA6324B90020EBE73C
S3150FE123600023094AECE7FFF7C5FF0028FBD0074A30
S3150FE1237013699B06FCD5F1E741F20310DCE700BFD9
S3150FE123800C01002000200E404C030020000001400C
S3150FE123900E4BD3F8940040F2011398420FD040F25E
S3150FE123A0022398420DD00A4BC01A0A4B1B6883428F
S3150FE123B00AD02ABFC3F50073C01AC01870470020B0
S3150FE123C0F3E74FF48070F0E70020704700200E40EE
S3150FE123D048010020480300202DE9F843089F0446F1
S3150FE123E00D461646FBB9FFF7D3FF2149DFF888E023
S3150FE123F00B68204FA84228BF2846224604EB000C63
S3150FE124004FF0010800244FF0020962451DD104B1D6
S3150FE124100B6006B1306041F20423A84234BF18467F
S3150FE124200020BDE8F8832FB1FFF7A2F80021384667
S3150FE12430FFF7CAF8FFF7ACFFA842D4D2002FF9D0C5
S3150FE12440FFF7E4F80028F5D0CDE71EF8034002F8D0
S3150FE12450014B0133B3F5007F04D1C7F80090002398
S3150FE124600124D2E7B3F5807F08BFC7F80080F7E70D
S3150FE124704803002008200E464801002070B5D1E937
S3150FE124800152AA4205D290F840302B449B1A402BB9
S3150FE1249010D9002012E00A6890F84040D65C90F817
S3150FE124A04120224402F03F020133013486548B600E
S3150FE124B080F840408B689D42EDD8012070BD2DE933
S3150FE124C0F8431746D1E90125521B90F840509DF884
S3150FE124D020909DF824802A44934204460E4657D90C
S3150FE124E0FFF7CCFF00285DD1122384F8463041F285
S3150FE124F00200BDE8F88394F84120A25C7A5594F87E
S3150FE125004120013202F03F0284F8412094F8402045
S3150FE12510013A84F84020013594F8402012B1AB42DC
S3150FE12520E9D11D46D6E901128A4201D2AB4231D831
S3150FE12530AB42D9D1D4F8882029463846FEF76CFB51
S3150FE12540C4F88800B9F1000F04D02A463946E06C89
S3150FE12550FEF7F2FBB8F1000F08D094F843302BB138
S3150FE125602B463A463946A06CFEF794FB94F8433076
S3150FE1257043B1E36DA26D2B449342E36524BF002380
S3150FE1258084F84330636D1D44656541F20300B0E79E
S3150FE125900025C1E731688A5C7A55B2680132B260CB
S3150FE125A00135BFE70020A4E77FB50023CDE900336E
S3150FE125B0082315460DEB03020446FFF780FF41F2B0
S3150FE125C003039842064626D194F8433063B10822B5
S3150FE125D00DEB0201E06CFEF7AFFB08230DEB0302F7
S3150FE125E01146A06CFEF756FB039A6A6094F84320F6
S3150FE125F0029B2B605AB9094A934208D0084A934283
S3150FE1260005D008220DEB0201E06CFEF795FB6B6836
S3150FE12610236500236365304604B070BDF70A0AF7F8
S3150FE12620FC0404FC2DE9F843044658680D461646AA
S3150FE126301F46002843D08B0743D1FFF7ABFD216E31
S3150FE1264000F1040C06EB0109CC451DD800F11C0283
S3150FE12650914219D28C45634638BF0B46591AA3EB03
S3150FE126600C00914594BFC3EB0909C3EB020905EBD6
S3150FE12670010868304A464146204400F0C4FD4A4607
S3150FE12680FF21404600F0CAFDFFF78AFD226E031DCA
S3150FE1269093420AD3B1180830814206D39B1AEA58FE
S3150FE126A0C4F880204FF0FF32EA50D7E900383246BE
S3150FE126B0206E2946C047236E1E4426660020BDE8DC
S3150FE126C0F88341F20200FAE7F8B504464FF0FF3618
S3150FE126D0154603F02003002280F84620A0F840209B
S3150FE126E080F8432080F8452080F84420C0E918227D
S3150FE126F00F4680F84230C0F888601822FF21683013
S3150FE1270000F08CFDC4F88060C4F88460C4E91275EA
S3150FE12710FFF73DFD18B117B941F20B00F8BDFFF711
S3150FE1272034FD30B1002DF7D0E06CFEF7FBFA002057
S3150FE12730F4E7002DF8D12846F0E700002DE9F04F38
S3150FE1274099B09B46CDE90523229E0023044689468F
S3150FE1275007939846079A5A4557D294F84630122B63
S3150FE12760F9D8DFE813F05B00700054009A00A0017E
S3150FE127703B003200BD013B00B7013B00B7019602BA
S3150FE127802B031300FE0202032B022B030027636DBB
S3150FE127900F2B41D8012510230197009508AA05A90A
S3150FE127A02046FFF78CFE41F2030398427AD1D4F823
S3150FE127B048A0FFF70DFD8023CDE9000309AA2B46BB
S3150FE127C002215046FEF744FAE1E70125D4E9143236
S3150FE127D09A42C0F0198184F84650BBE70DF1200A01
S3150FE127E0D4E91452AA42079916D2069BAD1A94F868
S3150FE127F040205B1A032D134440F28E81032B00F226
S3150FE12800B28105A92046FFF739FE00204AE00025EF
S3150FE12810636D072B40F2C180012311E003AA05A9DD
S3150FE128202046FFF7C1FE41F2030398423AD1049BDA
S3150FE12830236500236365039AAB4B9A422DD102239D
S3150FE1284084F8463086E703AA05A92046FFF7ACFED2
S3150FE1285041F20303984225D194F84420039B22B118
S3150FE12860A24A934219D10C23EAE794F8422012F0D7
S3150FE12870010F9F4A4BD094F84310002940F0A182F3
S3150FE1288093425FD020D89B4A934206D00DD8964A01
S3150FE12890934202D0984A93420ED1122384F84630DE
S3150FE128A041F2010019B0BDE8F08F944A9342F4D09A
S3150FE128B002F1013293421FD0122384F8463003A866
S3150FE128C0FFF75FFCD8B1EBE7884A93421AD007D8F6
S3150FE128D08B4A934209D08B4A9342EDD10E23AFE750
S3150FE128E0894A9342D9D0894AD5E70F2384F84630EE
S3150FE128F0236DC4E916312DE7122384F8463041F2F0
S3150FE129000800CFE7FFF741FC0028ACD0C5E79342BB
S3150FE1291014D000F25A82774A934207D0774A93420C
S3150FE1292006D0754A93420FD1062389E7042387E739
S3150FE12930072385E7092383E70B2381E794F84330E0
S3150FE12940002BAAD110237BE703A8FFF71AFCD0B11E
S3150FE129501123039884F84630C4F88C00FFF713FC73
S3150FE1296094F842309D0680467FF5F4AE00283FF499
S3150FE12970F1AE4368002B3FF4EDAE204698470028B1
S3150FE129803FF4E8AE8CE7122384F8463094F84330EF
S3150FE12990002BB4D041F2040084E7012300930195A3
S3150FE129A0082308AA05A92046FFF789FD41F203038B
S3150FE129B098427FF477AF089B03F07F43B3F1407FF3
S3150FE129C005D0122384F8463041F209006AE7099BE4
S3150FE129D00293D8070ED594F8423043F0010384F8F9
S3150FE129E04230FFF7D2FB00283FF412AF029BD90525
S3150FE129F004D50DE7FFF7CBFB0028F2D0122384F8BD
S3150FE12A00463041F20A004DE7CDE9005508AA05A97E
S3150FE12A102046FFF754FD41F2030398427FF442AF9C
S3150FE12A2009F1080C08AF63460DF1380E3A4603CAB1
S3150FE12A30724518605960174603F10803F6D110681D
S3150FE12A40186089F801506046FFF7B8FB00287FF45C
S3150FE12A50BDAE41F20C0025E701250823CDE900556E
S3150FE12A6008AA05A92046FFF72AFD41F2030398427A
S3150FE12A707FF418AF264A27481268089B1168C9F8F0
S3150FE12A8004308142099B89F80050029303D1D26841
S3150FE12A909A427FF402AF052384F84630012384F886
S3150FE12AA0453000236366636D072BD5D952E60423C0
S3150FE12AB0CDE9005508AA05A92046FFF700FD41F229
S3150FE12AC0030398427FF4EEAE226D089B0293042A2C
S3150FE12AD001D923660125636D032BE8D90A23AFE6F6
S3150FE12AE0002363660823ABE6EB17A603FC0404FC9D
S3150FE12AF0F70A0AF7F50909F5F40A0AF4F60808F6EA
S3150FE12B00F90707F9FA0606FAFD0303FDFE0101FED1
S3150FE12B102800E10FAD1007B09D423FF672AE9D4220
S3150FE12B2028BF1D46032D88BF25F003050123CDE9F7
S3150FE12B30003352462B4605A92046FFF7C0FC41F26A
S3150FE12B40030398427FF4AEAE94F84630082B13D1C7
S3150FE12B50B7688FB13368606E2A465146B847636EE0
S3150FE12B601D4465663CE6402D28BF4025D7E74FF06B
S3150FE12B70FF320AF805200135032DF8D90A2B06D1C4
S3150FE12B8033462A4651462046FFF74CFD28E6052BEC
S3150FE12B907FF426AEF368002B3FF422AE626E042A71
S3150FE12BA00AD85319062B07D909AB9B1A1A68C4F829
S3150FE12BB084204FF0FF321A60F768CBE794F8423082
S3150FE12BC09A0607D5D4F88C00FFF7DDFA8046002880
S3150FE12BD03FF466AE01273FE0002B58D0B8F1000F66
S3150FE12BE055D0D8F81030002B51D020469847DDE963
S3150FE12BF00653ED1A94F840302B4498423FF601AE56
S3150FE12C00D4E91452AD1A402D28BF40259D4228BF65
S3150FE12C101D462B46CDE9007708AA05A92046FFF701
S3150FE12C204EFC41F2030398427FF43CAE94F84230F6
S3150FE12C309B0611D5B8F1000F3FF432AED8F808A0D4
S3150FE12C40BAF1000F3FF42CAE33462A4608A92046C7
S3150FE12C50D04700287FF426AED4E9142194F8423008
S3150FE12C60914203F02003B7D3002B3FF4D5ADB8F172
S3150FE12C70000F3FF4D1ADD8F80C30002B3FF4CCADBB
S3150FE12C8031462046984700283FF4C6AD0AE60120B3
S3150FE12C90ADE70023CDE9003308AA042305A92046B1
S3150FE12CA0FFF70DFC41F2030398427FF4FBADD4F835
S3150FE12CB08820514B9A4205D0122384F8463041F2CF
S3150FE12CC00500EFE5FFF761FA10B9012389F8033043
S3150FE12CD099F80330002B3DD094F845303BB1F568B8
S3150FE12CE02DB10422336804F184011046A847236EFF
S3150FE12CF083B3736873B318AF4FF0FF3347F8583D9B
S3150FE12D0004F1800804224146384600F06DFA40B1DD
S3150FE12D10FFF746FA28B10422D6E9003541461044B9
S3150FE12D20A84704F1680504222946384600F05CFA03
S3150FE12D3080B17768FFF72EFA3368142204F16C013C
S3150FE12D400830B8477768FFF725FA04223368294632
S3150FE12D501044B847012389F802300D2384F8463031
S3150FE12D6053E5012384F843306AE594F84450002D86
S3150FE12D707FF452AD4023CDE9005508AA05A92046B7
S3150FE12D80FFF79DFB41F2030398427FF48BADE06CB5
S3150FE12D90FDF7D4FF10AA08A9E06CFDF78DFF38B156
S3150FE12DA0122389F8035041F2060084F8463079E59B
S3150FE12DB0012389F8033084F844302DE541F2070009
S3150FE12DC070E593427FF4A5AD67E50C4A93423FF474
S3150FE12DD0B3AD0B4A93423FF4ADAD0A4A93427FF44A
S3150FE12DE0B3ADFFF7D2F900287FF457AD94F843302E
S3150FE12DF0002B3FF438AD50E5E320BBDEFD0303FDC9
S3150FE12E00FE0101FEFC0404FCF0B51E4B446BA1B0C0
S3150FE12E1001AA054603F1100C1746186859681646BC
S3150FE12E2003C6083363453246F7D1102239462046A9
S3150FE12E3000F0DAF918B96369012B1ED1A469124BB7
S3150FE12E401B681B69A3421AD8AC4218D3B4F5002FFD
S3150FE12E5015D805A8FDF766FF621B294605A8FDF7FC
S3150FE12E606BFF05A8FDF76AFF04F12002214605A8CD
S3150FE12E70FDF722FFB0FA80F0400921B0F0BD002046
S3150FE12E80FBE700BF0434E10F2808E10F144B1B6881
S3150FE12E902DE9F04116461A698242054688461DD844
S3150FE12EA05B698719BB4219D3C0F30A030BB900F06B
S3150FE12EB058F905F5006424F4FF6424F00704A742EA
S3150FE12EC006D8324641462846BDE8F04100F054B9EE
S3150FE12ED0204600F046F904F50064F0E7BDE8F0811D
S3150FE12EE02808E10F194B1B682DE9F0418846164674
S3150FE12EF01968174A914226D11D69164B1B6805447D
S3150FE12F005A69AF19BA421ED310B9186900F029F9F7
S3150FE12F10C5F30A0313B9284600F023F905F5006452
S3150FE12F2024F4FF6424F00704A74206D8324641464B
S3150FE12F302846BDE8F04100F01FB9204600F011F92F
S3150FE12F4004F50064F0E7BDE8F08100BF2800E10F6A
S3150FE12F50AD1007B02808E10FF0B5284B85B06A46EA
S3150FE12F60044603F11007164618685968154603C556
S3150FE12F700833BB422A46F7D1236803F16043B3F521
S3150FE12F80803F37D81E4B62681B681B69934231D865
S3150FE12F90B2F5002F2ED8656B4033AB4202D8B5F5AB
S3150FE12FA0002F06D9FDF736FE80F00100C0B205B05D
S3150FE12FB0F0BDFDF72FFE28B1204605B0BDE8F04084
S3150FE12FC0FFF722BF10223146284600F00DF998B9D6
S3150FE12FD06B698BB1022BEFD1AB69C4F104011944D3
S3150FE12FE04FF0FF322046FDF717FE064BC31A584244
S3150FE12FF05841DCE70020DAE70120D8E70434E10F96
S3150FE130002808E10FE320BBDEB1F5BC7F10B504461E
S3150FE130100FD34FF4BC72002100F000F904F1FC026A
S3150FE1302004F1B40104F124000023BDE81040FFF7D9
S3150FE130304BBB40F2052010BD13B504460091014686
S3150FE130402430FFF77BFBC4F8740118B141F2070393
S3150FE13050984209D1A3784BB1E27840F2032040F2CE
S3150FE130600223002A08BF184602B010BD40F2012024
S3150FE13070FAE74FF000534FF20F0218805A8070476C
S3150FE130804FF000534CF23C325A8070474FF00053E9
S3150FE130904FF20F025A800A4A1880136823F4E0634D
S3150FE130A043F480631360BFF34F8F0649064BCA683B
S3150FE130B002F4E0621343CB60BFF34F8F00BFFDE72E
S3150FE130C000500E4000ED00E00400FA054FF000530A
S3150FE130D04FF20F015A888A4201D1188870473AB9DF
S3150FE130E01B88012B40F2022018BF4FF40070704786
S3150FE130F04FF4007070474FF0005318887047000087
S3150FE13100044B41F671321A649A6822F001029A6011
S3150FE13110704700BF00000E40034B9A6822F0010290
S3150FE131209A6000221A64704700000E4007B5034605
S3150FE131309B0753BF6FEA01414FF6FF7343EA014124
S3150FE131406FEA1141019120F00300FFF7D9FF042245
S3150FE131500DEB0201FEF700FCFFF7DEFF03B05DF8B2
S3150FE1316004FB08B5FFF7CCFFFEF7BEFBFFF7D4FF75
S3150FE13170B0FA80F0400908BDF8B540EA02031446FB
S3150FE13180DA0705460E4601D50020F8BD0CB9012038
S3150FE13190FBE7830725D50988FFF7C8FF0028F3D199
S3150FE131A0023C032C05F1020506F102060FD924F0C4
S3150FE131B00307FFF7A5FF3A4631462846FEF7CCFB54
S3150FE131C0FFF7AAFF0028DFD13E443D44E41B002C64
S3150FE131D0DDD031882846FFF7A9FFB0FA80F0400924
S3150FE131E0D3E7032CE3D8F4E730B50024A24201D1AB
S3150FE131F0002007E0035D01340D1915F8015CAB42C0
S3150FE13200F4D0581B30BD10B5431E0A44914200D18C
S3150FE1321010BD11F8014B03F8014FF7E702440346DE
S3150FE13220934200D1704703F8011BF9E7F8B500BFE8
S3150FE13230F8BC08BC9E467047F8B500BFF8BC08BCA1
S3150FE132409E467047000000008D2EE10F0000000042
S3150FE13250E52EE10F07B0CD5E01000000000007018A
S3150FE13260402C00000000000000000800F0001000F4
S3150FE13270290BE10F2D0BE10F592FE10F0930E10F6B
S3150FE132803930E10F000000002000000000010000CE
S3150FE13290050C0000FFFFFFFFFFFFFFFFFFFFFFFF33
S3150FE132A00000000000000000000000000100000027
S3150FE132B0FFFFFFFF512563FCC2CAB9F3849E17A72F
S3150FE132C0ADFAE6BCFFFFFFFFFFFFFFFF00000000C7
S3150FE132D0FFFFFFFF96C298D84539A1F4A033EB2D36
S3150FE132E0817D0377F240A463E5E6BCF847422CE122
S3150FE132F0F2D1176BF551BF376840B6CBCE5E316B66
S3150FE133005733CE2B169E0F7C4AEBE78E9B7F1AFE29
S3150FE13310E242E34F00000F400000000000040F40BF
S3150FE133200100000067452301EFCDAB8998BADCFEBA
S3150FE1333010325476C3D2E1F0000000000000000025
S3150FE1334000000000C1059ED8367CD5073070DD1729
S3150FE13350F70E5939FFC00B316858151164F98FA76C
S3150FE13360BEFA4FA46A09E667BB67AE853C6EF37298
S3150FE13370A54FF53A510E527F9B05688C1F83D9AB4A
S3150FE133805BE0CD19800000000000000000000000A6
S3150FE133900000000000000000000000000000000037
S3150FE133A00000000000000000000000000000000027
S3150FE133B00000000000000000000000000000000017
S3150FE133C000000000F00F10031C000140480100202F
S3150FE133D013000000090000000001000002020000D6
S3150FE133E013000000F00F10031C00014048020020FB
S3150FE133F013000000090000000002000001010000B7
S3150FE13400D3FFFFFF13B779FAC925DDB7ADF3CFE0E8
S3150FE13410F1B614B80000000000F04902C0EA21013C
S3150FE1342000800000F07F10304C0300203400014093
S3110FE13430000000006508E10F4108E10F04
S5030325D4
S70500000000FA
