:10000000000800201FCD0200FFCA0000FBD1000045
:10001000970A0100B71001008311010000000000E1
:100020000000000000000000000000002713010095
:100030004F1A0100D8010000633901002354010068
:1000400047620100DB7100002B7301004375010062
:10005000356C000029720000E1710000E3710000BE
:10006000DD7100007BF50000B1F800006381010044
:10007000310C0100CD0C0100BF900100479201003E
:1000800033E50100FFE70100CDF800006BEA010055
:10009000FBF501000BF80100C7FF01002B01020076
:1000A0006B130200B71702008318020077190200D1
:1000B0002B720000DF710000C1C10200C9C3000043
:1000C0005B720000D32C020099C102004368020059
:1000D000AF680200F36D02002B700200637402002F
:1000E000AB7402009F770200BF7702000780020016
:1000F000CB990200EFB102000000000001000000F7
:1001000005000000000000000200000300000000E5
:1001100040787D0100000000005A620200010000EA
:10012000C0CF6A0002000000809FD50002010000DD
:10013000002D31010202000001000000000000005B
:1001400004000000010000000800000001000000A1
:10015000100000000100000000010000010000008C
:10016000000800001D000000000200001D0000004B
:10017000000400001D000000000001001D00000040
:10018000050000000000000000C2010000050000A2
:10019000001000000000000000000000000010300F
:1001A000000000000000000000000000000010033C
:1001B0000000000000000000000000000700000335
:1001C000050000000000000040420F000501000093
:1001D000000000000000000013B779FAC925DDB760
:1001E000ADF3CFE0F1B614B801010000000000004B
:1001F00000000000200000000100000000000000DE
:1002000000000000000000000000000000000000EE
:10021000000000000000000000280128032800184A
:10022000002A012A0118052A2A2B292B022900005D
:100230000A030A00B4AE00200A0201004DF20020B9
:100240000201100064BC00202000040074BC0020E7
:1002500000000108FFFF00001ACD020002000108A3
:10026000FFFF000012CD020007000008FFFF0100A1
:10027000480200000A000708FFFF03000200000018
:1002800002000108FFFF00000ACD0200080001087B
:10029000FFFF01004002000002000108FFFF000014
:1002A00002CD020009000308FFFF01003802000030
:1002B00000000108FFFF0000FECC02000200010860
:1002C000FFFF0000F6CC020004000308FFFF01005E
:1002D0003002000002000108FFFF0000EECC020027
:1002E00005000108FFFF0000EACC02000300060041
:1002F00008000B00500200000D0000000B00000081
:1003000018020000000000006ACC02000400000097
:10031000EC0200006BCC0200000000008ECC02005A
:1003200000000000FFFFFFFF000108070F000A00A8
:10033000C8002000A000010001000000050000002E
:10034000000000000002070000000000A00068019B
:100350000A200706020A040700000000000000004F
:10036000000000000802000078BC0020F8216400B2
:100370000000000000000000F40200000000000087
:10038000000000000101000000000000000000006B
:10039000000000000000000000000000010100005B
:1003A0000000000002000000006A180006010C00B6
:1003B000000006010D000000673901000000000088
:1003C0006D390100000100007539010000020000D4
:1003D000933901000003000000000000000000004D
:1003E000534B01000D0100007D4B01000D02000088
:1003F000AB4B01000D0300000F4C01000D04000089
:100400000000000000000000A544010009000000F9
:10041000C344010009010000DB440100090200009F
:100420001B450100090300003745010009040000D5
:100430007346010009050000994601000906000005
:100440006345010009070000A545010009080000F7
:10045000F3450100090900000B460100090A0000EC
:1004600041460100090B00005B460100090C000039
:100470007F480100090D0000AF460100090E000091
:10048000C5460100090F0000FF44010009100000EB
:10049000D545010009110000854501000912000041
:1004A000AF48010009130000000000000000000038
:1004B000E94601000A000000194701000A01000096
:1004C000D34701000A020000EF4701000A030000C1
:1004D000154801000A0400002D4801000A0500002B
:1004E000694701000A060000954801000A0800005B
:1004F0009D4701000A090000CF4801000A0A0000D8
:10050000034901000A0B0000000000000000000089
:10051000B94A01000C000000F94A01000C0B000070
:10052000D14A01000C0C0000000000000000000097
:1005300017430100080000009D430100080100006E
:10054000AF43010008020000D5430100080300008A
:10055000374401000804000045430100080500007D
:10056000F94301000806000051440100080700009B
:100570000000000000000000433E010003000000F6
:10058000973C010003010000C13E0100030200008E
:10059000D93E010003030000ED3E0100030400000A
:1005A0006F3F010003050000473F01000306000004
:1005B000453D010003070000173E0100030800004D
:1005C000D13F010003090000C53C0100030A0000FF
:1005D000233F0100030B0000613D0100030C0000FC
:1005E000E33F0100030D0000F53F0100030E000092
:1005F0001B400100030F00002D400100031000000C
:1006000047400100031100005B400100031200009D
:100610009B4001000313000033410100031400005C
:100620004F41010003150000614101000316000065
:1006300081410100031700009341010003180000ED
:10064000A5410100031900006B3E0100031A0000E0
:10065000C7400100031B0000B9410100031C00005A
:1006600007420100031D000033420100031F000088
:100670008D3D0100032000006542010003210000C0
:10068000973F010003220000F7400100032500000E
:1006900021410100032600000000000000000000CE
:1006A0003F5201000F000000A35201000F010000A3
:1006B000555301000F0200002D5201000F040000ED
:1006C000615201000F060000715201000F07000087
:1006D000BD5201000F080000E55201000F090000A3
:1006E000F75201000F0A0000195201000F0B000021
:1006F000795301000F0E00008B5301000F0F000013
:10070000D35201000F1000001F5301000F11000011
:100710000B5301000F1200009F5301000F13000044
:10072000815201000F1400000000000000000000D2
:10073000933B0100010000009B3B01000101000010
:10074000373A010001030000CB3A01000104000028
:100750007F3B0100010A0000253B0100010B000066
:10076000693B0100010C0000FF3A0100010D00008F
:10077000D13B0100010E0000F73B0100010F00001A
:100780008F19020001120000DD3A01000113000080
:10079000D519020001140000000000000000000054
:1007A000854D01000E000000BF4E01000E0100004B
:1007B0001F4F01000E020000A54F01000E070000B0
:1007C000AD5001000E0C0000000000000000000011
:1007D000000000000100020015005400A9005301B0
:1007E000A7024F059F0A0000000000000000000063
:1007F000F4010000FA000000960000006400000010
:100800004B000000320000001E0000001400000039
:10081000000000003C0094003C0096000000000036
:1008200028A00000C4090000C05D0000B80B000053
:10083000FBD90200E7180000EBBE0000E71800003B
:10084000000005000300020001000000000000009D
:10085000002800000000000002000000000000006E
:100860000028000000000000100000005D6801008A
:10087000836801000102030000010102010202037A
:10088000000102040F0E0C080C080D1810000000E7
:10089000131510801A8012808000000000000000F4
:1008A0000000000000280000000000000000000020
:1008B0005000400008005000240004009001500245
:1008C00040009001AE0110004E70820C4A70100C76
:1008D0003670EC112C70B8173E706C0C3A708E0CA0
:1008E0003670680E3270680E2E703C102A706010E0
:1008F00026707A0C22702C111E70A2111A70720CC4
:10090000641002980816B110076001D80A7108B87F
:100910007F78100C7E78641000C6B01F00218CB860
:10092000707801B007680F305CB30F330111C04815
:1009300006981A0211100768016821480760041020
:100940000112FF3221500760514807600088069865
:10095000E21200C44C1F002103DD087214BA2814EF
:1009600000A000BA03DF227100DF067228143119DB
:1009700053B080BB006B30380A7109DD06710298F4
:1009800060048CB8507800A04413281441158110DD
:10099000076002D8147110880698981B00C00C706C
:1009A00008400698FC1C0091069830020060B830A0
:1009B00020D8067190BC637C00C4E010084044124B
:1009C000076201322140084C287C084D5412F03255
:1009D00040DE0472404804DB08720DDD0C72044BEB
:1009E000EF30144806981E06811140D91C72B112CE
:1009F0003032CF4A013AB1DA107208D8067104D801
:100A00000871B04C237C3E70684C4412FF32872240
:100A1000047580B8D84C81D8307140D90472237CD9
:100A2000084B06981E0604BA88B9767900C118608A
:100A300008403579E049007906B904A901D82E7239
:100A4000BC4C307C0298020208D80C7107BA24D83A
:100A5000047106BA187004D80C7101BA40D80E712E
:100A600002BA0A7005BA20D8047203BA604C441165
:100A7000404C18140761181491113831114291112A
:100A8000076910D90472EF3200C1006008401411E8
:100A9000103101691142281408140698E21C181438
:100AA00000C10060084014110769FF31181400C12B
:100AB0001400084014111814076100C22060084097
:100AC0002412FF3204711049181430880248069825
:100AD000BC04009308DB047101F800A05CB00F3087
:100AE00000A01088B111076980D90A7100C1800087
:100AF00008400811009100A000C400010840441003
:100B000000A000C020300E40041104101050F472F8
:100B100000A001F8541000DC127101140698B80509
:100B200018B8707800B8417800F806980A0300C237
:100B300018500840241200C15C1F0021281106989B
:100B4000A21B2088008800C5501F00215415511297
:100B5000FF350762FF3206983A02015951290475A0
:100B60001159009021292075069818030698B8039A
:100B70000698C402009203D80C728111076102D951
:100B80000472FF0FBA7018B8727800F804D8427176
:100B90000088308800C0FC1F0021041000C15C1FC9
:100BA00000211412012A215A00C31850084034139E
:100BB000312A1A7500C00060084004100730FE207A
:100BC0000C76381108B87F78100C7E78009300906E
:100BD00000A000C0F41F0021041000BB1DB400A041
:100BE00001D8047200A0008800C0047008400410FE
:100BF0008020FF3006720298B40300DF06720113F2
:100C000016703111016B1159112B016300C1FF07DF
:100C10000000113B012B31B80268015831280876D9
:100C200005B86EBD2870E820087605B8C8BD1E70EE
:100C3000DCBDDC20067606B81470F020067607B816
:100C40000C70E820067608B8047009B800C100608E
:100C5000084014122C490732FE22167607680368F2
:100C600000C2FF0FFFFF1414213C0144481150BD86
:100C7000544914122155FF3551522811009000A0FB
:100C800002D8047200A000880698B8051DB4FFB908
:100C90003121112C408800C000600840041007304A
:100CA000FD20687500C20870084024100760FF30FE
:100CB00080DC58710698DC0B01591C4A241007602F
:100CC0000260FF300698DC0B0158B220012900C3F6
:100CD000EC1F002134155045327154133110069821
:100CE000DC0B11280A75042554155045EE727FB9A6
:100CF000066100C01C6008400698E81204155153B4
:100D0000113B315558100698E2120094009000A053
:100D1000EBBA00C04C1F00210411113A10D9067122
:100D200018B97479281000A009BA069830028024F6
:100D3000E42421383E7100C11C510840141100C345
:100D4000E81E0021911504351672181388BB08D8C7
:100D500004716C7B04D804716A7B2F7C1670044B81
:100D6000181388BB08D804716F7B04D804716D7B9D
:100D7000217C04DA0A720698720A04BAAE700698E8
:100D8000540600B8B111076940D906720298880567
:100D900000BC08D94071202400C1606008401112D5
:100DA00000DC0C71604A241210DA10710C707C4A5D
:100DB0002412076204DA04710449141200C180008D
:100DC00008407C0D2811076228110762281107626C
:100DD0002811600E00C1441F0021141200DC347180
:100DE00020D8067101B80C70F0DA0C720CDB0871B7
:100DF00002B80698AC05482400C33061084034139B
:100E0000076380DB0E7102B9911308DB047203B92A
:100E100006700C49141100C380000840FFB801207F
:100E200011410871014118130824014200C13830F2
:100E300008401411014100C0006008400410103047
:100E400091152035514001680141181328134813AA
:100E500000C37C000840341003D80C71073005DC57
:100E60000671084B227B8CB8507800B800C1441F33
:100E70000021141203682150F0300152281100A003
:100E80000824036400C0FFFF0100013C1DB01020D6
:100E90000158402806751EAC01EC00A0208800C057
:100EA0001850084004121DB4211304123052F87176
:100EB000036C082400C3841F002134101411069809
:100EC000FC0B0669009211592129067600BB1159C5
:100ED0000698C40B80B80158013A0662313B04728F
:100EE000215A412A00A000C200010840317A00A026
:100EF000308880B9076900C30000F8FF311031283D
:100F000000BC002D0C7511541EAC01EC312DF47099
:100F1000036C51134155312C009300A000C02840B0
:100F20000E400413315107610C3107691153381019
:100F300000A006985A0700C0F41F0021041106986B
:100F40005406217A237A00C3000010000698940604
:100F500000C0641F00211DB1181000A000C0601F58
:100F600000211DB118100698280600C0AC1F0021F2
:100F70000410012C0A7500B826A80698B80528B0F8
:100F800010B9115911380EB9114028A880B800C104
:100F900044300840081100C1F01F00211410303BFC
:100FA00006710760076000C4083008404411115002
:100FB000FF30015118146FB8076826A8217A260C53
:100FC00021102048267800C063EF0000314026A899
:100FD000260C20EC247A20EC217A184826A828B088
:100FE0000AB901510F31115028A8260C207A20ECA3
:100FF000720C98B84678417806983A0200C2501FA1
:10100000002124100151FF311150081200A0069850
:101010005A0700B826A800C0681F00211DB118108B
:1010200000A030B840780DB101D9FC72427800C000
:1010300074300E4004114CBA407A18101448041150
:101040005C7A1810A4BB707B4E7B4F7B00C20430CF
:10105000084000A006985A07217A227A00BB069819
:10106000940600C0741F00211DB11810A4BB00C05D
:1010700040300E400411033101492872B112076259
:1010800007623048041121510F3118726E7B6F7B5B
:10109000104804114CBA7C7A181014480411607A74
:1010A0001810B11002D81071707B30B86278607877
:1010B0000DB001D8FC7100C0F8600840041101D9DE
:1010C0000C7100C01800084002B9181008B86E78FA
:1010D0000EB84EB110D90C723EA8980C0FB83EA8AD
:1010E000107044A8980C01B800C1AC300E40081133
:1010F00000C077801F003DB201423DAA00C0FFFF43
:10110000FFFC013A3DAA980C00C077E01F000142A5
:101110003DAAFFB845207D7808B87E7800C12460DC
:101120000840141107610631087100B90698CE0F06
:101130000698E8120698081D02D906720698BC0A9D
:101140000698E21251140698B805F4B845784C0C8C
:1011500000C0701F00211DB118100298A80FFFB821
:1011600045205D7803B8076044A83EA800C1AC30B4
:101170000E40081110B807683DB101393DA908B803
:101180006F7800A046A800C0FFFF0000013B076386
:1011900056AB94BA437A01D91471013C47B300C0ED
:1011A000FE20FFFF013B314447AC637AFFB82120AA
:1011B000407802D90471607800A05FBC036C036CB6
:1011C000415C512C0698B8050698A20CB11007682E
:1011D00024D8387101BA06620698BE128CBC7F7C96
:1011E00008B86578911004D8187188B86E78577867
:1011F00000C06400084021780698F60F014008728C
:10120000427C0698F41202984A0A08B86C7820B812
:1012100059785B7800C0F44008407878797800C14C
:10122000D81F0021141040A83849141304494088DD
:1012300014140C4914118112076A006A01DA18713A
:1012400088B8577800C0DC1F0021041001610763D3
:101250000763076407640698BC0800944EB010D872
:1012600042724DB161B80158113840B102D90A72C9
:10127000604804BB41540870204802BB02BC4DA822
:10128000F8B87078BE0C3EB141413EA9F4B973790B
:101290007378717800C4F840084000C200410840EB
:1012A000227000C20000010044AA0A0D00C2000022
:1012B0000B0044AA00C41041084000C21841084075
:1012C00004BB587C260C597C0C24720C2FAB260CCA
:1012D000B11008D81471647A657A1CB879787B7873
:1012E00020B879787B78607CF424411306981E0638
:1012F00051140698B805727BFFB84D20260C68780B
:1013000040EC00C06C1F00211DB11810911004D8D2
:10131000147100C0C81E0021041080D806711CB8CA
:10132000737800F818B800C1E41E002100C21850FC
:10133000084024122811767800F8015053A800C004
:10134000B860084004110761076180D9047240EC5D
:1013500000C4F84008404EB010D80471182441135E
:101360000C23527C407B11512FA9260C797C4C0C0C
:1013700000C0000001020814787C260C507C08B8DC
:101380006D7800A0B11001D8047200A000C02870D0
:1013900008400411108800C100180040181044488B
:1013A0000411108878480411108800884CBA757AA6
:1013B00018103DB11088F4B842784420727828485B
:1013C0007378F8B873784FB200C4FFFF8080413A59
:1013D0004FAA01BC01644113076300C06C70084050
:1013E00003B918100110011001B9181001100110F3
:1013F0000110011068480411076101B80160003A4A
:101400000471044904D9047241520760003A04711E
:10141000084908D9047231520460003B0E7200631F
:101420000064314241424FAAB2704FAAF8B85378D3
:10143000182053782848527800913DA900900091D7
:10144000181000917848181000914448181000A016
:10145000115910D906710760076008D90471076037
:1014600004D90471036002D90471016001D90471C7
:10147000006000A010880411023006710761076146
:1014800000C0FFFF00001138009100A000BA01D891
:1014900006710148112A0069006001D8F67201380E
:1014A000F67200A08020FF30FF48812000A00413C6
:1014B00014122153FF333152281100A000C21850DA
:1014C00008402412115921290E7600C230500840DC
:1014D00024120121212900A006985A0788B85778BC
:1014E00000C5901F002150881C4D88BC00C0D01E34
:1014F0000021811101D91E71407C00950115044D18
:1015000050880C4DFFBB076B315B04110698F40B40
:101510003129F87506984A1C54150698081D01D9FA
:10152000087206988C0706700698EE0788BB547BF5
:10153000009500F8069896080E700698720A0698AC
:10154000960806980C110698460700C024600840CB
:101550000A78097800F810B902BA0698B412069809
:10156000A80F00C5901F002100F8911120310269D9
:10157000911204DA0E7200C1581F0021141101D912
:1015800006710698CE0F033288B900C3C81E002129
:10159000341300C4A810084003DE72727179A110E0
:1015A00020D80A7106988C070298740E80DB50715F
:1015B00002D84C7205B830880763076302DB2A71D2
:1015C00000C3AC0008403413066380DB047280481B
:1015D00000C3102008403413315B047240483128A6
:1015E000312802600814076800930814A110103015
:1015F0000248081400B808149110076008148CB849
:101600006278A11040D80671517900BA80DB3A7136
:1016100000C000000200003B307150884110344887
:1016200003DE04719048041508200411F8205810B6
:101630001C20217800C0A40008400E7810D9047244
:101640002E780698CE15009500C118000840308805
:101650000533054B1872184C03DE0471904C44148A
:1016600000C3FF1F0000413BFF233811076AB84940
:101670000698B60D0093076301330E71044908798B
:10168000097914102140081100C0C01E0021041364
:1016900008DB047200A000C104000840141208BB5B
:1016A000315B313A2811A44914120CBB076B31424B
:1016B00000C300FCFFFF313A28110449141243BB58
:1016C000076B314200C300F3FFFF313A281178481D
:1016D000041220424271E4490579247928492A7983
:1016E0007449144804133811BC490A790698E60B6A
:1016F00040BC076C213C0449141200C3FFBCFFFF2F
:10170000313A0CBB076B4143314228111C48069803
:10171000E60B04490E700698E60B0C48044906983F
:10172000E60BB84900C3BC1E00213413381100A0D9
:1017300000BD0698140210B903DC047100B902BAA6
:101740000698B41204D9067100405C7201B10769B1
:101750000F31811008D8147106DD0A710698140241
:1017600003DC08720698F41226700698F60FFFD86C
:10177000127206DD227188B84778457800B844783F
:101780005470911010D8087100BB0698D01220B880
:1017900002A806DD1072069896080698460701F81A
:1017A00040B802A800F800C0C81E00210413076357
:1017B00001DB227191100111076911388CB910D821
:1017C000087144790298740E02DBFA72A11328DBC7
:1017D000F47203BD06989C0F0698960800C5941FE6
:1017E00000210698140200BA03DC42720C4D00C0BE
:1017F000140008400410026800C3881F002134113F
:10180000112800C1306108401411076180D90C71A2
:10181000911108D90671FC23E04DF8233411069884
:10182000C40B00C10C5108400698D4055415212D55
:1018300000C0F8600840041101D9227100C0481F9F
:1018400000210410033001DC147200C014000840B1
:101850000411FB21087670BA036A212D06986A06E6
:101860000298F2089110015503355150011900A05A
:1018700000C1541F0021141001D8427101480760B3
:10188000FE200E75811020D8087100C1581F00215C
:10189000141101D9287100C024600840041221519C
:1018A00007610F3107691152281000C0006008401D
:1018B00004119112215120311152211900A08113DC
:1018C00080DB067201B800A000C30C500840341041
:1018D000063030727C4B34122C4B3410076007609A
:1018E00040302072811080D8DC713410014A0762C8
:1018F0000360803021508C480A717F2355233410B7
:10190000013000A00698960800BD06989C0F88B884
:101910004778457800B8447800C59C1F00215415CD
:1019200006986A060298F20800C374000840027B19
:101930000698F60FFFD8067208B8607800C200005B
:1019400002020698BE1200C5B81E002154122042A1
:10195000247100C0A000084043B907692141011269
:10196000C04A2114084C24130763016301DBF8719A
:101970002A7C1810784D541301DB5871044D541211
:1019800000B8F020013A03621DB400C00000FFFF60
:101990004128002A0A75012A00BC1EAC01EC212C4A
:1019A0001EAC4DB804DB04719AB85C4D541110881C
:1019B000044D541200C5FCA0004001F8042110524F
:1019C0000672009110881413036B3A15012C1EAC9B
:1019D000EC7000F800B900C29C1008401812244AAC
:1019E0000AB9181288BA507A517A577A8CB9427962
:1019F0005F7900A00698140207DC10729110002095
:101A00000A7506980C1102989A0C0698460701B9B7
:101A1000911004D8047100B900C2000002000698B9
:101A2000B41200BA00402A7100C0C81E002104117F
:101A3000076101D9127104D9DE728110076001D8E3
:101A4000D6718CB8647800C11C5108400698D40542
:101A500006980C1100C5A01F00215415212D0698D1
:101A60008C0700C5A41F002100F8811108D90C7152
:101A70000698F41220B802A800F806980C1100BDD0
:101A800006989C0F88B84778457800B8447800C518
:101A9000A81F002154150298F208041101211471A5
:101AA00088BA737A04200412281104200411012139
:101AB000F47200A006981E0600C0C01E002104108B
:101AC00002D8487100C140000840077926790760B4
:101AD00020D816714449141208BB315B313A2811E1
:101AE000444902BB06BC067001BB07BCE84914129E
:101AF0002153FF33315228112A792B791412FFBB5D
:101B0000314204492811B449481101F8911010D804
:101B1000347106980A03069818030698B80300C59E
:101B20001C51084054110698F40B00C5E01E00211A
:101B300054155129E27518B875788CB8447801B8F5
:101B400002A800F8B110076810D82E7100C0481024
:101B5000084000C3000008403114884C441134117F
:101B6000076101D9FA714412281007622810076230
:101B7000281007622810E87002984A02069830027E
:101B800011380472076A00BB00C1F01E0021141155
:101B900020390672417B00A00698E81200C2C81ED8
:101BA0000021241220DA0472617B88BA527A00A0E4
:101BB00088BA727A811204DAFC7200A088B86B7855
:101BC000577800C0640008402F7800A007630763BF
:101BD00090B9637900B902DB227102EC00C909B83F
:101BE00001D94E7200C2AC0008400E7A10D90472BE
:101BF0002E7A0698CE15E031076102EC00CD114532
:101C000002EC00CC01DB06710298D21803B8411136
:101C10000731FA211C760621911210DA087102DDD3
:101C200010721E7020B80698880B3038147208B8ED
:101C30000698A40500C0240008402978207800F800
:101C4000046020D806710298AC1402EC00CA05B8F2
:101C500023DA187104DBDA7120DAD67110DAD27265
:101C600090B8617800B801DA067202EC00C89111F0
:101C700010D9267100C1D41E002114111150FF305B
:101C80000C720661A110115002300A7180DB0A72D9
:101C90000AB89E708CB97C790768911111402111A6
:101CA000C0311140011990B8411120D904726578F2
:101CB000A11002D80672C0DA207190B8273123DD56
:101CC0000A726078411108D90E7225DD0A7121DD92
:101CD000087208DB0471627803B841110731087299
:101CE000A1152035AE7102DD3272A11120D9A47187
:101CF00002D92872CCDA9C72411140D9967206B88A
:101D000002DB1071046500C1102008401411112D70
:101D1000112D054D5C720298D21821114049C0D98D
:101D20004E71A03141154035016551410361076392
:101D300008DA1E7204DA38721049A11502350671EC
:101D400010DB0E7201340A7108DB247190B86778D9
:101D5000CC3211101A300ADC0872CCDE0471FD316D
:101D600000C00D0F0C0D06988A0B01D8607207B8E1
:101D70000298681300BA411108D90C7102EC00CA2C
:101D800005B830DAEC720734F031026101DA04711F
:101D9000014900C0F300A3E306988A0B01D8D07173
:101DA00000C09814406806988A0B4030014440DA1D
:101DB0000471204C04320162204A11100630006880
:101DC000014218310269114202988613204A00C06C
:101DD0000517085006988A0B1130014220880DDA49
:101DE000527100C1DE1B250180BC04DA107208DAD2
:101DF0000A7200C120841000E024A024FFBB076306
:101E00004143016401DA06711E49024B00C0381FCC
:101E1000002107633810BC2002DA127101B9115990
:101E2000A11380DB087100C100FCFF0118100298AB
:101E30005E1890BC437C00C4C81E0021441380DBA4
:101E40005271EFBA06984A0400920362DDDA8E728C
:101E5000A11105D93E7100C238100840241208248F
:101E600028140763076310DB267201D9227102EC84
:101E700000C804D9167104BA183008710060FD203A
:101E8000012A02EC00C8FF22FA7604DC067218B8B8
:101E900073780298D21800C50020084000C00417CB
:101EA000000008D904720A480815104D00B808D976
:101EB0000472FF200815084D00C00884000008D9EE
:101EC000087200C02083B8ED0815104D207D00A0D9
:101ED00000C0C01E0021041002D8067202984E00F5
:101EE00000C6B01F002100C1AC000840141211153B
:101EF000B44D076020D80A7204D82E720298901749
:101F000002EC00C820D8F67102EC00C8022002DC06
:101F10001471FD2021140154FF3441522811032073
:101F200004490A7901BB567004490A7902EC00C8D9
:101F300007DC747202EC00C8FD206C7502200421DD
:101F400021140154FF3441522811022002EC00CA2E
:101F5000FE22547502EC00CA04DA4C7103320122ED
:101F600006322113312A312A215B047002ECFF2250
:101F7000FC765414022448150449FF231FBA02ECCE
:101F800000CC4088213C4112FF2448112879012AC5
:101F90002815312800930698E81200C1A81E0021D8
:101FA000141201DA067102984E00014A28110698AF
:101FB000E2120268FC2000C1660200000698C40B11
:101FC00000B8F020013A03621DB400C00000FFFF1A
:101FD0004128002A0A75012A00BC1EAC01EC212C04
:101FE0001EAC408800C0240008400111A04908BA76
:101FF00001EC2C782811C0DBAE7200C1C01E00219C
:10200000141101D9A271108800C2020200000698C2
:10201000BE1204D9067101B902A900914DB804D9C4
:1020200004719AB8FFBA34220094212C1EAC00C26D
:10203000981E002124111088044A241200C5FCA017
:102040000040042110520672009110881413036B93
:102050003A15012C1EACEC7000C504000840207D30
:1020600002EC00CB00C2180008400123381200C265
:10207000A80008402411FFB80141181202984E0030
:1020800000B8011A00C0740008400278911017309F
:10209000011900C2020200000698BE1204D906719E
:1020A00001B802A800C0C81E0021041380DB06711D
:1020B0000298041340DB06710298B8198CBA7C7A36
:1020C00001DB5E7100C23C1F002124111114FF349A
:1020D00002EC00C8FF24FA7607610698980B0361AA
:1020E00011380F3003611114011141100698980B3B
:1020F00001D8087203B8029868137C4A02DB167193
:102100002410112811280698AC0B00C218000840B2
:10211000FF200812411007600698980B01D87C71C7
:1021200020BC10DB767100BB00C1381F00211415E4
:10213000C021112C5112076A0F320E7140885114C0
:1021400006982E194143009451120765036A0F3215
:102150000E714111511406982E19036C4143076505
:10216000513B00C1F41E00211411111231100F3027
:10217000127100BA046101D80471114200600FD8D5
:10218000F472311002601E30047201B8003A087215
:1021900004B80298681302986A1500C130610840BB
:1021A0001411076180D91C7102EC1DB002EC1DB145
:1021B0000158112800C140FBFFFF112806758CBA99
:1021C000637A00C0441F002104110F3103DD1A722D
:1021D00000C000600840041007D80E7200C0104014
:1021E000084004B9181000F80698E20F0698480451
:1021F00000B8477800F830885088FF34087102EC46
:10220000FF24F87002EC00CD141001BB5150FFD830
:10221000047131440760006B10DBF2710421FF226E
:10222000E4720F4C0095009300A000C1D41E002161
:1022300014100113FF330760FF3002EC00CA305264
:102240000A71FFDE06710CB834700C4910880698CC
:10225000E21C076911420091281155DC1A7102EC49
:1022600000CA005212710ADE0E714ADE0A7155DE92
:1022700006713052D27218B873780BB8029868138E
:102280000763076302EC00CA02DB0A7155DE9C712A
:1022900054DE987101DB267102EC00CA02EC00CA20
:1022A00002EC00CA02EC00CA02EC00CA02EC00CA4E
:1022B00002EC00CA02EC00CA0298D21802EC00C874
:1022C000076A014202EC00C8076A014202EC00C83A
:1022D000076A014204B800C1D01E00211414405204
:1022E0009C7204DBC27190B8637804491410FFBC7F
:1022F000013C0760076002EC00CA02EC00C902EC76
:1023000000CB076A3142076A21410F3302EC00CD4E
:1023100002EC00CA01D80872211302EC00CA07625D
:102320001142911110D9287121110F3103DD207252
:1023300000C1DC1E00211411FF31076A00230A715D
:10234000115306710AB868708CB97C791470211128
:102350000F31076A02DD5C7101DD067103DD4A722F
:1023600000880AB906982A1B00902111FF32FFDE6F
:10237000387120543872FC25187202EC00CA01DE54
:10238000107202EC00CA18DE087288B877781A70EA
:10239000066101D80472006180D90E714CBA477A87
:1023A0000698401B90B843780298D21804B8029857
:1023B0006813FF32FF24F6750BB906982A1B21100B
:1023C000E03001584128E675F83002601F32215A8A
:1023D0000125212DD875012AD47602EC00CAFF20F0
:1023E000FA764111073101B80698880B003ABE71A0
:1023F000B87001D8087106986E1B0470022106B8E7
:102400001159112DAA7500A011140CB901D80A7127
:1024100000640AB906986E1B03BD514400C5A8109C
:102420000840481507644815181501D80472381576
:102430000764481500A00088408800C0DC1E002109
:1024400004100760FF3000C4383008404414412CA9
:10245000047201244050047201210094009000A0F5
:1024600000C1CC1E0021141100A030880698BA1CAF
:102470008111076102D906720298461C076188BB68
:10248000557B20D906710298301C0698981B0821AC
:102490001415FC2500C30060084034130733FE23E5
:1024A000107501BB381581131033067118BB717B91
:1024B000EC25541300DF5871211120880698F40B85
:1024C0000092042554155129467500C1006008404A
:1024D000141102DB0C710731315B312932760C703B
:1024E00004DF0872006180D926720698981B00C02C
:1024F000087008400698FC1C0698981B1411FFD918
:10250000067218B9717988B9747908B96779009336
:1025100000A08110A0D8087188B94979647007605B
:1025200002D85E710698981B111000880820069842
:10253000E8120762076210DA06710415F02504201C
:102540000698D21100911088082114100698D21113
:102550000094441111120761FF31FF320122105221
:1025600010720769181404244413042438141270D8
:102570000769214118141C20082408140698E21247
:1025800000A088B900C3C81E00213413076308DB0C
:1025900018718113A0DB067149790E7069790763A0
:1025A00002DB067208B9677900A08111076102D9C0
:1025B000107188B975790698981B1411FF3100A025
:1025C000FFB900A0041008211411F421081100A083
:1025D00081110761076110310E710698981B08215F
:1025E0001411F821141100A048070000193F01063A
:1025F000041001000001010600102700000C00007B
:102600000000000000000000060000001CC7710070
:1026100000000000EC250000200800000000000081
:1026200018CC660080DE800240420F0001010000ED
:10263000E338000200000000000000000600000077
:10264000388EE30000000000EC25000028080000A0
:1026500000000000E070720080DE800280841E00B6
:10266000010100001149000200000000000000000C
:10267000060000000000800000000000EC250000C3
:102680003008000000000000201089000048E80128
:1026900040420F0001080000F93D00020000000068
:1026A00000000000060000000000800000000000A4
:1026B000EC25000038080000000000002010890010
:1026C0000048E80140420F0001020000F93D00020D
:1026D0000000000000000000F01F02013F00370072
:1026E00000000000FC1F01010000000004000200C7
:1026F000018101000001000018000200000000003C
:10270000010000002800030000000000000000009D
:1027100000000000A4000300FF4C0000FF4D00007B
:10272000FF4D0000002001000807000010200100FC
:10273000AAAAAA00182001000060DA0008300100EF
:1027400013AC0001343001000100000040300100F2
:1027500000000000A04001007A27000FF4400100B3
:10276000201000003441020080080000E6870000CD
:1027700044410100C0E6524D6041040000000000E9
:1027800000000000060000000600000014600100C8
:10279000100000002860030000000003000000009B
:1027A0000000000060600200294176710000000016
:1027B0004C610100010000002070040000000000D6
:1027C0008200000000008001D50000004870020077
:1027D0003C3D0000BC1900007870010006E0490093
:1027E000FFFFFFFFF81F010108260000340004006E
:1027F000000000000000000000000000A007000032
:102800004800010000000000540002000000000029
:1028100000000000A0000100FF4C0000303001006B
:10282000E3381000B840010000C0830040410100BF
:102830006D00880018600400000000C61FC0010081
:1028400000500000008000005060040018000500E7
:10285000410C0000080000009100040078600C00AA
:102860008C000C000000000014001A0000000000A2
:102870000000000001040B192C404C59605B5347C9
:1028800036251B114AF338966745231211090000BB
:10289000E46007008F0846CB0000000023086404B2
:1028A000D007CB4891200600F9541C008294EA8797
:1028B0000461030051551100B01B000089BB0000EA
:1028C00020610100FFDF000030610700E853FA00DB
:1028D00000000000000000000000000000000000F8
:1028E00000000000000000001470011000F8070054
:1028F00014700130F800000018700200000300009E
:102900006000A58370700200054100000F9C030069
:10291000FFFFFFFFF81F01013C2600003400040008
:10292000000000000000000000000000A007000000
:1029300048000100000000005400020000000000F8
:1029400000000000A0000100FF4C0000303001003A
:1029500011491000B840010000C0E30040410100EF
:10296000EA00880018600400000000C61FC00000D4
:102970000050000000D0320050600400FC006900EC
:10298000410C0000000000001100080078600C00FD
:102990000804000000000000BE031A000000000050
:1029A0000000000001040C1A2F4653616862584968
:1029B00035201407C491A063564433232252922435
:1029C000E46007008108A1CB00000000198407051E
:1029D0009411CB4899200600016120008294EA8777
:1029E0000461030065B611001E37000089BB0000BA
:1029F00020610100FFDF000030610700E853FA00AA
:102A000000000000000000000000000000000000C6
:102A100000000000000000001470011000F8070022
:102A200014700130F802000018700200000300006A
:102A30006000278470700200C30000000F9C030038
:102A4000FFFFFFFFF81F01017026000034000400A3
:102A5000100000000000000050ED002020070000E2
:102A60004800010000040000540002000D0F0000A7
:102A700001010000A000010003C00100303001008E
:102A8000F93D1000B840010000C083004041010042
:102A9000E900880018600400300000461F080400A8
:102AA0000020001000500A005060040018000500CB
:102AB000000A00000A00800011000A0078600C0083
:102AC0000F04000000000000140012005B948C1B37
:102AD0000000000001040B192C404C59605B534767
:102AE00036251B114AF33896674523121109000059
:102AF000E46007008208BA8C0000000064048207CA
:102B0000AC0DCB0C90200600F9541C0082940AC72F
:102B100004610300C7EF1100A01B00000A88000039
:102B200020610100FFDF0000306107004CD4E83B6A
:102B300004196F00080E141A20262C32383E103269
:102B40005476980A1D5F00001470011000F8070009
:102B500014700130F800000018700200000300003B
:102B60006000A58370700200060102000F9C030044
:102B7000FFFFFFFFF81F0101A4260000340004003E
:102B8000100000000000000050ED002020170000A1
:102B90004800010001040000540002000D0F000075
:102BA00001010000A000010003C00100303001005D
:102BB000F93D1000B840010000C083004041010011
:102BC000E900880018600400300000461F08040077
:102BD0000020001000500A0050600400180005009A
:102BE000000A00000A00800011000A0078600C0052
:102BF0000F04000000000000140012005B948C1B06
:102C00000000000001040B192C404C59605B534735
:102C100036251B114AF33896674523121109000027
:102C2000E46007008208BA8C000000006404820798
:102C3000AC0DCB0C90200600F9541C0082940AC7FE
:102C400004610300C7EF1100A01B00000A88000008
:102C500020610100FFDF0000306107004CD4E83B39
:102C600004196F00080E141A20262C32383E103238
:102C70005476980A1D5F00001470011000F80700D8
:102C800014700130F800000018700200000300000A
:102C90006000A58370700200060102000F9C030013
:102CA000FFFFFFFFE4270000809C2B8F80841E0025
:102CB000000000002400FF7FF0B70020E4270000A0
:102CC000809C2B8F80841E00000025002500B4000E
:102CD000F0B70020E4270000809C2B8F80841E002A
:102CE0000000260026009900F0B70020E42700002D
:102CF000809C2B8F80841E00000027002700FF7F10
:102D0000F0B7002014290000809C2B8F80841E00C7
:102D1000000000002200FF7FF0B70020142900000F
:102D2000809C2B8F80841E00000023002300B600AF
:102D3000F0B7002014290000809C2B8F80841E0097
:102D40000000240024009D00F0B70020142900009A
:102D5000809C2B8F80841E000000250025007D00B4
:102D6000F0B7002014290000809C2B8F80841E0067
:102D70000000260026005300F0B7002014290000B0
:102D8000809C2B8F80841E00000027002700FF7F7F
:102D9000F0B70020442A0000809C2B8F80841E0006
:102DA0000000000027008C00F0B70020742B00000A
:102DB000809C2B8F80841E000000000027008C0068
:102DC000F0B70020D826000000000000A42C00006E
:102DD0000400000000000000D826000000000000F1
:102DE000042D00000600000000000000D8260000AE
:102DF00000000000942D0000010000000000000011
:102E0000D826000000000000AC2D000001000000EA
:102E1000000000006C888391AAF5A53860370BDBB1
:102E20005A6083BE3F49F6D4A3C55F3874C9B3E383
:102E3000D2103F504AFF607BEB40B7995899B8A633
:102E4000CD3C1ABDE69D350E480103CCDBFDF4AC4C
:102E50001191F4EFB9A5F9E9A7832C5E2CBE97F286
:102E6000D203B0208BD28915D08E1C742430ED8F04
:102E7000C24563765C15525ABF9A32636DEB2A6580
:102E8000499C80DCBF01FB9D4EF3BC36D874F539FC
:102E90004138684C000001000100000100010202FD
:102EA0000300020000000000020201000200000016
:102EB00000000100010005010005020203000200FC
:102EC00000000000020501000500000000000102F2
:102ED00002000000000000000606010203120100CB
:102EE0000B0701160C00000108080000050108FF8F
:102EF000FF02FFFF0808020204FF0100000800FCB7
:102F00003C2F000001000107C42F0000000800F85A
:102F1000802F00000000000000000000000800FCFE
:102F2000D42F0000010001075C300000000800F809
:102F3000183000000000000000000000C800FCFE87
:102F4000FC00D80A066CFBFF8800370518E2FEFF7C
:102F500053000403F5E3FFFF3200B9019D43000075
:102F600029005701F85700001600D10058570000FB
:102F70000E007C00D049000007002800172900003F
:102F8000C800FCFEF800C50A571EFBFF7B00950435
:102F90007C02FFFF4A00B60246DFFFFF2D00AD01B5
:102FA000412F00001C000701854700001200A70008
:102FB000974600000B0067001A3C00000600220044
:102FC0006823000083FFBFFFE2FFF1FFF9FFFEFF70
:102FD000000000008C00FCFEFFFF0000000000006D
:102FE000FC00D2104C06FAFF75009B05F132FFFF82
:102FF0003E0062020B35000025004B01885F000097
:103000001700E0005E5D00000E008C006A4F0000BB
:1030100007002500832800009600FCFEF8006D23C1
:10302000441FEEFFC700F20E8E37FAFF5C00A403C8
:1030300024A7FFFF3200D601AD3400001F0030018D
:10304000004D00001200C000CA4A00000B006E00D4
:10305000F73C000005001F002F20000083FFBFFF8A
:10306000E2FFF1FFF9FFFEFF0000000000000F404B
:103070000000000000040F40010000004145532DF6
:103080003132382D454342004145532D3139322DDF
:10309000454342004145532D3235362D45434200CC
:1030A0004145532D3132382D435452004145532D63
:1030B0003139322D435452004145532D3235362D8E
:1030C000435452004145532D3132382D43434D0076
:1030D0004145532D3139322D43434D004145532D48
:1030E0003235362D43434D0002000000C7CD0200AB
:1030F000CBCD0200E5CD0200E1CD0200E9CD02001A
:1031000003CE020002010000800000007C300000BD
:10311000000000000000000010000000E830000087
:1031200003010000C0000000883000000000000023
:103130000000000010000000E83000000401000062
:1031400000010000943000000000000000000000BA
:1031500010000000E83000000B05000080000000B7
:10316000A03000001000000000000000100000006F
:10317000E83000000C050000C0000000AC3000008A
:10318000100000000000000010000000E830000007
:103190000D05000000010000B83000001000000024
:1031A0000000000010000000E830000002000000F5
:1031B000000000000000000015CE020015CE020045
:1031C000A7CD0200BDCD02002B080000800000004A
:1031D000C43000000C0000000100000010000000DE
:1031E000AC3100002C080000C0000000D03000000E
:1031F0000C0000000100000010000000AC310000D5
:103200002D08000000010000DC3000000C00000070
:103210000100000010000000AC31000002000000BE
:103220000431000003000000203100000400000011
:103230003C3100000B000000583100000C00000081
:10324000743100000D000000903100002B000000E0
:10325000C83100002C000000E43100002D00000007
:10326000003200000000000000000000FFFFFFFF30
:10327000FFFFFFFFFFFFFFFF000000000000000056
:103280000000000001000000FFFFFFFF4B60D2279D
:103290003E3CCE3BF6B053CCB0061D65BC8698765E
:1032A00055BDEBB3E7933AAAD835C65A96C298D81B
:1032B0004539A1F4A033EB2D817D0377F240A4635F
:1032C000E5E6BCF847422CE1F2D1176BF551BF3768
:1032D0006840B6CBCE5E316B5733CE2B169E0F7C3B
:1032E0004AEBE78E9B7F1AFEE242E34F512563FCD7
:1032F000C2CAB9F3849E17A7ADFAE6BCFFFFFFFF71
:10330000FFFFFFFF00000000FFFFFFFF80B500F0A0
:103310006DFA800A10F0010002BD2DE9F0470400AB
:103320000D0016004C275FF00008DFF88894CA46AD
:1033300042463900504600F061FAC9F82440C9F805
:103340002850C9F82C60BDE8F0872DE9F843040047
:103350000D00DFF86064F07800070CD5F078C00647
:1033600009D52000C0B2002805D0F079002802D08D
:10337000307A642806DB2900C9B22000C0B200F010
:1033800070F946E0307A002805D12900C9B2002042
:1033900000F067F93DE0F7794FF47A70474300F0A9
:1033A00060FAB0FBF7F807FB1808642000FB08F090
:1033B000317A01FB07F188420CD2F07850F04000DE
:1033C000F070307A00FB07F06421B0FBF1F9B9EB43
:1033D000080905E0F07810F0BF00F070B7EB0809BD
:1033E0000021002000F03DF9F07850F02000F0704E
:1033F000F078C0B2800910F0010000F053F900200D
:1034000000900FF215030122494616F10C0000F05E
:1034100035FBBDE8F183000070B504000D00160017
:10342000DFF89023D078C0B2400910F001000028E6
:1034300007D09178D078C0B2400810F00100FFF7B3
:1034400084FF70BD10B504002000C0B2002805D074
:10345000DFF86003C07810F0010000E00020C0B287
:1034600000F0DFF810BD2DE9FC4705000E00170045
:103470009846FFF74BFF002859D000F079FB8146B2
:10348000DFF830A39AF8030010F0240F12D09AF856
:10349000030010F0FB008AF803009AF8030010F014
:1034A000DF008AF803001AF10C0000F0F1FA0020A6
:1034B00000F0F8F89AF8030067F304108AF80300A4
:1034C0009AF80300C0B2000910F00100002000903B
:1034D0000FF21D130022BAF80010691A1AF10C003D
:1034E00000F0CCFA0400002C06D04146C9B23000EE
:1034F000C0B200F0B6F817E09AF8030050F00400EC
:103500008AF803009AF8030066F341008AF8030082
:103510009AF80300C0B2400810F001008AF8028057
:10352000FF21002000F09DF8484600F025FBBDE893
:10353000F3872DE9F04104000D001600FFF7E6FEC9
:10354000002852D02000C0B201280ED12800C0B2FD
:1035500000280AD1DFF85C0290F83810C90704D5BA
:1035600040793100C9B288423FD300F001FB070027
:10357000DFF8408298F8030010F0240F17D02000E5
:10358000C0B2002813D12800C0B200280FD198F88B
:10359000030010F0FB0088F8030098F8030010F017
:1035A000DF0088F8030018F10C0000F071FA88F8C9
:1035B000026098F8030065F3041088F8030098F897
:1035C0000300C0B2000910F001003100C9B22000B0
:1035D000C0B2FFF7BAFE2800C0B2002802D1002016
:1035E00000F060F8380000F0C7FABDE8F081000094
:1035F00070B504000D0016006E4AD078C0B2800885
:1036000010F0010000280BD0D07810F0FB00D07033
:103610009178D078C0B2400810F00100FFF795FE15
:1036200070BD70B5040000F097F805002800C0B226
:1036300000F0CAFA2800C0B2002801D1012100E040
:1036400000215C4EC9B2706A00F053FB2000C0B28A
:10365000002805D02800C0B2002801D1B06A8047F8
:1036600070BD38B504000D00524880792900C9B2F8
:10367000884209D22000C0B2012805D12900C9B270
:10368000002000F037F80CE02900C9B22000C0B2D9
:1036900000F030F82000C0B2002802D00020FFF770
:1036A000C0FF31BD10B504002000C0B2002801D019
:1036B000802100E000213F4BD878C0B2C009C0B2E1
:1036C000002801D0022000E0002000220143C9B2FE
:1036D00013F1400000F072F810BD10B50400E006D0
:1036E00002D5012000F070FAA00602D5002000F0FB
:1036F0006BFA10BDF8B504000D002E4E307910F0B5
:103700000100002806D070792900C9B2884201D38F
:10371000012700E000273900C9B22000C0B200F044
:103720003EFA2000C0B200280FD03800C0B20028F6
:1037300001D0022100E000211F4A51F03101C9B23D
:1037400016F1340000F03AF805E00022002116F1ED
:10375000340000F033F8F1BD80B500F047F8000BFD
:1037600010F0010090F00100C0B202BDF8B50600F3
:1037700014001D002000400608D50E4890F83810AF
:10378000C90703D481780120FFF7B4FF4BF2090089
:1037900004420CD0074F6946786A00F035FD9DF869
:1037A0000000042803D0B9780020FFF7A3FF200011
:1037B0002900F4BDFCB80020DB3600007FB5040012
:1037C0000D001600DFF830201068002801D0002C12
:1037D00001D1002008E000948DF80450029669465B
:1037E000106800F02FFD012004B070BD0148806812
:1037F0007047000070BA00206CBA002062F30F22FC
:1038000062F31F42401810F0030308D0C91A1FD3F7
:10381000DB0748BF00F8012D28BF20F8022D130058
:1038200030B414461546103928BF20E93C00FAD8B8
:10383000490728BF20E90C0048BF40F8042D890043
:1038400028BF20F8022D48BF00F8012D30BC70477A
:10385000C91818BF00F8012DCB0728BF00F8012DAB
:10386000704701F0B5BE10B5044602F062F820B909
:103870002046BDE8104002F035B810BD2DE9FE43EA
:103880000A9E04460D4690461F4600F071F9814697
:1038900000F03EF802960020019000970023424677
:1038A0002946204602F046F80446484600F064F9EE
:1038B0002046BDE8FE8370B5044600F059F900F0DB
:1038C00026F8204602F014F9002500B901253046FB
:1038D00000F052F9284670BD38B5044600F048F9AA
:1038E000054600F015F8204602F01EF909E038B54B
:1038F000044600F03DF9054600F00AF8204602F0C3
:1039000019F90446284600F037F9204632BD06462C
:103910002046A8E770B504460D4600F029F9FFF7E8
:10392000F6FF2946204602F00CF90446304600F026
:1039300023F9204670BD000000B10C30704770B50F
:1039400004000D4602D0564E307808B1002070BDFC
:103950007460204600F0BDFA2946204600F075FA52
:10396000002814BF01210021317070BD0120704773
:103970004C480170012908BF01F072BE0020704759
:1039800001F079BE0A4647490B78012B18BF002386
:103990000146184601F08CBE00F03ABE08461146BA
:1039A00000F0ADBA70470846114601F01BBE3E4913
:1039B00010460A68130000D1704710B54FF0FF346D
:1039C000A24204D000230B60BDE81040104710BD98
:1039D0001CB5354C22600A46022A04D1201DFFF78F
:1039E0006AFF002016BD00930146304B201DFFF7F3
:1039F00045FF0028F5D0022016BD00212C48FFF716
:103A000089BF2B48FFF757BF2948FFF765BF80B52F
:103A10002548016811F1010F01D1002002BD001DF0
:103A2000FFF75AFF401E8041C00F02BD02207047C1
:103A30000020704700207047012070470020704729
:103A400000000000F8B5164D35A60446A86800B978
:103A5000304600BF3CA7B8420CBF01200020844282
:103A60000AD0287820B101F025F908B10020F2BD74
:103A7000002C14BFAF60AE600120F2BD38B5084C19
:103A8000A46804B926A4049D00956469A04732BDCA
:103A90000349D1F8081001B921A18969084700003C
:103AA00024E000204EF2002030B70020AF390000A3
:103AB00034B7002038B500F02FF82A462146BDE87B
:103AC000384000F03ABF70B500F00AF800F004F892
:103AD000BDE8704000F03CBF33462A46214670479F
:103AE0000C4615461E4627E7002370B5FFF7F8FF82
:103AF000FFF7F2FFBDE8704000F085B880B501F037
:103B0000DBF9002002BD38B500F006F82A46214650
:103B1000BDE8384002F041B80C4615460CE70000FD
:103B2000F54B00006D4C0000754C0000994C0000F6
:103B3000B54C00002D3A0000313A0000353A000043
:103B4000393A00003D3A0000D1390000FB3900004D
:103B5000033A00000F3A0000093A00007D380000E7
:103B6000B7380000D9380000EF38000015390000E0
:103B7000EFF3108072B67047002800D162B670472C
:103B80001E4A117E002900D0401C0100C9B252F823
:103B90002110491C0300DBB242F82310704770B5B6
:103BA00004000D002000C0B200280AD0134E357664
:103BB000FFF7D2FD7076B07E002802D10020FFF71B
:103BC000DFFF0E48847670BD10B504000B49887E77
:103BD000002811D02000C0B2002802D00120487671
:103BE0000AE0002088765FF0FF30FFF7D5FE052859
:103BF00002D10420FFF7C4FF10BD000044BA00202A
:103C000000B10C30704770B51446D2B2032A1D467D
:103C100001DB012070BD89B200F0E7F906000FD189
:103C20000121012000F06BF9002001F0D2FFE0B289
:103C300018B9284601F056F902E0294601F05DF96D
:103C4000304670BDFEB500F01CF82046FFF7D8FFE7
:103C50000646F76F38000ED16946204600F041F85D
:103C60009DF800102A46204601F0C6FF0146304666
:103C700001F0BCF8FEBD0023002229463046B847BB
:103C8000FEBD04460D46002001F0A3BF3EB504462C
:103C9000FFF7B6FF05466946204600F022F82846A1
:103CA00001F002F9FF28024601D163483EBD9DF8AC
:103CB0000010204602F004F83EBD38B50D4604461B
:103CC000688801F086FF2046FFF79AFFC16F09B1AF
:103CD000022032BD2946BDE8344001F063B801F04E
:103CE00079BF10B500F00DF82146BDE8104001F095
:103CF000D1B810B500F005F82146BDE8104001F03C
:103D000023BD0C467CE72DE9F343814683B0904602
:103D10001D46002609F1B104ADB1A178002976D184
:103D200000F079F820789DF80410814205D08DF8D4
:103D3000040001A9484601F035F82A786178484620
:103D400001F088F863E0B8F1000FA9F10C0509F162
:103D5000F60724D100F05FF8BDF81000388001AA02
:103D6000D9F86C3004A9284602F002F806004ED1BA
:103D7000BDF910209DF80410284601F03DFF0446CF
:103D800001A9484601F00EF8060040D121464846F8
:103D900001F02CF80646BDF81000788037E0B8F93D
:103DA0001200B9F9F6108842C8BF0846ADF8000005
:103DB000434601AA6946284601F0DAFFA070BDF922
:103DC0000010B8F912008842C8BF0846ADF80000DC
:103DD0009DF80400032804BF0121A170A07840B120
:103DE000BDF90000B7F90210884202DA00F013F8BA
:103DF000A670BDF80000788028469DF80410217058
:103E0000BDF900209DF8041001F0F6FE6070304608
:103E100005B0BDE8F08301A809F1A801062201F070
:103E2000D3BF10B5FFF76DFF002C14BF034900216D
:103E3000C167002010BD00000080FFFF073D0000AB
:103E400000B10C30704701F0C3BE38B50D460446D2
:103E5000002101F0BAFE2946204600F000FB08B11F
:103E6000002032BD204632BD70B50D00064614BF9D
:103E7000012400241F21204601F0E2FF284601F022
:103E8000AAFE002086F8C400F066B5661F21204611
:103E900001F0D6FF4FF6FF740020E96888420CD28B
:103EA000AA68182111FB00F11144C989A14201DA65
:103EB0000C0002D0401CC0B2EFE7DFF8A0020021E6
:103EC000016041603046214600F08FF8204670BD09
:103ED000704710B5044600F05DFB002C0CBF0020BD
:103EE00004F10C00406F0100DFF8701208BFDFF82A
:103EF0007002886010BDDFF864020068704710B57A
:103F00000C4600F061FB1CB100F082FB0128FBD1E4
:103F100010BD10B500F06FF92146BDE8104001F06A
:103F200063BB00002DE9F04BC26E1AB103898AB25F
:103F30009A4251D0846E002C1CBFA268002A01D086
:103F4000E26812B90320BDE8F08B0025D0F87C8030
:103F5000A9460F46CB4606460021E06881453ED281
:103F6000A26802EB0B00BAB2C3899A4222BF028A4E
:103F7000BBB29A4218D305465FEA0800B5F9122091
:103F800003D0B6F9F600824229DAFF2047F6FF7324
:103F90009A4205D096F8A810A6F10C0001F02CFE6C
:103FA0003279904201461AD209F101090BF1180B3E
:103FB000D3E75FEA080004D000232A4600213046F8
:103FC000C04706F1B8032A46B9B2304600F0A2FF56
:103FD0003781F56686F8B4400020BDE8F08B002DEF
:103FE0000C46E6D10120BDE8F08BF0B581B0044667
:103FF0000D4601F031FF0646A9B22046FFF792FFB9
:10400000070006D100230022A9B2204600F007F8DD
:104010000746304601F024FF384601B0F0BD2DE9D7
:10402000F84F06460F46904601F0ECFB4B4DB5F8B5
:104030000CB0002401F001FC4FF0000AA14618B1B9
:104040006C6001F0F5FB03E05FFA88F000B16C6092
:10405000F06E6968884205D120B1B8B2584508BFF2
:10406000002075D000F0D4FA012803D001210120EE
:10407000FFF745FF2868E0B1B26E904209D1696848
:1040800039B1F36E994204D1B8B283451BD00124F3
:1040900019E0016869B1126891420AD1F16E0A68AB
:1040A00069684FF0010911B1096891420BD041686C
:1040B00005E0F06EB16E026809684FF00109304604
:1040C00001F0CBF98246D6F87CC0BCF1000F0BD1D1
:1040D000317996F8B4009DF80020814288BF0146EE
:1040E000304600F0B7FE04E06B4600220021304667
:1040F000E047BAF1000F5FFA88F814D1B06E28607B
:1041000044EA0804F16E696059EA04040BD049EAF4
:104110000800411E8941BFB2C943EF60C90F304654
:1041200000F029FF824659EA080010D0BAF10100D8
:104130008041C00F332101F083FE9DF8001030460E
:1041400001F09AF9F16EAA68A6F10C00904750466A
:1041500001B0BDE8F08F0089704700004CB7002027
:10416000D13E000001281CBF0428022801D10120F3
:1041700070470020704738B500F039F840B16878D2
:10418000FFF7F0FF20B1297868780143490701D58E
:10419000012032BD00F03CFA400701D5022032BDBB
:1041A00029462046BDE8344000F0C9BD10B500F0F6
:1041B00022F82146BDE81040DDE738B500F017F8D9
:1041C00038B16878FFF7CEFF00281CBF6878042854
:1041D00001D1012032BD00F01BFA800701D5022079
:1041E00032BD29462046BDE8344000F0B5BD0D463D
:1041F00004462878B6E70C4622E610B5FFF7FBFF29
:104200002146BDE81040D8E710B5FFF7F4FF21467E
:10421000BDE8104000F0ADBDFEB5DDE9086714460D
:104220001D46FFF70DFECDE9006722462B4600F044
:1042300074F9FEBD80B5FFF703FEBDE8024000F053
:104240003CBD000170B504000D0001F005FE060044
:104250002800A047300001F003FE70BDDFF82C27D6
:104260004FF400111160007918B1DFF858070121EF
:1042700001607047014601220868096A00F00700E2
:10428000801D02FA00F0C1F30C01401A80B27047A1
:10429000DFF8341704230A68C000834013EA0200E1
:1042A00018BF0120C0B270470422C90002FA01F110
:1042B00018B1DFF8DC0601607047DFF87027116085
:1042C0007047072101F07EBE012101F07BBE085C32
:1042D0007047704770B5D0E9364522402B40002624
:1042E000B34208BFB24204D0DFF8E0168C680C3845
:1042F000A04770BD48B1DFF8D826DFF8B0376FF0BF
:10430000FF01000A116000021860704700F01802F7
:10431000182ADFF89C1708BF002007D0020748BF03
:10432000012003D4C20603D540F201100860704793
:1043300000220A6070472DE9FC419046DFF8942680
:10434000DFF888661268002A0CBF002702F10C070C
:1043500004460D46DFF8D80680212040294000227F
:104360000023994208BF904244D0002C0BD5DFF8BF
:10437000C4160A6802F07F42B2F1007F03D1DFF871
:10438000B81602200860E00727D5019300930022A9
:104390000120002102F0CAF8012003F04EF97881D3
:1043A00000210120FFF7ABFDDFF8900601684A020B
:1043B0000AD4397F4FF400100A0647BFDFF8D01641
:1043C0000860DFF8C8251060B069FFF793FF002090
:1043D000B061397841F00401397005F080030021A3
:1043E0008B4207D00121384603F0B2F925F0800551
:1043F00004430D43D7E9360104400D4000229542A5
:1044000008BF944214D0B16822462B46A7F10C0095
:104410008847200744BF0021F161DFF8DC2608232C
:1044200022402B40002083420CBF824201F0D8F989
:104430005FEAC87008D50122F16832700020F06090
:104440000A001CBF3069884718F00E0F05D0BDE880
:10445000FC413B21002001F0F3BCBDE8F381FEB537
:1044600004000CBF002704F10C070D4607F1900073
:10447000032101764FF0FF324FF6FF71A7F8F210DB
:10448000C7F808216423038043808380C3800381AD
:104490004381FF20DFF86426B87178713871B981E3
:1044A0001180112003F0B0FC042803BFDFF8500690
:1044B000016811F4403F02262DD1384602F0CFF8B2
:1044C000384601F087F8DFF828186020086007F503
:1044D0008871384600F004FE0646FA694FF0FF3155
:1044E000384600F00FFB0E2701974FF0004200976F
:1044F00080231046802102F019F804F0DAF9300028
:1045000003D1204604F0BAFC0646280003D0300050
:1045100004BF2046A8473046FEBD2DE9FF420446B1
:10452000DDE90A67D4E936019043994306EA0205BA
:1045300007EA0309284341EA0901C4E936010025D5
:1045400022F0010023F00001019506400F40009584
:1045500046F0004247F0800301F0E8FF2578E807C5
:1045600014D5D4E9362303F080010027B9420DD0D9
:104570004FF48031204603F0EBF8227802F0FE027F
:1045800022700B4602462046FFF7A4FE002004B02E
:10459000BDE8F082006808B9DFF81407DFF82C14D2
:1045A0008860704711F0F00F01D001207047DFF8EC
:1045B000D807026861F3030200F0D8BBDFF8CC072C
:1045C00000F048BF00000000F8B5002400250026D8
:1045D000032815D8DFE800F003021518012401F0C4
:1045E0003BFC07462946204602F099F93246294607
:1045F000204602F0C3F93846BDE8F24001F030BC75
:10460000F1BD01240125EAE7012401250126E6E7A1
:10461000DFF880030168090E01F00F01491E0B2924
:104620000DD8DFE801F006060806060606120A1293
:104630001212022070470320704705207047DFF8F0
:104640005007016811F0060F01D0042070470120C7
:1046500070472DE9F84F0746884692461E4604F0FB
:1046600094FCF6B2002E04460FD0384600F0BFFE90
:104670004CB1DFF82007016800910023042269464D
:104680003846FFF7E6FF7878002800F09C80DFF8D6
:104690000867DFF808270020306240F6FF711160DC
:1046A000B06A01077DD5800A10F0010041468DF8FF
:1046B000000014BF02240324002098F80190FFF7A3
:1046C00006FE0025800609EB040726D4414600209B
:1046D000FFF7FDFD07280CBF4FF0010BAB4641462D
:1046E0000220FFF7F4FD10F03F0118BF01211BEA83
:1046F000010F19D041460320FFF7E9FD01460422CE
:104700004B088008C90703F0010300F0010048BF0F
:104710000A2203B1921D38B100E002224146D0B214
:10472000FFF7D5FD00F01F05290018BF0121641E09
:104730007461A9F10100B061EA19781EF061521E9E
:10474000032F94BF002001200142726214BF6D1E2E
:1047500000253562FF1D4FF4FA529DF800105743B3
:1047600031B100280CBF40F27120DFF85C0705E092
:10477000002814BFDFF85407DFF85407C21902F508
:10478000804202F1D80001F0F5FBF062DFF8440747
:1047900001683268136821F0300141EA03110160B9
:1047A00011E0384604F0F1FBFF260028DFF8281757
:1047B00014BF0320FF2008604E6098F80100DFF866
:1047C0001C17401C08601FFA8AFADFF8646830463C
:1047D000FFF750FD824588BF82465246414630462B
:1047E00004F024FD5046BDE8F28F7CB50546DFF8A5
:1047F0004C020E46016811F0A00F144615D14FF47B
:104800000061284602F043FD40B1DFF8D4164FF4B2
:104810000070086001210120FFF771FBB1B228464A
:10482000FFF7E3FB010002D076BD022076BD2878B9
:10483000810600D434B3600800F0010000F00FFCE2
:1048400004F0040000F029FCA00900F0010000F0D1
:1048500039FC2046FFF75AFD284600F0EDFB18B161
:1048600004F0010000F0F1FBA00644BF284600F070
:104870009BFF2878210000F0DF0018BF012140EAEB
:1048800041102870284604F0B9FF0028DFF8A4473B
:10489000DFF89C67284631D000F0CEFB002847D0D7
:1048A00000F0CEFB002814BF022301230322694637
:1048B000304604F00FFD9DF800609DF802109DF851
:1048C000010006F00706052E41F480724FF4807552
:1048D00009D19DF800100E0703D440F480732360C3
:1048E00026E0400704E000F03003202B04D1C0078D
:1048F00048BF2A4622601BE0216019E004F085FFD2
:10490000B0B1284600F098FB90B1A07802280CBF07
:1049100008210621304604F01CFD10F1010F01D1E1
:10492000032076BDA178012908BF00F00F00207296
:10493000002001F04EF9002076BD80B589B2FFF766
:1049400054FF010003D1BDE8014001F0B6BE02BD35
:104950003EB504461D4689B2FFF747FF010014D15A
:10496000D5E90001CDE900019DF80410B4F89600E6
:10497000012904D10099814238BF002001D3009958
:10498000081A0090684601F05DFF3EBD18600844BB
:10499000EC10084604400840114601F0B0BE80B556
:1049A00000F0D8FE01F058FADFF8CC170A6822F0C0
:1049B00020020A6001F054FA1F490220086000201A
:1049C00002BD0000F8600846EC1008405CB700200B
:1049D0001870084428E0002001284FF0605109D0E9
:1049E0000AD3032803D007D24FF0C05005E04FF0A0
:1049F000005002E0084600E00020DFF87827116050
:104A000004232349DFF8742708604FF4001008607E
:104A1000DFF8EC08016821F0060141F004010160B3
:104A20004FF080511160436100207047EC10084442
:104A300001000080F01E0021004008468840084028
:104A400010B5DFF83C27117819B1DFF838170622C6
:104A50000A600023DFF83027DFF8304713604FF09B
:104A60008051DFF82C2721601368DFF808175C02FB
:104A700008D4007F4FF40012030646BFDFF8B408E5
:104A800002600A604FF060520A60002010BD000012
:104A90001860084620B1DFF8FC1602200860704755
:104AA000DFF8940802220260704700001870084680
:104AB000581F0021007FDFF8082600F06000202842
:104AC00010D040280BD060280FD131B108680128E0
:104AD0000BD9486940F0010005E0002003E040F2F6
:104AE000011103E00120106001E000211160DFF8F6
:104AF00080268020106070470000C0BF3EF200207A
:104B000004300E402DE9F04104460D46E169164699
:104B1000A94305EA06000143E1612A07DFF8180806
:104B2000DFF8701605D5330747BF08220A6008234F
:104B30000360EA0705D5F30747BF0120086001219C
:104B400001606807DFF8EC870ED501F093FF4FF4A2
:104B5000007071074EBFC8F80400DFF8E017086066
:104B6000DFF87C2304201060A80704D5700800F04B
:104B70000100FFF78FFFE806DFF8C47705D5F106DF
:104B800047BF0020B8621B21B962280628D531062C
:104B90001DD54FF40010DFF8AC17C8F80000012253
:104BA0000A6001F059F9DFF8A0271168090E01F039
:104BB0000F01032905D174490B680E2262F3071314
:104BC0000B6040F20121396001F04AF908E0DFF89A
:104BD000C00501684A025CBF04F18000FFF73EFB9C
:104BE00015F0600F03D0216F2046FFF763FF002010
:104BF000BDE8F0812DE9F1430D460024022D82B07D
:104C000091461E4603D100F035F800202CE001F05B
:104C100023F9DFF800788046F868002818BF484577
:104C200019D1C7F80C903E61012401940094002230
:104C300000230020002101F079FC00223A700220BC
:104C400004F082FE00232A4602A9022004F08DFE11
:104C5000044602987861404601F002F9002C03BF37
:104C60000020F86001200020BDE8FE83DFF8A407E3
:104C700040697047E0B501210020009101900022B9
:104C80000023002101F052FC022004F05DFEDFF859
:104C900084170020C86007BDDFF87C0701684A055B
:104CA00003D4DFF87807007800B1012070470000D6
:104CB000D3420000022004F0F0BEDFF87407006861
:104CC00002F060BC016F51B10A68032A07D3486A39
:104CD0000004000E06D0096AB1FBF0F070470C38F2
:104CE000FFF7A8BA7047DFF84807006802F074BC05
:104CF00044000840016F61B10A68032A09D34A6A77
:104D00001004000E08D0096AD2B24A43B2FBF0F098
:104D100070470C3804F09BBF704710B5DFF80027D0
:104D200013681C0408D5487C012802D1DFF8F4067A
:104D300010BDDFF8180710BDBDE81040DAE710B568
:104D4000DFF80C070B7802684978C2EA034444EAAA
:104D500001640460002010BDDFF8F4064B7802689F
:104D60000978120C41EA032141EA02420260002064
:104D70007047DFF8DC0600680870000AFFE748703B
:104D80000020704700000000441F0021481F002140
:104D90000C50084060600840981E0021180008442C
:104DA00002F074BCF8B504460D4604F1A8000622D2
:104DB00001F00AF804F1AC06AF88F765FF206071D6
:104DC000284603F0E1FC050004D104F1A80003F03B
:104DD0001BFD0546280007D1204603F0FCFE30806D
:104DE00004F18000FFF770FA2846F2BD38B504469A
:104DF00004F1A80300201A78032A01D1022032BD51
:104E0000E26E21711AB3E06F18B9187BCDB2A842D7
:104E100005D3B2F91220B3F94E00824211DA197BA0
:104E20000022204600F016F8010012D10020E066B2
:104E30002046FFF790F901462046BDE83440FFF7D1
:104E4000D4B82046BDE838400022C9B202E0FF21B4
:104E5000617132BD70B50446002694F8A80003289D
:104E60000D4608BF022613D0C9B2FF290FD003F0A8
:104E700032FDE9B2814204D394F8A80003F02BFD7F
:104E800005466571607903F063FDFF2800D10126B6
:104E9000304670BD024680B5084602F1A8010622E0
:104EA00000F092FF002002BD90F8A810032901D164
:104EB000FF2070474079704780B504F08BFFBDE854
:104EC000014004F0EEBE000042F5FFFFA353FFFFD8
:104ED000B3F7FFFFFCA00040A000084618000846FA
:104EE0008840084410B5044604F0B8FE2046FFF799
:104EF0000DFABDE8104004F0FEBE38B504460D467C
:104F000004F0ACFE2846FFF701FA2046BDE8324027
:104F100004F018BFF0B581B005460F4616461C4692
:104F200004F064FF85F8B00071682160B0893F1A11
:104F3000278102F0B8FA000B95F8B050B3682189C8
:104F4000C0EB8040B0FBF5F0C009984204D227685E
:104F500003FB0173236000234029636009D3B06819
:104F600023688A09424303EB8213236001F03F0167
:104F7000218101B0F0BD90B5044681B0606A01287E
:104F800053D0DFF8F02410682067C9B259B904F093
:104F900025FFD4F8B810884205D104F023FFD4F8D7
:104FA000BC10884208D0002104F1B80004F0A8FF2A
:104FB00010B1022001B090BDB4F8C000012104F08E
:104FC000C8FF207800F0FE002070E16E4869DFF82D
:104FD000F8150968006811F1010F11D010F1010FE7
:104FE0000ED1204605F0FEF8D4E9360101F0800329
:104FF0000027BB420FD1207840F00100207014E060
:1050000010F1010FF0D010F1020F0ED00146204632
:1050100005F0E8F809E04FF48031204602F098FBF3
:1050200002460B462046FFF755F9002001B090BD1F
:1050300000100840D41E00214FF4807102F027B9FF
:105040004FF40031284602F022B94FF4807110B1BC
:10505000384801607047DFF8F02511607047DFF8CD
:1050600080150A78130700D5704730B50021444AEF
:10507000DFF8D83503EB810303F180654FF440641A
:105080002C60050005D1941C03F1C063655CAD0282
:105090001D60491C0129EBDD30BD10B5044601F04F
:1050A000E9FC4FF48060002C19BFDFF8A4150860FC
:1050B000DFF888221060DFF890150420086010BD2A
:1050C000541F002120B1DFF88C1540200860704784
:1050D000DFF8880540220260704700F00100704749
:1050E000F8B50D460446687818B92046FFF7A8FCC5
:1050F00001E0FFF771FCA878DFF85C6540F6FF7708
:1051000000280EBF3760204600F071F9E87838B902
:1051100020493763602008604022DFF82C3505E025
:105120008549DFF8A8346020086040221A6000201A
:10513000F2BD00008840084638B50C466A4604F0C7
:1051400038FA050018BF002C10D02078002818BFAE
:1051500008280BD000F080FEDFF8C012CD61BDF84A
:1051600000204A8063888B8000F07AFE284632BD9A
:105170000840084018600844C81E002194400846B2
:10518000F0E1002070000844840008409440084486
:1051900088400840440008462DE9F84F0B0084B0D1
:1051A00006460AD0140008D0042B08D200220021A1
:1051B000184604F0FEF9030001D101209BE0684687
:1051C0001946082200F000FE9DF80200BDF80020FC
:1051D00000F00701130448BF0220EFD4072902D1D1
:1051E0000122227303E000230629237303DB020953
:1051F00002F0010200E000226273C0F38012227408
:10520000C0F3C002C0F34010A07462749DF80400A3
:1052100008B996F8A200401EE074307FC20662D43E
:10522000072918BF06295ED1DFF814050168BDF80B
:105230000020DFF81005931F9BB2062202A904F09C
:1052400049F802AFBDF8061078784000C1F30B05AD
:105250009DF90880C90426D59DF805A0306F4FEA56
:10526000C50930B10168032903D390F8240068B15F
:105270000AE03046FFF726FD834621463046FFF719
:105280004CFD18B10BFB09F9B9FBF0F9D14502D37C
:10529000B9F1000F01D1002005E0CAEB0A2ABAFBE0
:1052A000F9F0C0F1FF00B26F12B14146C0B29047B1
:1052B000E07384F80E80B978F8783B79627C41EA33
:1052C0000021787941EA034141EA0061304600F06B
:1052D0007CFF20607178042903D1042DDCBFC01C41
:1052E0002060012005E000206FF07F01E073A173D2
:1052F00020602072002005B0BDE8F08F00000000A3
:105300007000084038B50C46FFF707FD054600F071
:1053100041FF10F1010F01D1022032BD01460022F0
:10532000284600F01EFF2168081A20600220207223
:10533000002032BD18600846440008441C60084440
:1053400024000840F86008440440084038B5084686
:105350009BB200F01FF807DAB3FA83F1C1F119012B
:10536000C9B209B9002307E000F014F8BABFB3FAD4
:1053700083F3C3F11903062301259C1D05FA04F4E8
:10538000A1B292B2914288BF1146DAB203F027FF70
:10539000A0B232BDB3FA83F1C1F11901C9B2072934
:1053A000704710B50846118800F01AF807DAB1FA0C
:1053B00081F3C3F11903DBB20BB9002107E000F060
:1053C0000FF8BABFB1FA81F1C1F119010621012428
:1053D0008B1D9C401480C9B203F019FF002010BD42
:1053E000B1FA81F3C3F11903DBB2072B704710B593
:1053F0000020FEF74DFFDFF89C23DFF89C430121DE
:1054000011604FF40053236018B1BDE81040002133
:105410000AE010BD5CB700205C5008405CB700207B
:105420003061084048E801000120FEF73DBF000060
:105430001860084020B1DFF8941108200860704718
:10544000DFF80402082202607047000020A1070074
:10545000F01E002101600020704710B50846144678
:10546000012102F02DF80121204602F029F8002048
:1054700010BD0000F81F00212DE9F04381B0054662
:105480000E4604F0B3FCDFF81473804638694045DB
:1054900018BF03F057FC2C6FDFF8B003016811F45C
:1054A000E05F04BF2021C0F88C1168480168890AB8
:1054B00001F00301B9704FF6FF714068800A00F0F7
:1054C0000300F870A88988421CBF7A68002A02D0BD
:1054D000014628469047296FF868814215D0002977
:1054E0001CBF0868002808D0086930B14268C5F8B8
:1054F00088200068C5F8800004E00022C5F88820F4
:10550000C5F880202846FFF7D5FAF86884424FF0A6
:10551000010910D0BA684FF007093AB10021002CF8
:105520001EBF20680028A168284690472846FFF73C
:10553000E1FB00F0CCFC284603F04DFBF6B226B9A7
:10554000494605F1800000F03DFD286FF860C7F87E
:1055500010800621DFF8F802016001223A7001B0E4
:10556000BDE8F0837CB50C000646DFF8E85207D1B1
:105570000022072101F07AFE0020C5E9000073BD7A
:10558000DFF8201207200860012122792A70607953
:105590000090684604F03CFE0099C14000F00F0006
:1055A00040EA011068700722A079A870E179E970DB
:1055B000206868602179DFF8E801491C0160304605
:1055C000072101F053FE73BDD8B70020884008467C
:1055D00004F0A4BA4821DFF8800204F02FBE0000D6
:1055E000C01E002104F02EBE38B50D4604462988A1
:1055F00004F1900000F0C5FC288004F1980069884F
:1056000000F0BFFC688004F19600A98800F0B9FCA6
:10561000A88004F19400E98800F0B3FCE8808034AD
:105620002989204600F0BCFC28812046698900F0C9
:10563000C0FC68812046FEF744FE002032BD04F025
:105640009DBE04F0D8BE000088400844A000084079
:105650001C6008468070084624100840807008448A
:1056600080B5DFF8F811086918B90A1D0A614868A1
:105670008047002002BD10B50446DFF8E401006851
:10568000C10713D4DFF8D411087840B1086908B90C
:10569000032010BD00220A708068804706E004F0F5
:1056A0003DFA201804F007FA04F01FF9002010BD9D
:1056B0002DE9F04107460D46144600F0CDFB80462B
:1056C000FEF7A6FF01281AD1DFF898010168090E3C
:1056D00011F00F0FF4D1806BC006F1D5DFF88061B7
:1056E0003068C1071ED5DFF8741138000F7017D06D
:1056F000096949B9404600F0B3FB03201DE0002CC6
:10570000F8D000202070F5E74968284688473068BF
:10571000C00707D4DFF850214FF08041116001E04D
:1057200004F0F1F82CB1306800F0010080F00100C5
:105730002070404600F094FB0020BDE8F08100009E
:105740004C0008403010084080B5C8B201F000FF9E
:10575000002002BD10B50446DFF81011D4F89C00FB
:1057600008604FF40061227810074CBF4FF40062CC
:105770000022204601F07AFD21780A074FF40070DC
:1057800003D5DFF8EC10086010BDDFF8E8201060EA
:1057900010BD00002810084024100844F0E100204B
:1057A000180008400400084430B5B0F8F2004FF685
:1057B000FF71884201D1032030BD2F492F4B09686A
:1057C0002F4D304C0A0CC1F30111491C1A80B0FB5B
:1057D000F1F02D492C6000040860002030BD00006D
:1057E00030B5264801884FF6FF72914201D103205F
:1057F00030BD234C234B244D2360090429600280D3
:10580000002030BD80B52148016811F1010F0CBFA7
:105810000120002058B9480009D40320FEF7D4FE27
:105820001B481C4B4FF08061016001221A6001BDD2
:1058300010494FF400200860704717480068C00CFA
:10584000FFF74BBC154916488860704784600840D4
:10585000700008443C1F0021F41E00217CB700208A
:105860000C5008400440084080E200E0CC1E0021BB
:1058700088400846884008445C6008403EF20020AA
:105880005C6008440000FFFF5C600846B481E00FE4
:10589000944008460C40084688400840F0E100204B
:1058A00065550000DFF8DC12496800E0096919B1AC
:1058B0008142FBD1012070470020704780B1DFF8A2
:1058C000C422131D01E001F11003196841B18142A6
:1058D000F9D10069186001209168491E91607047F4
:1058E0000020704738B5040001D1012032BD1821D5
:1058F00004F0A4FCFEF73CF905462046FFF7D2FF72
:1059000020B12846FEF738F9022032BD9D490A1D14
:1059100001E000F1100210680028FAD11460206143
:1059200028468A68521C8A60FFE7FEF725F90020A6
:1059300032BDB7E72DE9F0470646894615461C46B5
:10594000FFF7B0FFFEF714F9824604F0E3FD80464E
:10595000304600F0E9F820B1304600F0C9F80020E8
:10596000B0752846089D0A9F012809D154EA09000C
:1059700005D1DDB13A4641463046A84716E0C1445C
:105980004946404600F0A3F820B15046FEF7F4F82F
:1059900001200FE0099801217175C6F8009074602C
:1059A000B5603075F760404600F006F85046FEF7E7
:1059B000E3F80020BDE8F0872DE9F8430646FEF73E
:1059C000D7F8704D8046287810B1012169705BE0EE
:1059D000012028700021697004F0AEFD08B104F0C8
:1059E000A9FD6F68EFB1787D78B13968304600F075
:1059F0006EF850B1786839684118396000B10120FB
:105A00007875B86800B10120B8753F69EAE70020F1
:105A100098757F1C19685868DA68091A18469B68D7
:105A20009847A86887420FD269680023FF2207E0E1
:105A3000887D20B1087D824224BF0B460246096959
:105A40000029F5D1002BE2D16F684FF0FF39002417
:105A5000FFB1787D60B13968304600F038F8002831
:105A600006BF3868801B0020814524BF81463C4624
:105A70003F69EDE704F04EFD0646002F04BF68784D
:105A80000028A7D1002129704046BDE8F243FEF767
:105A900073B84CB12046FFF711FF28B16868206148
:105AA0006C60A868401CA8606968487D0028E1D047
:105AB000086804F031FD0746DCE7884201D1002088
:105AC0007047081A304988428041C00F704780B53E
:105AD000FFF7F3FF31E010B5FEF74AF8044604F093
